:02000004085F93
:1020000000205F08FCFF5F080000060020000501BB
:082010000401E01500000000CE
:102018001348144908B5884205D0134A824202D0B1
:10202800124B121A98471248124A0021124B121AE0
:10203800984712481249884205D0124A824202D073
:102048000A4B121A984710481049884205D0104A7E
:10205800824202D0054B121A9847014808BD00BFBA
:10206800D8AA071084F55F08D4AC07102D0D1110FD
:10207800D8AC0710ECAF0710A10E1110202B3F02AF
:10208800B0205F08282B3F02282B3F02B8205F08AA
:0C209800F4FF3F0219205F080000000068
:0820A4001015E07901000000B5
:0820B0009C205F08B4EC3F0224
:1020B80081F0004102E000BF83F0004330B54FEAF1
:1020C80041044FEA430594EA050F08BF90EA020F5E
:1020D8001FBF54EA000C55EA020C7FEA645C7FEAF1
:1020E800655C00F0E2804FEA5454D4EB5555B8BF14
:1020F8006D420CDD2C4480EA020281EA030382EA85
:10210800000083EA010180EA020281EA0303362D16
:1021180088BF30BD11F0004F4FEA01314FF4801CE9
:102128004CEA113102D0404261EB410113F0004FFB
:102138004FEA03334CEA133302D0524263EB4303B2
:1021480094EA050F00F0A780A4F10104D5F1200E50
:102158000DDB02FA0EFC22FA05F2801841F10001AB
:1021680003FA0EF2801843FA05F359410EE0A5F17F
:1021780020050EF1200E012A03FA0EFC28BF4CF0B0
:10218800020C43FA05F3C01851EBE37101F0004566
:1021980007D54FF0000EDCF1000C7EEB00006EEB73
:1021A8000101B1F5801F1BD3B1F5001F0CD34908FD
:1021B8005FEA30004FEA3C0C04F101044FEA445254
:1021C80012F5800F80F09A80BCF1004F08BF5FEADB
:1021D800500C50F1000041EB045141EA050130BDBB
:1021E8005FEA4C0C404141EB0101013C28BFB1F5CD
:1021F800801FE9D291F0000F04BF01460020B1FA18
:1022080081F308BF2033A3F10B03B3F120020CDAEA
:102218000C3208DD02F1140CC2F10C0201FA0CF0C8
:1022280021FA02F10CE002F11402D8BFC2F1200C2D
:1022380001FA02F120FA0CFCDCBF41EA0C019040E3
:10224800E41AA2BF01EB0451294330BD6FEA04042C
:102258001F3C1CDA0C340EDC04F11404C4F1200217
:1022680020FA04F001FA02F340EA030021FA04F329
:1022780045EA030130BDC4F10C04C4F1200220FA80
:1022880002F001FA04F340EA0300294630BD21FABE
:1022980004F0294630BD94F0000F83F4801306BF84
:1022A80081F480110134013D4EE77FEA645C18BF78
:1022B8007FEA655C29D094EA050F08BF90EA020F0F
:1022C80005D054EA000C04BF1946104630BD91EA07
:1022D800030F1EBF0021002030BD5FEA545C05D10A
:1022E8004000494128BF41F0004130BD14F5800449
:1022F8003CBF01F5801130BD01F0004545F0FE41BD
:1023080041F470014FF0000030BD7FEA645C1ABFF1
:10231800194610467FEA655C1CBF0B46024650EA28
:10232800013406BF52EA033591EA030F41F4002154
:1023380030BD00BF90F0000F04BF0021704730B5DA
:102348004FF4806404F132044FF000054FF00001AF
:1023580050E700BF90F0000F04BF0021704730B570
:102368004FF4806404F1320410F0004548BF404245
:102378004FF000013EE700BF42004FEAE2014FEA9A
:1023880031014FEA02701FBF12F07F4393F07F4F75
:1023980081F06051704732F07F4208BF704793F078
:1023A8007F4F04BF41F40021704730B54FF460748B
:1023B80001F0004521F000411CE700BF50EA01028E
:1023C80008BF704730B54FF000050AE050EA010237
:1023D80008BF704730B511F0004502D5404261EBA7
:1023E80041014FF4806404F132045FEA915C3FF4E8
:1023F800D8AE4FF003025FEADC0C18BF03325FEA85
:10240800DC0C18BF033202EBDC02C2F1200300FA35
:1024180003FC20FA02F001FA03FE40EA0E0021FA5A
:1024280002F11444BDE600BF70B54FF0FF0C4CF448
:10243800E06C1CEA11541DBF1CEA135594EA0C0FFA
:1024480095EA0C0F00F0DEF82C4481EA030621EA35
:102458004C5123EA4C5350EA013518BF52EA033570
:1024680041F4801143F4801338D0A0FB02CE4FF022
:102478000005E1FB02E506F00042E0FB03E54FF052
:102488000006E1FB03569CF0000F18BF4EF0010E4A
:10249800A4F1FF04B6F5007F64F5407404D25FEA46
:1024A8004E0E6D4146EB060642EAC62141EA5551F9
:1024B8004FEAC52040EA5E504FEACE2EB4F1FD0C3B
:1024C80088BFBCF5E06F1ED8BEF1004F08BF5FEAB9
:1024D800500E50F1000041EB045170BD06F000466B
:1024E80046EA010140EA020081EA0301B4EB5C0418
:1024F800C2BFD4EB0C0541EA045170BD41F4801110
:102508004FF0000E013C00F3AB8014F1360FDEBF34
:10251800002001F0004170BDC4F10004203C35DA10
:102528000C341BDC04F11404C4F1200500FA05F393
:1025380020FA04F001FA05F240EA020001F0004234
:1025480021F0004110EBD37021FA04F642EB0601AA
:102558005EEA430E08BF20EAD37070BDC4F10C04D4
:10256800C4F1200500FA04F320FA05F001FA04F298
:1025780040EA020001F0004110EBD37041F1000184
:102588005EEA430E08BF20EAD37070BDC4F120058F
:1025980000FA05F24EEA020E20FA04F301FA05F2F7
:1025A80043EA020321FA04F001F0004121FA04F29F
:1025B80020EA020000EBD3705EEA430E08BF20EA6F
:1025C800D37070BD94F0000F0FD101F000464000A9
:1025D80041EB010111F4801F08BF013CF7D041EA2B
:1025E800060195F0000F18BF704703F0004652002F
:1025F80043EB030313F4801F08BF013DF7D043EA00
:102608000603704794EA0C0F0CEA135518BF95EAB5
:102618000C0F0CD050EA410618BF52EA4306D1D13C
:1026280081EA030101F000414FF0000070BD50EA5B
:10263800410606BF1046194652EA430619D094EAE5
:102648000C0F02D150EA013613D195EA0C0F05D1CF
:1026580052EA03361CBF104619460AD181EA030123
:1026680001F0004141F0FE4141F470014FF00000DB
:1026780070BD41F0FE4141F4780170BD70B54FF076
:10268800FF0C4CF4E06C1CEA11541DBF1CEA1355F6
:1026980094EA0C0F95EA0C0F00F0A7F8A4EB0504D8
:1026A80081EA030E52EA03354FEA013100F08880CF
:1026B8004FEA03334FF0805545EA131343EA126398
:1026C8004FEA022245EA111545EA10654FEA00264D
:1026D8000EF000419D4208BF964244F1FD0404F506
:1026E800407402D25B084FEA3202B61A65EB030562
:1026F8005B084FEA32024FF480104FF4002CB6EB1F
:10270800020E75EB030E22BFB61A754640EA0C009E
:102718005B084FEA3202B6EB020E75EB030E22BFDE
:10272800B61A754640EA5C005B084FEA3202B6EB1F
:10273800020E75EB030E22BFB61A754640EA9C00DE
:102748005B084FEA3202B6EB020E75EB030E22BFAE
:10275800B61A754640EADC0055EA060E18D04FEA6C
:10276800051545EA16754FEA06164FEAC30343EA0C
:1027780052734FEAC2025FEA1C1CC0D111F4801FD9
:102788000BD141EA00014FF000004FF0004CB6E7D2
:1027980011F4801F04BF01430020B4F1FD0C88BF71
:1027A800BCF5E06F3FF6AFAEB5EB030C04BFB6EB7C
:1027B800020C5FEA500C50F1000041EB045170BD6F
:1027C8000EF0004E4EEA113114EB5C04C2BFD4EB9C
:1027D8000C0541EA045170BD41F480114FF0000E20
:1027E800013C90E645EA060E8DE60CEA135594EA9C
:1027F8000C0F08BF95EA0C0F3FF43BAF94EA0C0F9F
:102808000AD150EA01347FF434AF95EA0C0F7FF413
:1028180025AF104619462CE795EA0C0F06D152EA67
:1028280003353FF4FDAE1046194622E750EA41064B
:1028380018BF52EA43067FF4C5AE50EA41047FF45C
:102848000DAF52EA43057FF4EBAE12E74FF0FF3CC1
:1028580006E000BF4FF0010C02E000BF4FF0010C92
:102868004DF804CD4FEA410C7FEA6C5C4FEA430C0B
:1028780018BF7FEA6C5C1BD001B050EA410C0CBF5A
:1028880052EA430C91EA030F02BF90EA020F0020BC
:10289800704710F1000F91EA030F58BF994208BF23
:1028A80090422CBFD8176FEAE37040F001007047E0
:1028B8004FEA410C7FEA6C5C02D150EA013C07D137
:1028C8004FEA430C7FEA6C5CD6D152EA033CD3D082
:1028D8005DF8040B704700BF8446104662468C467C
:1028E8001946634600E000BF01B5FFF7B7FF0028AF
:1028F80048BF10F1000F01BD4DF808EDFFF7F4FFD8
:102908000CBF012000205DF808FB00BF4DF808ED62
:10291800FFF7EAFF34BF012000205DF808FB00BF85
:102928004DF808EDFFF7E0FF94BF012000205DF8A7
:1029380008FB00BF4DF808EDFFF7CEFF94BF01205C
:1029480000205DF808FB00BF4DF808EDFFF7C4FF55
:1029580034BF012000205DF808FB00BF4FEA410C9E
:102968007FEA6C5C02D150EA013C0AD14FEA430C81
:102978007FEA6C5C02D152EA033C02D14FF00000BE
:1029880070474FF0010070474A0011D212F500124B
:1029980011D20DD56FF47873B3EB62520ED44FEAAF
:1029A800C12343F0004343EA505323FA02F070472F
:1029B8004FF00000704750EA013002D14FF0FF306D
:1029C80070474FF0000070474FEA4102B2F1E04310
:1029D80024BFB3F5001CDCF1FE5C0DD901F0004CFE
:1029E8004FEAC0024CEA5070B2F1004F40EB83004E
:1029F80008BF20F00100704711F0804F21D113F17A
:102A08003872BCBF01F00040704741F480114FEAB2
:102A18005252C2F11802C2F1200C10FA0CF320FA3B
:102A280002F018BF40F001004FEAC1234FEAD32358
:102A380003FA0CFC40EA0C0023FA02F34FEA4303C2
:102A4800CCE77FEA625307D150EA01331EBF4FF04B
:102A5800FE4040F44000704701F0004040F0FE4066
:102A680040F40000704700BF53B94AB9002908BFB5
:102A780000281CBF4FF0FF314FF0FF3000F0D4B9F1
:102A8800ADF1080C6DE904CE00F058F8DDF804E06B
:102A9800DDE9022304B0704707EE900AF5EEC07A2C
:102AA800F1EE10FA01D400F00BB8F1EE677A08B530
:102AB80017EE900A00F004F8404261EB410108BDAE
:102AC800D0B5FFF759FC00220B4B06460F46FFF71F
:102AD800ABFCFFF759FF0446FFF72CFC0022074B1D
:102AE800FFF7A2FC02460B4630463946FFF7E4FAE8
:102AF800FFF74AFF2146D0BD0000F03D0000F0413D
:102B0800D0B500220B4B06460F46FFF78DFCFFF7AA
:102B18003BFF0446FFF70EFC0022074BFFF784FC3F
:102B280002460B4630463946FFF7C6FAFFF72CFF38
:102B38002146D0BD0000F03D0000F0412DE9F04FE6
:102B4800099D04460F46002B48D18A42944661D914
:102B5800B2FA82F343B1C3F120019F4002FA03FCA9
:102B68009C4020FA01F10F434FEA1C411FFA8CFEEA
:102B7800220CB7FBF1F601FB167706FB0EF042EAD2
:102B88000742904208D91CEB020206F1FF3702D235
:102B9800904200F237813E46121AA4B2B2FBF1F01D
:102BA80001FB102200FB0EFE44EA0244A64508D9A8
:102BB8001CEB040400F1FF3202D2A64500F21C818E
:102BC800104640EA0640A4EB0E0400261DB1DC4086
:102BD8000023C5E900433146BDE8F08F8B4209D98F
:102BE800002D00F0FD800026C5E900013046314681
:102BF800BDE8F08FB3FA83F6002E4BD18B42C0F0BC
:102C0800F280824240F2EF803046002DE3D0C5E9E1
:102C18000047E0E702B9FFDEB2FA82F3002B40F08A
:102C28009D80891A4FEA124E97B20126200CB1FBFB
:102C3800FEF20EFB121140EA014107FB02F0884246
:102C48000FD91CEB010102F1FF382CBF4FF001092D
:102C58004FF00009884203D9B9F1000F00F0CF8086
:102C68004246091AA4B2B1FBFEF00EFB101100FB9C
:102C780007F744EA0144A74208D91CEB040400F111
:102C8800FF3102D2A74200F2B4800846E41B40EAB2
:102C980002409BE7C6F12007B34001FA06F422FA86
:102CA80007FCF940B2404CEA030C20FA07F34FEA5C
:102CB8001C491C431FFA8CFE00FA06F3200CB1FBDA
:102CC800F9F809FB181140EA014108FB0EF08842A7
:102CD8000FD91CEB010108F1FF3A2CBF4FF0010B93
:102CE8004FF0000B884203D9BBF1000F00F08D8034
:102CF800D046091AA4B2B1FBF9F009FB101100FB88
:102D08000EFE44EA01418E4507D91CEB010100F192
:102D1800FF3401D28E457FD8204640EA0840A1EB17
:102D28000E01A0FB029841454C46C64602D306D187
:102D38004B4504D20138B9EB020468EB0C0E002DA8
:102D480070D01A1B61EB0E0122FA06F301FA07F79D
:102D5800F14000261F43C5E900713CE702FA03FC75
:102D6800C3F1200001FA03F221FA00F64FEA1C4EE3
:102D780024FA00F11FFA8CF79C401143B6FBFEF0D1
:102D88000A0C0EFB106642EA064200FB07F6964262
:102D98000ED91CEB020200F1FF382CBF4FF00109DD
:102DA8004FF00009964202D9B9F1000F31D04046E0
:102DB800921B89B2B2FBFEF60EFB162241EA0241D3
:102DC80006FB07F28A4207D91CEB010106F1FF381E
:102DD80001D28A4223D84646891A46EA004625E7A0
:102DE8002E462846F7E6841A61EB030301201F46A6
:102DF8000BE76444023849E764440238E1E6023AE2
:102E080061442EE7023E6244C6E6A8F10208614426
:102E18006FE702386244CBE7023861447DE7023E3F
:102E28006144D9E72E46D6E6704700BF10F8012B5B
:102E380011F8013B012A28BF9A42F7D0D01A7047EF
:102E4800034613F8012B002AFBD1181A01387047E2
:102E580038B50022002304460D46FFF757FD28B970
:102E680020462946BDE83840FFF74ABE204605F10E
:102E78000041FFF745FE404261EB410138BD00BF0C
:102E880070B507F009FE0025054E064CA41BA408E2
:102E9800AC4200D170BD56F8043B98470135F7E7BE
:102EA800C4FF3F02F4FF3F0200F00EBE08B500F079
:102EB80033FEBDE8084007F0A7BD04F065BE04F086
:102EC80063BE04F06FBE04F06DBE00000C2008B5B0
:102ED800024A034904F060FCFEE700BF9D7B3F0205
:102EE800C4EC3F020078B0FA80F040097047012333
:102EF800037070471FB50849684606F0A4FC6421B2
:102F0800684603F0A9F8684606F052FC0122034B14
:102F18001A7005B05DF804FBD9EC3F02E9AC071064
:102F28001FB50F49684606F08EFC684603F0AEF8F8
:102F38000446684606F03CFC631C0FD0002CCCBF4E
:102F480001220022074B1A7008DD04F0F9F8064B3D
:102F5800186004B0BDE81040FFF7CCBF04B010BD46
:102F6800E3EC3F02E8AC0710E4AC07101FB50D4CCA
:102F78002378ABB104F0E4F80B4B1B6803F56A53F4
:102F8800183383420CD20949684606F05CFC0021DC
:102F9800684603F061F8684606F00AFC00232370CF
:102FA80004B010BDE9AC0710E4AC0710D9EC3F023F
:102FB80010B58AB0BA4902A806F045FCB94906A876
:102FC80006F041FC4C20FFF778FF044620B10021B1
:102FD80006AB02AA02F052F9204602F0BDFF06A88D
:102FE80006F0E6FB02A806F0E3FBAF4902A806F0EC
:102FF8002AFCAC4906A806F026FC4020FFF75DFF36
:10300800044620B1012106AB02AA02F03BFB204690
:1030180002F0A2FF06A806F0CBFB02A806F0C8FB48
:10302800A24902A806F00FFC9E4906A806F00BFC70
:103038005420FFF742FF044648B14FF4FA630221D7
:1030480002AACDE90031012106AB02F0C3FB2046FC
:1030580002F082FF06A806F0ABFB02A806F0A8FB68
:10306800934902A806F0EFFB8E4906A806F0EBFB91
:103078005420FFF722FF044640B14FF4FA630221BF
:1030880002AACDE9003106AB02F0A4FB204602F00B
:1030980063FF06A806F08CFB02A806F089FB8549A9
:1030A80002A806F0D0FB844906A806F0CCFB542001
:1030B800FFF703FF044648B14FF4FA6302220321E5
:1030C800CDE9003206AB02AA02F084FB204602F0EA
:1030D80043FF06A806F06CFB02A806F069FB7749D7
:1030E80002A806F0B0FB744906A806F0ACFB542011
:1030F800FFF7E3FE044650B14FF4FA634FF0020EB7
:103108000421CDE9003E02AA06AB02F063FB20468B
:1031180002F022FF06A806F04BFB02A806F048FBC7
:10312800674902A806F08FFB634906A806F08BFBE7
:103138005420FFF7C2FE044650B14FF4FA634FF033
:10314800020C0521CDE9003C02AA06AB02F042FBC5
:10315800204602F001FF06A806F02AFB02A806F0A6
:1031680027FB584902A806F06EFB534906A806F04B
:103178006AFB5420FFF7A1FE044648B14FF4FA63F6
:10318800022102AACDE90031062106AB02F022FB9A
:10319800204602F0E1FE06A806F00AFB02A806F0A7
:1031A80007FB494902A806F04EFB3E4906A806F06F
:1031B8004AFB5420FFF781FE044648B14FF4FA63F6
:1031C80002220721CDE9003206AB02AA02F002FB77
:1031D800204602F0C1FE06A806F0EAFA02A806F0A8
:1031E800E7FA3A4902A806F02EFB394906A806F084
:1031F8002AFB3820FFF761FE044620B1582306AAAF
:1032080002A902F08FFE204602F0A6FE06A806F0EC
:10321800CFFA02A806F0CCFA2E4902A806F013FB52
:103228002B4906A806F00FFB3820FFF746FE044698
:1032380020B1582306AA02A902F074FE204602F023
:103248008BFE06A806F0B4FA02A806F0B1FA2249E5
:1032580002A806F0F8FA1E4906A806F0F4FA382083
:10326800FFF72BFE044620B1582306AA02A902F054
:1032780059FE204602F070FE06A806F099FA02A848
:1032880006F096FA154902A806F0DDFA104906A8D4
:1032980006F0D9FA3820FFF710FE044620E000BFF8
:1032A800EEEC3F02F6EC3F02E3EC3F02FDEC3F029E
:1032B8000BED3F0210ED3F021AED3F0222ED3F02F7
:1032C800D9EC3F022DED3F0238ED3F023EED3F02C3
:1032D80049ED3F024DED3F0255ED3F0261ED3F02E2
:1032E80020B1582306AA02A902F01CFE204602F0CB
:1032F80033FE06A806F05CFA02A806F059FAB449AB
:1033080002A806F0A0FAB34906A806F09CFA3820ED
:10331800FFF7D3FD044620B1582306AA02A902F0FC
:1033280001FE204602F018FE06A806F041FA02A89F
:1033380006F03EFAA84902A806F085FAA54906A8AB
:1033480006F081FA3820FFF7B8FD044620B158236B
:1033580006AA02A902F0E6FD204602F0FDFD06A835
:1033680006F026FA02A806F023FA9C4902A806F0FD
:103378006AFA984906A806F066FA3820FFF79DFD14
:10338800044620B1582306AA02A902F0CBFD204624
:1033980002F0E2FD06A806F00BFA02A806F008FA09
:1033A8008F4902A806F04FFA8A4906A806F04BFA98
:1033B8003820FFF782FD044620B1582306AA02A947
:1033C80002F0B0FD204602F0C7FD06A806F0F0F9AD
:1033D80002A806F0EDF9834902A806F034FA7D49FF
:1033E80006A806F030FA3820FFF767FD044620B13A
:1033F800582306AA02A902F095FD204602F0ACFD6A
:1034080006A806F0D5F902A806F0D2F9764902A86E
:1034180006F019FA6F4906A806F015FA3820FFF7E2
:103428004CFD044620B1582306AA02A902F07AFDF1
:10343800204602F091FD06A806F0BAF902A806F0A7
:10344800B7F96A4902A806F0FEF9624906A806F02B
:10345800FAF93820FFF731FD044620B1582306AAAF
:1034680002A902F05FFD204602F076FD06A806F0EC
:103478009FF902A806F09CF95D4902A806F0E3F955
:10348800544906A806F0DFF93820FFF716FD044670
:1034980020B1582306AA02A902F044FD204602F0F2
:1034A8005BFD06A806F084F902A806F081F95149E7
:1034B80002A806F0C8F9474906A806F0C4F938205A
:1034C800FFF7FBFC044620B1582306AA02A902F024
:1034D80029FD204602F040FD06A806F069F902A879
:1034E80006F066F9444902A806F0ADF9394906A87C
:1034F80006F0A9F93820FFF7E0FC044620B158236C
:1035080006AA02A902F00EFD204602F025FD06A833
:1035180006F04EF902A806F04BF9384902A806F061
:1035280092F92C4906A806F08EF93820FFF7C5FC59
:10353800044620B1582306AA02A902F0F3FC20464B
:1035480002F00AFD06A806F033F902A806F030F9E1
:103558002B4902A806F077F91E4906A806F073F968
:103568003820FFF7AAFC044620B1582306AA02A96E
:1035780002F0D8FC204602F0EFFC06A806F018F985
:1035880002A806F015F91F4902A806F05CF91149CE
:1035980006A806F058F93820FFF78FFC044620B13A
:1035A800582306AA02A902F0BDFC204602F0D4FC6A
:1035B80006A806F0FDF802A806F0FAF8124902A8D3
:1035C80006F041F9034906A806F03DF938201DE048
:1035D8006BED3F0249ED3F0275ED3F0280ED3F0282
:1035E8008AED3F0294ED3F0299ED3F02A5ED3F02BF
:1035F800AFED3F02BCED3F02C6ED3F02D1ED3F0209
:10360800DBED3F02E8ED3F02F2ED3F02FFF755FC2C
:10361800044620B1582306AA02A902F083FC2046DA
:1036280002F09AFC06A806F0C3F802A806F0C0F853
:10363800B44902A806F007F9B34906A806F003F949
:103648003820FFF73AFC044620B1582306AA02A9FD
:1036580002F068FC204602F07FFC06A806F0A8F8F5
:1036680002A806F0A5F8A94902A806F0ECF8A649B0
:1036780006A806F0E8F83820FFF71FFC044620B13A
:10368800582306AA02A902F04DFC204602F064FC69
:1036980006A806F08DF802A806F08AF89C4902A848
:1036A80006F0D1F8984906A806F0CDF83820FFF7BB
:1036B80004FC044620B1582306AA02A902F032FCF1
:1036C800204602F049FC06A806F072F802A806F0A7
:1036D8006FF8904902A806F0B6F88B4906A806F0DC
:1036E800B2F83820FFF7E9FB044620B1582306AAB0
:1036F80002A902F017FC204602F02EFC06A806F0EC
:1037080057F802A806F054F8834902A806F09BF877
:103718007D4906A806F097F83820FFF7CEFB044647
:1037280020B1582306AA02A902F0FCFB204602F0A9
:1037380013FC06A806F03CF802A806F039F8774909
:1037480002A806F080F8704906A806F07CF8382030
:10375800FFF7B3FB044620B1582306AA02A902F0DA
:10376800E1FB204602F0F8FB06A806F021F802A8C3
:1037780006F01EF86A4902A806F065F8624906A82C
:1037880006F061F83820FFF798FB044620B158236B
:1037980006AA02A902F0C6FB204602F0DDFB06A835
:1037A80006F006F802A806F003F85E4902A806F03B
:1037B8004AF8554906A806F046F83820FFF77DFB79
:1037C800044620B1582306AA02A902F0ABFB204602
:1037D80002F0C2FB06A805F0EBFF02A805F0E8FF1F
:1037E800514902A806F02FF8474906A806F02BF819
:1037F8003820FFF762FB044620B1582306AA02A925
:1038080002F090FB204602F0A7FB06A805F0D0FFC7
:1038180002A805F0CDFF454902A806F014F83A4978
:1038280006A806F010F83820FFF747FB044620B139
:10383800582306AA02A902F075FB204602F08CFB69
:1038480006A805F0B5FF02A805F0B2FF384902A89E
:1038580005F0F9FF2C4906A805F0F5FF3820FFF719
:103868002CFB044620B1582306AA02A902F05AFBF1
:10387800204602F071FB06A805F09AFF02A805F0A1
:1038880097FF2C4902A805F0DEFF1F4906A805F09E
:10389800DAFF3820FFF711FB044620B1582306AAA7
:1038A80002A902F03FFB204602F056FB06A805F0ED
:1038B8007FFF02A805F07CFF1F4902A805F0C3FF9F
:1038C800114906A805F0BFFF3820FFF7F6FA0446AD
:1038D80020B1582306AA02A902F024FB204602F0D0
:1038E8003BFB06A805F064FF02A805F061FF134939
:1038F80002A805F0A8FF044906A805F0A4FF38208F
:103908001EE000BFFFED3F0249ED3F020CEE3F0213
:103918001AEE3F0226EE3F0235EE3F0240EE3F022E
:1039280048EE3F0252EE3F025FEE3F0267EE3F0273
:1039380073EE3F027FEE3F0288EE3F0296EE3F02B3
:10394800FFF7BBFA044620B1582306AA02A902F0E1
:10395800E9FA204602F000FB06A805F029FF02A8B4
:1039680005F026FF514902A805F06DFF504906A849
:1039780005F069FF3820FFF7A0FA044620B1582364
:1039880006AA02A902F0CEFA204602F0E5FA06A835
:1039980005F00EFF02A805F00BFF464902A805F046
:1039A80052FF434906A805F04EFF3820FFF785FA75
:1039B800044620B1582306AA02A902F0B3FA204609
:1039C80002F0CAFA06A805F0F3FE02A805F0F0FE18
:1039D800394902A805F037FF354906A805F033FF35
:1039E8003820FFF76AFA044620B1582306AA02A92C
:1039F80002F098FA204602F0AFFA06A805F0D8FEC1
:103A080002A805F0D5FE2D4902A805F01CFF28499B
:103A180006A805F018FF3820FFF74FFA044620B132
:103A2800582306AA02A902F07DFA204602F094FA69
:103A380006A805F0BDFE02A805F0BAFE204902A8B6
:103A480005F001FF1A4906A805F0FDFE3820FFF72A
:103A580034FA044620B1582306AA02A902F062FAF1
:103A6800204602F079FA06A805F0A2FE02A805F0A1
:103A78009FFE144902A805F0E6FE0D4906A805F0C8
:103A8800E2FE3820FFF719FA044620B1582306AAA7
:103A980002A902F047FA204602F05EFA06A805F0ED
:103AA80087FE02A805F084FE0AB010BDA0EE3F0212
:103AB80049ED3F02AEEE3F02BDEE3F02C7EE3F02C8
:103AC800D1EE3F02DFEE3F0200B5002089B003F0DF
:103AD80055FE68460E4905F0B6FE0E4904A805F0E5
:103AE800B2FE012204A9684600F02AFB04A805F0EA
:103AF8005FFE684605F05CFEF021202002F02CFCF9
:103B0800012002F067FD09B05DF804EBFFF750BA39
:103B1800E9EE3F02F6EE3F0208B500F0F3F8FFF7D2
:103B2800FFF9BDE80840FFF721BA000008B50120F9
:103B3800002103F0AFFE0022054B0120C3E900225B
:103B4800A2F580329A60BDE8084003F079BE00BF54
:103B5800D8AC0710014B1A60704700BFDCAA0710E9
:103B680030B585B00446089860B1406850B18568A2
:103B780045B1CDE90241CDE90023C4686A4601ABED
:103B880002A9A04705B030BD30B51368006885B0FC
:103B980001938368D1E90045CDE902450BB907F0E7
:103BA8002FF9C36801AA02A9984705B030BD012AB8
:103BB80002D1016000207047022A04BF0B6803602D
:103BC800F8E703681268D1E90001184710B583685F
:103BD800044613B1032201469847204610BD10B58C
:103BE800044638B1FFF7F2FF2046BDE81040102127
:103BF800FFF769B910BD000008B50248FFF7E6FFF6
:103C080008BD00BFF0AC071038B50A4DD5E88F4F96
:103C180014F001040CD12846FFF764F940B1064BB3
:103C280028469C601C74FFF762F9044808F09EFA65
:103C3800014838BDECAC0710F0AC071071463F02E4
:103C480010B54FF0200C0446084600218AB0CDE993
:103C58000023CDE902C10B4602AA216803F0B8FD92
:103C68000AB010BD0EB403B503AB53F8042B3221D0
:103C78000193FFF7E5FF02B05DF804EB03B070476E
:103C88000EB403B503AB53F8042B1E210193FFF7C1
:103C9800D7FF02B05DF804EB03B070470EB403B56C
:103CA80003AB53F8042B01210193FFF7C9FF02B0BE
:103CB8005DF804EB03B0704700B50F4B97B02022B6
:103CC80000210EA80D9308F096FAFFF79DFF04A9AE
:103CD80006F0E1FDFFF798FF084A094B01A9CDE975
:103CE80001232123039306F0C9FDFFF78DFF06F09A
:103CF800CAFD17B05DF804FB240001000C000100A8
:103D0800E093040008B502F06DF90C4B186801F057
:103D180045FA0B4B1A68002A09DB0A490A48FFF7DB
:103D2800A1FF4FF4FA6003F0E5FF05F0DFFFFFF7AE
:103D38006BFFBDE8084006F0AABD00BF54AD0710F0
:103D4800DCAA071000EF3F0220AE071010B590B0B4
:103D580004460CA805F077FD0CA805F04EFF0146B7
:103D6800684605F0BCFD0CA805F022FD214604A814
:103D780005F069FD1D490CA805F065FD04A90CA80E
:103D880005F058FE1A4905F061FE694605F052FE35
:103D9800184905F05BFE01681748FFF771FF0CA88A
:103DA80005F006FD154B04A81C6805F018FF014630
:103DB80008A805F094FD684605F011FF01460CA817
:103DC80005F08DFD0CAA08A9204600F01BFD0CA8E3
:103DD80005F0EEFC08A805F0EBFC04A805F0E8FCEB
:103DE800684605F0E5FC10B010BD00BF1FEF3F02AC
:103DF80046EF3F0249EF3F0220AE071054AD0710CF
:103E0800F0B502F1080399B023F007036E4600AF3E
:103E1800ADEB030D05466846144608F0C5F90023C6
:103E280069460DF80430384605F00DFD384605F0B2
:103E3800D6FE014607F1100005F051FD294607F1AD
:103E4800200005F000FD07F1200005F0C8FE01463E
:103E580007F1300005F043FD2D4907F1500005F04A
:103E6800F2FC07F1500107F1200005F069FE044655
:103E780007F1500005F09CFC94B107F1300005F003
:103E880097FC07F1200005F093FC07F1100005F0FE
:103E98008FFC384605F08CFCB5466437BD46F0BD4E
:103EA8001C4B07F130011C6807F1400005F017FDB5
:103EB80007F1100107F1500005F011FD07F150025C
:103EC80007F14001204600F0E9FF07F1500005F036
:103ED8006FFC07F1400005F06BFC07F1300107F1BA
:103EE800400005F0FCFC07F1100107F1500005F057
:103EF800F6FC07F1500107F1400002F0FFF807F166
:103F0800500005F055FC07F1400005F051FCB4E7FE
:103F18004BEF3F0254AD071070B505468EB00192C5
:103F2800134A0C4602A81349166805F0D8FC124932
:103F380002A805F08BFD294605F07CFD014606A880
:103F480005F0CDFC21460AA805F0C9FC019B0AAA88
:103F580006A9304600F058FB0AA805F029FC06A877
:103F680005F026FC02A805F023FC0EB070BD00BFCA
:103F780054AD071004AD0710CEF53F0202F09EB80D
:103F880010B5044688B0144904A805F05CFC0A2260
:103F98002146684605F0D9FC694604A805F04AFDA3
:103FA80001680E48FFF77AFE684605F001FC04A890
:103FB80005F0FEFB07EE904AB8EEE70A8DF81040D0
:103FC80006F002FA06F002FE012204A9104603F0E8
:103FD800E1F808B010BD00BF4FEF3F0220AE071058
:103FE80038B506F04BFB054606F03CFB044606F0E8
:103FF8002DFB072C1FDD6B1E052B1AD8DFE803F0FD
:10400800030F11131517082C01D1012813DD0A49D4
:104018000A48FFF743FEBDE8384006F0F5B9082C1A
:1040280009D0092C07DD0A2C05DD0B2C03DD0C2C2F
:1040380001DD0D2CEAE738BD5DEF3F0220AE071029
:1040480038B506F01BFB054606F00CFB044606F0E7
:10405800FDFA072C0BDC6B1E052B13D8DFE803F0E9
:1040680003080A0C0E10012C0CD101280ADD38BDFA
:10407800022CFBE7032CF9E7042CF7E7052CF5E7FE
:10408800072CF4D003490448FFF708FEBDE8384080
:1040980006F0BAB95DEF3F0220AE071000B58BB04D
:1040A80006F094FD01220DF10701104603F064F8B3
:1040B800194906A805F0C7FB0A229DF9071002A8AE
:1040C80005F043FC02A906A805F0B4FC01681348F2
:1040D800FFF7E4FD02A805F06BFB06A805F068FBF6
:1040E8009DF9073000EE103AB8EEC00A06F06CF9F8
:1040F80006F0CCFA031F062B04D806F085F90BB09E
:104108005DF804FB032802D1FFF76AFFF7E70B28E5
:10411800F5D1FFF795FFF2E767EF3F0220AE0710F2
:1041280038B5002383608B6804460D462BB1022204
:104138009847EB68E360AB68A360204638BD000091
:104148002DE9F0474FF0000A474B98B00493474BCE
:1041580080460793464B894608A804A91746069344
:1041680010ADFFF7DDFF08A90CA8FFF7D9FF0CA9D0
:104178002846FFF7D5FF1020CDF858A0FEF79DFE82
:104188000446A0B195E8030001AE86E8030094E870
:10419800030085E8030096E80300129BE268A36029
:1041A80084E80300139BCDF848A01392E36000262F
:1041B800304B10201793304B149416932F4B0396C3
:1041C800CDE90136FEF779FE0446D8B1169B866024
:1041D80033B1022214A99847179BE360169BA3608A
:1041E800274B4FF4802003930021264A01AB029409
:1041F80003F042FB30B12046FFF7E8FC10212046CF
:10420800FEF761FE14A8FFF7E1FC2846FFF7DEFC85
:104218000CA8FFF7DBFC08A8FFF7D8FC04A8FFF7F9
:10422800D5FCFFF73BFF01F08FFFFFF745FD414647
:10423800284605F054FB494614A805F050FB6820B1
:10424800FEF73BFE044620B13B46294614AA00F07F
:10425800F1F80D4B14A81C6005F0AAFA284605F0E1
:10426800A7FA18B0BDE8F087CD453F023B463F02AC
:1042780027463F0201463F02054D3F0202000C005F
:1042880057463F02D9453F0254AD0710012A37B5BA
:10429800044604D10B680360002003B030BD022A35
:1042A8000CD0032AF8D10468002CF5D02046FFF77B
:1042B8008DFC10212046FEF706FEEDE70968102068
:1042C8000191FEF7FAFD054610B10199FFF728FFA5
:1042D8002560E1E708B50B490B4805F0B4FA0B492E
:1042E8000B4805F0B0FA0B490B4805F0ACFA0B493E
:1042F8000B4805F0A8FABDE808400A490A4805F045
:10430800A2BA00BF7CEF3F0234AD071084EF3F0232
:1043180044AD07108EEF3F0224AD071095EF3F0222
:1043280004AD07109DEF3F0214AD07107047000061
:1043380010B50446064B40F8283B05F039FA2046EC
:10434800044B40F8043B04F0F6FA204610BD00BFC9
:1043580044F23F022CF23F0210B50446FFF7E8FF93
:1043680020466821FEF7AFFD204610BD00224068B8
:10437800114603F061BB0EB403B503AB53F8042B2D
:1043880028210193FFF75CFC02B05DF804EB03B051
:104398007047406A02F04ABB70B5044692B02049A3
:1043A8000EA805F09CFA04F128051E490EA805F090
:1043B8004DFB294605F03EFB1B4905F047FB01462E
:1043C80006A805F08CFA0EA805F0F2F917490AA814
:1043D80005F039FA29460EA8666A05F080FA1449EC
:1043E8000EA805F033FB00230422CDE904320A9A13
:1043F8000193CDE90232069A009201681A463046C6
:1044080002F022FB0EA805F0D3F906F00EF9A0631E
:104418000AA805F0CDF906A805F0CAF912B070BDD2
:104428005CAD0710CEF53F02A5EF3F02ADEF3F02AE
:10443800B5EF3F022DE9FF410446254690461F4649
:10444800324B0E4640F8043B1E2104F08BF8304BEB
:10445800304945F8283B284605F0F5F9404605F06F
:10446800BEFB0146284605F02BFA0025012107204E
:1044780084F82010C4E91155E56406F07DFB29464F
:10448800072006F08AFB24492448FFF7F9FB316826
:10449800602084F860500391FEF70FFD064630B1A6
:1044A80040F25B721E4B0399009502F0E5F9204635
:1044B8006662FFF771FF47B104F054F9214604F032
:1044C80059FB18491548FFF7DBFB0023CDE90033FA
:1044D80015481A461549006803F05AFA06F0A5F877
:1044E800B438E06306F0A1F8206506F09EF8606530
:1044F80006F09BF8A06506F098F8E06506F095F8D8
:104508002064204604B0BDE8F08100BF2CF23F02D1
:1045180044F23F027DF83F02B8EF3F0220AE071099
:1045280079483F02CBEF3F025CAD0710C5473F0219
:1045380008B507490748FFF71EFF01F045FDC820E9
:1045480003F0D8FB044B1868BDE8084005F0CABB67
:10455800E2EF3F0220AE07106CAD071010B504461D
:1045680006F063F8236C3C3398421BDD06F05DF8D7
:1045780020641E48FFF7FAFE90B3606A02F056FA0C
:1045880028B394F8603073B919491A48FFF778FBD3
:1045980006F04BF81849A063606A02F042FD012357
:1045A80084F8603010BD06F040F8A36B03F59673ED
:1045B8009842F7DD11490F48FFF754FB4FF47A7022
:1045C80003F098FB2046BDE81040FFF7B1BF09484B
:1045D8000B49FFF755FB2046BDE81040FFF7DCBE4E
:1045E80008490448FFF74CFBDCE700BFD0AE0710D2
:1045F800EFEF3F0220AE07100EF03F0210F03F022F
:104608001EF03F023BF03F022DE9F041074688B01B
:10461800406A0E461546984602F008FA98B11548C1
:10462800FFF7A4FE044670B100232A68CDE9018390
:104638003168AB68786ACDF8008002F053FB2046F9
:1046480008B0BDE8F0810C4904A805F0FCF8314633
:1046580004A805F0EFF9094905F0F8F9294605F02D
:10466800E9F901680648FFF786FE04A805F0A0F8F6
:104678000024E4E7D0AE07104AF03F026DF03F0295
:1046880020AE071010B5044692B005F0CEFFE36BDC
:10469800B433984232DD05F0C8FFE06305F0C5FF8A
:1046A800174B024617490093C31702A805F05EFF8F
:1046B80015490AA805F013F914490AA805F0C6F91E
:1046C80004F1280105F0B6F9014606A805F007F936
:1046D80002A90EA805F003F900230EAA06A9204690
:1046E800FFF792FF0EA805F063F806A805F060F83A
:1046F8000AA805F05DF802A805F05AF812B010BD36
:1047080070F03F0274AE07105CAD071079F03F02FD
:10471800F0B50F4616468DB00446154968461D4645
:1047280005F0DDF86846134905F090F9394605F0BB
:1047380081F9114905F08AF9314605F07BF90146FE
:1047480004A805F0CCF8294608A805F0C8F8002305
:1047580008AA04A92046FFF757FF08A805F028F87B
:1047680004A805F025F8684605F022F80DB0F0BD5C
:104778005CAD071081F03F02CEF53F0238B50C461C
:1047880005461949204605F098F930BB20461749D7
:1047980005F093F918BB2046154905F08EF918B1B4
:1047A800282385F8203017E02046124905F085F9BE
:1047B8000028F5D12046104905F07FF988B9204630
:1047C8000E4905F07AF908B10123EAE720460C49B9
:1047D80005F073F90028F7D138BD4623E1E7322305
:1047E800DFE71E23DDE700BF87F03F028CF03F02C2
:1047F80092F03F0297F03F029FF03F02A4F03F0281
:10480800AAF03F022DE9F0412DED028B04468846BF
:1048180015460026B24FAAB016AB9819394610367D
:1048280005F011F8502EF7D100262F21404605F04B
:10483800A9F93246071E1ADD3B46414612A805F083
:10484800A5F916AB03EB061012A905F053F812A848
:1048580004F0AEFF7A1C2F214046019205F084F93E
:104868000136042E0746019A01D00028E3E74146A5
:1048780012A805F0ADF916AB12A903EB061005F066
:1048880039F812A804F094FF964916A805F015F90E
:1048980000284BD1944916A8013605F00EF988B1C5
:1048A800012E11D091491AA805F007F900283AD12C
:1048B8008F491AA805F001F9002844D005F0B5FE83
:1048C800606533E0012E48D18A4916A805F0F5F84D
:1048D800002840F08380884916A805F0EEF80028E3
:1048E80000F02981012E04F1280740F0158139468E
:1048F80012A804F0F4FF814912A805F0A7F8294688
:1049080005F098F801687E48FFF735FD12A804F015
:104918004FFF294612A804F0E2FF204612A9FFF72C
:104928002DFF12A857E005F080FE2065042416AB81
:1049380003EB041004F03CFF013CF8D22AB0BDECB4
:10494800028BBDE8F0816F491AA805F0B6F8002877
:10495800ECD005F06AFEA065E8E76B491AA805F0F7
:10496800ACF8002800F05E82284605F06FF916A919
:10497800074606A804F0B3FF06A912A804F0AFFF83
:1049880012A801F047FB064612A804F011FF0EB367
:10499800002F1FDD336839465B6A3046984706A901
:1049A8000AA804F09CFF58490EA804F04CFF2946B9
:1049B80012A804F094FF12AB0EAA0AA92046FFF72A
:1049C800A7FE12A804F0F4FE0EA804F0F1FE0AA84F
:1049D80004F0EEFE06A804F0EBFEA7E72C2128461B
:1049E80005F0D0F8041EA1DB631E0022294602A8A8
:1049F80005F0CCF8621C294606A805F0E9F802A8DB
:104A080005F02AF906A8B0EE408A05F025F93F49D5
:104A18000EA8F0EE408A04F016FFB0EE480A062110
:104A28000AA804F0ADFF0AA90EA805F003F8384952
:104A380005F00CF80446B0EE680A062112A804F046
:104A48009FFF12A9204604F0F5FF01682C48FFF7E4
:104A580017F912A804F0ACFE0AA804F0A9FE0EA8E3
:104A680004F0A6FEB5EE408AF1EE10FA33D0F5EE6A
:104A7800408AF1EE10FA2ED026490EA804F0E3FE83
:104A8800B0EE480A06210AA804F07AFF0AA90EA87F
:104A980004F0D0FF1E4904F0D9FF0446B0EE680ABE
:104AA800062112A804F06CFF12A9204604F0C2FFE8
:104AB80001681348FFF7F2F812A804F079FE0AA873
:104AC80004F076FE0EA804F073FEF0EE680AB0EE6D
:104AD800480AFFF753FA06A804F06AFE02A87AE724
:104AE8007DF83F02AEF03F02B2F03F02B8F03F025D
:104AF800C3F03F02E2F03F0215F13F021EF13F0210
:104B080020AE0710CDF03F02D7F03F02F4F03F028D
:104B180000F13F0202F13F0239461AA804F0C0FF33
:104B280000287FF4E4AEAA491AA804F0C6FF0028BA
:104B38007FF4DDAEFAE6A74916A804F0BEFF08B375
:104B480028342146284604F0ABFFA0B1214612A81C
:104B580004F0C5FEA04912A804F078FF016801918D
:104B680005F0C7F8019902469C48FFF789F812A892
:104B780004F01EFEDAE62846954904F09EFF002858
:104B8800E4D1D3E6964916A804F097FFF0B128348B
:104B98002146284604F084FF88B1214612A804F073
:104BA8009EFE904912A804F051FF01688B48FFF758
:104BB80067F812A804F0FCFD01F044FBB6E62846AD
:104BC800834904F07AFF0028E7D1AFE6864916A8A2
:104BD80004F073FF10B328342146284604F060FF20
:104BE800A8B1214612A804F07AFE804912A804F060
:104BF8002DFF01687948FFF743F812A804F0D8FDA3
:104C080001F0E2F97A4B186805F06CF88EE6284650
:104C18006F4904F052FF0028E3D187E6012E57D1EF
:104C2800744916A804F049FF0746002840F0A280FE
:104C3800714916A804F041FF00283FF477AE2834E4
:104C4800214612A804F04BFE6C4912A804F0FEFE9F
:104C5800294604F0EFFE01686048FFF711F812A832
:104C680004F0A6FD3946284604F07CFF2D2840F0C4
:104C7800A5802946012212A804F0AAFF12A804F070
:104C8800E5FF454212A804F093FD002D00F09B803B
:104C980021460EA804F023FE59490EA804F0D6FEBA
:104CA80004460A22294612A804F04FFE12A92046FB
:104CB80004F0C0FE01684948FEF7E2FF12A804F0BC
:104CC80077FD0EA804F074FD2846FFF759F92DE684
:104CD8004C491AA804F0F1FE0028A1D016A912A880
:104CE80004F0FDFD12A801F095F9064612A804F09B
:104CF8005FFD002E3FF41AAE284604F0A7FF424994
:104D08000746284604F0D9FE80B928463F4904F0F2
:104D1800D4FE58B928463E4904F0CFFE20B92846AB
:104D28003C4904F0CAFE30B1002704E0336830463D
:104D38001B6A98470746336839469B693046984747
:104D480016A90AA804F0CBFD2E490EA804F07BFD95
:104D5800294612A804F0C3FD12AB0EAA0AA92046E0
:104D6800FFF7D6FC12A804F023FD0EA804F020FDDE
:104D78000AA830E6012E3FF4D9AD283421461AA8F6
:104D880004F08EFE98B12846234904F096FE0028C8
:104D98003FF4CCAD214612A804F0A1FD1F4912A88A
:104DA80004F054FE01680D48FEF76AFFDFE6084983
:104DB8001AA804F082FE0028E5D1B7E5284604F0D9
:104DC80045FF054661E716490448FEF74BFFADE588
:104DD800AAF03F0233F13F023AF13F0220AE07103A
:104DE8004DF13F0253F13F0222F43F0274F13F02BA
:104DF8006CAD07108CF13F02F0F13F02B9F13F02B0
:104E0800D0F13F02F6F23F02C6F53F0291F13F02B0
:104E180096F13F029AF13F02A0F13F02A5F13F024D
:104E2800E8F13F0219491AA804F047FE00283FF4A8
:104E38004BAD16A912A804F052FD12A801F0EAF829
:104E4800064612A804F0B4FC002E3FF46FAD04F13E
:104E5800280112A804F043FD0D4912A804F0F6FD3C
:104E680016A904F0E7FD01680A48FEF709FF12A831
:104E780004F09EFC336828460749DC6904F01DFEEF
:104E8800B0FA80F130464909A0474FE5F9F13F02F1
:104E9800EAF03F0220AE0710F2F03F0270B58CB086
:104EA8000D460446164605F0C0FB1249A063284685
:104EB80004F046FEE0B108222946684604F088FE60
:104EC800029B93B1694604A804F009FD314608A87D
:104ED80004F005FD204608AA04A9FFF793FC08A8DA
:104EE80004F066FC04A804F063FC684604F060FC67
:104EF8000CB070BD5CAD071010B50C462F212046D4
:104F080007F0F6F900B1441C204610BD0B4610B559
:104F1800184613F8014B2CB1202C01D11946F7E79C
:104F2800282CF5D1401A1060084610BD70B596B00F
:104F38000446154605F079FB214B024600932149AA
:104F4800C31702A805F012FBE66C002E32D101232C
:104F58001D49E36406A804F076FC04F1280106A8BC
:104F680004F068FD01460EA804F0B9FC02A90AA8DD
:104F780004F0B5FC15490AA804F068FD294604F0B8
:104F880059FD014612A804F0AAFC334612AA0EA93C
:104F98002046FFF739FB12A804F00AFC0AA804F01F
:104FA80007FC0EA804F004FC06A804F001FCE36C5E
:104FB800013BE36402A804F0FBFB16B070BD00BF20
:104FC80070F03F0274AE0710FEF13F026EF03F0230
:104FD8002DE9F0410546174688B00E4668464C490B
:104FE80098460E9C04F02FFC95F82030BB4205D95A
:104FF800684604F0DDFB08B0BDE8F0812379D907E5
:1050080026D5A1682846FFF777FF0146684604F0D1
:1050180079FC6946684604F0EBFC23799A070FD5BA
:105028003C49684604F0E8FC0A22E16804A804F058
:105038008CFC684604A904F0DBFC04A804F0B8FB67
:10504800237968465B074CBF3349344904F0D4FCE4
:105058002379580712D5002304AA21692846049306
:10506800FFF754FF0146684604F04CFC6946684661
:1050780004F0BEFC68462A4904F0BEFC002138460C
:1050880002F0B4FB0146684604F0B6FC68462349C2
:1050980004F0B2FC1EB13146684604F0ADFC237939
:1050A80013F0300F27D01F49684604F0A5FC237978
:1050B800D9060BD5A2691C4904A804F0DFFD68468F
:1050C80004A904F095FC04A804F072FB23799A065D
:1050D8000DD5DB0603D568460F4904F08DFC13494E
:1050E800684604F089FC6846E16904F085FC5D21A6
:1050F800684604F092FC694604A804F0F0FB2846D0
:10510800414604AAFFF712FF04A804F051FB6FE719
:105118007DF83F0203F23F026DF03F0207F23F02C3
:1051280005F23F020AF23F020DF23F0217F23F0278
:1051380010B5044602F004F8636CFA3383422AD8A7
:1051480001F0FEFFA36C606401331348A364FFF70A
:105158000DF950B9A36C23F00202012A12D10121E2
:10516800BDE81040072005F018BD2046FFF711F9EB
:105178000028EFD094F86020A36C52B923F0020203
:10518800012A00E0052BEAD00021082BC8BFA16442
:10519800E6E7012BF7E710BDD0AE071010B50446BF
:1051A800406A01F0F6FD2046FFF7D8F92046FFF7E0
:1051B80069FA2046BDE81040FFF7BABF012208B5DA
:1051C8000B4B0C491A600C4804F03DFB0B490C488A
:1051D80004F039FB0B490C4804F035FB0B490C482B
:1051E80004F031FBBDE808400A490B4804F02BBB2A
:1051F8006CAD07107CEF3F0290AD071084EF3F02C3
:10520800A0AD07108EEF3F0280AD071095EF3F026B
:105218005CAD07109DEF3F0270AD071070478069C5
:105228007047406B7047704710B504461C3104F056
:1052380056FB204610BD10B50446083104F04FFB5C
:10524800204610BD10B5044691F8301004F06CFBF0
:10525800204610BD08B590F8473009B113B108BD14
:10526800002BFCD080F8471002490348FFF783F869
:10527800F5E700BF54F23F0220AE071070B51E4696
:10528800044688B00D466846114604F028FB3146AE
:1052980004A804F024FB04AA4C236946204600F025
:1052A80041FE04A804F084FA684604F081FA084B29
:1052B800432220462360002384F84450A36384F8E3
:1052C800302084F84530A4F8463008B070BD00BFDF
:1052D80090F33F0237B5114A0D1E114B08BF134614
:1052E80004461A460F4910480193FEF7C9FC94F981
:1052F800440094F9452029461044013801F01AF970
:10530800019B48B194F9451094F9442006480A4491
:10531800013A0649FEF7A6FC03B030BD79F23F0218
:1053280074F23F027DF23F0220AE07108EF23F0278
:10533800F0B5836904468B420E468DB005D16349AA
:105348006348FFF718F80DB0F0BD80F8483001F059
:10535800F7FE00252064A66184F8475001F0F0FEAE
:1053680000F57A72E2635B495948FEF789FC04F15B
:1053780008075949684604F066FA3946684604F051
:1053880059FB564904F062FB014608A804F0A7FA45
:105398000A22314604A804F0D8FA2A4604A908A823
:1053A800FEF7BAFD04A804F003FA08A804F000FA0E
:1053B800684604F0FDF93946684604F090FA484911
:1053C800684604F043FB014608A804F088FA0A225C
:1053D800314604A804F0B9FA2A4604A908A8FEF739
:1053E8009BFD04A804F0E4F908A804F0E1F9684674
:1053F80004F0DEF93946684604F071FA394968461E
:1054080004F024FB014608A804F069FA0A2294F97A
:10541800481004A804F099FA2A4604A908A8FEF737
:105428007BFD04A804F0C4F908A804F0C1F9684693
:1054380004F0BEF994F94830A2699A4233DD022398
:10544800394684F84530684604F049FA26496846E2
:1054580004F0FCFA014604A804F041FA234908A81C
:1054680004F0F1F92A4608A904A8FEF755FD08A892
:1054780004F09EF904A804F09BF9684604F098F932
:10548800A3690BB3642B0CBF0323012384F84630B4
:1054980001F056FE6430A063012120460DB0BDE83E
:1054A800F040FFF717BF0123394684F845306846B6
:1054B80004F015FA0C49684604F0C8FA014604A835
:1054C80004F00DFA0A49CAE70323DFE7A8F23F020E
:1054D80020AE0710E1F23F0281F03F02F5F23F02F1
:1054E800FAF23F02CCF33F02FFF23F0206F33F021B
:1054F80011F33F0210B5044601F022FEA36B83426C
:105508008CBF0020012010BD30B590F9463004460C
:105518008DB0002B5BD0FFF7EDFF10B394F9462058
:10552800531E032B00F29680DFE803F002536171EB
:105538004B494C48FEF7A4FB00212046FFF7CAFE62
:1055480001F0FEFDA26994F948309B1A3C22002B19
:10555800B8BF5B4202FB030002236438A06384F8EF
:10556800463001F0EDFDE36B984230D303F57A73D2
:10557800E36301F0E5FD256C94F94530401B3C25BB
:10558800B0FBF5F5012B04F1080104A808BF6D4232
:1055980004F0A5F9344904A804F058FA014668460D
:1055A80004F09DF994F948100A22294408A804F047
:1055B800CCF9002208A96846FEF7AEFC08A804F05A
:1055C800F7F8684604F0F4F804A804F0F1F80DB010
:1055D80030BD26492348FEF753FB01212046FFF73B
:1055E80079FE01F0ADFD64300323A063B7E72049DD
:1055F8001C48FEF745FB00212046FFF76BFE01F033
:105608009FFD00F5B8500C300423A063A7E70025E0
:1056180004F1080184F8465004A804F060F915491B
:1056280004A804F013FA0146684604F058F9124930
:1056380008A804F008F92A4608A96846FEF76CFC91
:1056480008A804F0B5F8684604F0B2F804A804F015
:10565800AFF886E709490348FEF704FB81E700BF76
:105668001CF33F0220AE0710CCF33F0237F33F0292
:1056780052F33F02FFF23F026BF33F0273F33F0224
:105688007047704770B51E46044688B00D46684698
:10569800114604F024F9314604A804F020F96946BB
:1056A8004C2304AA204600F03DFC04A804F080F82E
:1056B800684604F07DF80B4B691E23600023A36342
:1056C800532384F83030CBB2022B4FF0100320461E
:1056D8008FBF194649B203FA01F149B284F83D1067
:1056E80008B070BDE0F33F0210B5044600F0D2FEEA
:1056F80094F93D30034214BF0120002010BD10B5BD
:10570800044601F01DFDA36B63338342B6BFA0635B
:105718000020012010BD10B50446FFF7E5FF002862
:10572800A06914BF6423002320B9642B01D1012090
:10573800A36110BD002BFAD00020FAE710B504468B
:1057480090B00A228169684604F0FFF804F1080164
:1057580004A804F0C4F80F4904A804F077F9014636
:1057680008A804F0BCF869460CA804F0B8F80022B0
:105778000CA908A8FEF7D0FB0CA804F019F808A893
:1057880004F016F804A804F013F8684604F010F8BA
:1057980010B010BDC8F33F0210B50446FFF7AFFFC5
:1057A80040B12046FFF7B7FF20B12046BDE81040C2
:1057B800FFF7C4BF10BD704708B504490448FEF799
:1057C80051FABDE8084000F0A1BF00BF18F43F023D
:1057D80020AE071070B51E46044688B00D466846D0
:1057E800114604F07CF8314604A804F078F804AABD
:1057F8004C236946204600F095FB04A803F0D8FF27
:10580800684603F0D5FF0A4B002223600C9B204614
:10581800E3630D9B013D236400236364A364E36495
:105828004C23A563A261226584F8303008B070BDAE
:1058380030F43F020000000010B52DED028B90ED12
:10584800127AD0ED117A77EEC77AF0EEE77A04464D
:1058580017EE900AFCF790FD19A3D3E90023FDF792
:1058680073F8E0B101F06CFCD4ED117A94ED128A72
:1058780038EE678AD4ED0F7AF8EEE77AC8EE278A11
:10588800F0EEE87A206517EE900AFCF775FD0CA398
:10589800D3E90023FDF73AF820B9C4ED138ABDEC2B
:1058A800028B10BDB5EEC08AF1EE10FACCBF024BE8
:1058B800024BE364F3E700BF6F12833A6F1283BAB7
:1058C800FCA9F1D24D62503F10B504462DED048B72
:1058D8000846F9B164295CD007EE901AB8EEE78A59
:1058E80018EE100AFCF748FDDFED2D8A41EC110B8C
:1058F8009FED290B05F09CFB28EE288ADFED297A1D
:10590800246C51EC100B88EE279A34B9FDEEC97A55
:1059180017EE900ABDEC048B10BD0022224BFCF759
:10592800CBFBFDF751F8012C08EE100A02D1FDEE71
:10593800C87AEDE7631E07EE903A07EE104AF8EED4
:10594800E77AB8EEC77A2046C7EE879AFCF702FDD9
:1059580002460B4600201449FCF790FEFDF734F888
:1059680007EE900A67EE887AE9EE297AF5EEC07AB2
:10597800F1EE10FA0AD4F4EE687AF1EE10FA78FE35
:10598800A77AF8FE677AFDEEE77AC1E7DFED077AD6
:10599800F7E7FF20BEE700BFDBE3B7BF8BE9F03FC7
:1059A80000007F430000C8420000F03F00000000F4
:1059B80010B5D0ED117AFDEEE77A17EE901A04468D
:1059C800FFF782FF0146A06BBDE8104000F0B8BEAB
:1059D8006429A8BF6421826921EAE1718A4201D160
:1059E800FFF7E6BF07EE901AF8EEE77AC26BC0ED54
:1059F800127A1AB9C0ED117A8161F1E7FFF71CBF7D
:105A080010B590ED127AD0ED117A77EEC77AF0EEF4
:105A1800E77A044617EE900AFCF7AEFC26A3D3E912
:105A28000023FCF773FF00283FD101F089FB236DA9
:105A3800D4ED136AC31A07EE903AF5EEC06AB8EED1
:105A4800677AD4ED117AF1EE10FAE6EE877A94EDE2
:105A5800127AC4ED117AF4EEC77A05DDF1EE10FA88
:105A680005DD84ED117A02E0F1EE10FAF9D4D4EDF7
:105A7800117AF5EEC07AF1EE10FA13D49FED0C7A94
:105A8800F4EE477AF1EE10FA77FE277AC4ED117A30
:105A9800FDEEE77A2065C4ED067A2046BDE81040A1
:105AA800FFF786BFDFED037AF0E710BDAFF30080A4
:105AB8000000C84200000000FCA9F1D24D62503F2E
:105AC80070478369C26A93420CBF4FF0FF33C362C9
:105AD8001846704770477047F0B58DB005462449A1
:105AE800684603F0B0FE234B234E1C68234F64B373
:105AF80094F83010582926D004A803F015FF04A9FB
:105B080008A803F0ECFE314608A803F09FFF014601
:105B1800684603F06DFF08A803F04AFE04A803F0E6
:105B280047FE04F1080108A803F0D9FE08A9684651
:105B380003F05EFF08A803F03BFE63681BB139461B
:105B4800684603F059FF6468D1E7029BB3F5806F9C
:105B580009D328460A4903F076FE684603F028FE72
:105B680028460DB0F0BD6946284603F09EFEF4E7CE
:105B78007DF83F0258AD071003F23F0200F13F02E3
:105B880068F43F028269416312B103689B69184750
:105B98007047000030B5144685B0034668460D4688
:105BA80098470298206001F0EFFF286050B1226802
:105BB800009906F0F9FA0024684603F0F9FD20463A
:105BC80005B030BD004CF7E7FCFEFFFF1FB5002312
:105BD800CDE901330C23ADF80430044B04220393C0
:105BE80001AB01F09DFE05B05DF804FB0D663F02B8
:105BF8002DE9F0418CB0054604F017FDC3170246A5
:105C080004A804F00DFC04A908A803F068FE3749AD
:105C180008A803F01BFF0146684603F060FE08A8C9
:105C280003F0C6FD04A803F0C3FD314B314E1C68D8
:105C3800314FDFF8CC80002C43D094F8301058292D
:105C48003DD004A803F070FE04A908A803F047FE9D
:105C5800314608A803F0FAFE0146684603F0C8FE7C
:105C680008A803F0A5FD04A803F0A2FD04F10801AB
:105C780008A803F034FE08A9684603F0B9FE08A88E
:105C880003F096FD394608A803F0DDFD0A22A16954
:105C980004A803F05AFE04A908A803F0CBFE0146A5
:105CA800684603F0A5FE04A803F082FD08A803F0E7
:105CB8007FFD63681BB14146684603F09DFE64683A
:105CC800B9E7029BB3F5806F0AD328460B4903F066
:105CD800BAFD684603F06CFD28460CB0BDE8F081BB
:105CE8006946284603F0E1FDF3E700BF07F23F02EB
:105CF80058AD071003F23F02A7F43F02A9F43F0290
:105D080000F13F0270B504468CB00D46684619494B
:105D180003F099FD04F10801684603F08BFE16496B
:105D280003F094FE06460A22294604A803F00DFE55
:105D380004A9304603F07EFE104903F087FE0646AC
:105D48000A22A16908A803F000FE08A9304603F05A
:105D580071FE01680A48FDF793FF08A803F028FDC3
:105D680004A803F025FD684603F022FDA5610CB0E8
:105D780070BD00BFE7F43F02EFF43F02FAF43F02C0
:105D880020AE0710F0B52C219DB0044603F0FAFEB2
:105D9800051E13DC314909A803F055FD214609A861
:105DA80003F048FE01682E48FDF75CFF09A803F0E0
:105DB800FFFC4FF0FF3420461DB0F0BD2B460022FB
:105DC800214601A803F0E2FE6A1C214605A803F05B
:105DD800FFFE244909A803F036FD01A909A803F02C
:105DE80029FE214903F032FE05A903F023FE0168CC
:105DF8001B48FDF745FF09A803F0DAFC019F059D44
:105E080047B33846FDF71CF806462DB32846FDF77C
:105E180017F80446382200210DEB020006F0EBF9D2
:105E28004C23CDE9093703238DF8383000230F4878
:105E3800194609AA40680D94CDE90B6501F042FEA8
:105E4800B0FA80F405A803F0B3FC01A8640903F0D4
:105E5800AFFCB0E73E46D8E72C46DBE701F53F024A
:105E680020AE07101AF53F026DF03F02D0AE0710C2
:105E7800F0B5254989B0044603F0E5FC234B244ED0
:105E88001D68244F75B395F83030582B28D105F18B
:105E9800080104A803F023FD04A9204603F0A8FD87
:105EA80004A803F085FC314604A803F0CCFC0A22C0
:105EB800A969684603F049FD694604A803F0BAFDDC
:105EC8000146204603F094FD684603F071FC04A8DF
:105ED80003F06EFC6B681BB13946204603F08CFD5D
:105EE8006D68CFE7A368B3F5806F03D30A490B4801
:105EF800FDF7B8FEA3681BB909490848FDF7C0FEBD
:105F0800204609B0F0BD00BF7DF83F0258AD07102C
:105F1800A7F43F0200F13F0232F53F0220AE07101E
:105F280073F53F02F8B50026044617461D46094B8F
:105F380046600360083003F0D2FC3946A66104F1DC
:105F48001C0003F0CCFC64232046E66284F8305041
:105F58006363F8BDD8F53F0230B5044689B01649E9
:105F680004A803F070FC236821469B68684698479C
:105F7800694604A803F05EFD01681048FDF780FE3D
:105F88000F4D684603F014FC04A803F011FC2B68BD
:105F98005BB90C490948FDF773FE2C60204623685D
:105FA8001B6809B0BDE8304018471A465B68002BEB
:105FB800FBD15460F2E700BF86F53F0220AE071020
:105FC80058AD071097F53F0210B5054B1C682CB16A
:105FD800236820465B6898476468F8E710BD00BFEF
:105FE80058AD071010B5054B1C682CB12368204626
:105FF8001B6B98476468F8E710BD00BF58AD0710E1
:106008000020034B1B6813B15B680130FBE7704746
:1060180058AD0710F0B5064600250E4B85B01C6834
:10602800FFF7EEFFA84211DD8CB1236821466846D0
:106038009B6898473146684603F051FD0746684615
:1060480003F0B6FB1FB964680135E9E70024204670
:1060580005B0F0BD58AD071030B585B00D46014606
:10606800684603F03CFC6846FFF7D4FF04466846E0
:1060780003F09EFB3CB12368204629469B6998475C
:10608800002005B030BD4FF0FF30FAE71FB50146DC
:10609800684603F024FC6846FFF7BCFF04466846E0
:1060A80003F086FB34B1204623689B6A04B0BDE840
:1060B800104018474FF0FF3004B010BD38B52DED33
:1060C800028B0025B0EE408AF0EE608A0A4B1C680D
:1060D800FFF796FFA8420BDD54B123682046F0EE87
:1060E800680AB0EE480ADB6A984701356468EFE74A
:1060F800BDEC028B38BD00BF58AD0710F0B50546A2
:106108000E46104B89B01C68CCB194F83030572B30
:1061180013D12368294668465F6B03F0E0FB3146DC
:1061280004A803F0DCFB6946204604AAB84704A883
:1061380003F03EFB684603F03BFB6468E4E709B004
:10614800F0BD00BF58AD07101FB5314C314920686C
:10615800FFF73CFD88B93049684603F074FB2146D7
:10616800684603F067FC2D4903F070FC01682C4871
:10617800FDF778FD684603F01BFB2A4C2A49206886
:10618800FFF724FD88B92449684603F05CFB2146E3
:10619800684603F04FFC214903F058FC0168204889
:1061A800FDF760FD684603F003FB204C204920689A
:1061B800FFF70CFD88B91849684603F044FB2146EF
:1061C800684603F037FC154903F040FC01681448A1
:1061D800FDF748FD684603F0EBFA164C16492268AD
:1061E800164801F0E5FD88B90B49684603F02BFB1A
:1061F8002146684603F01EFC114903F027FC01689C
:106208000748FDF72FFD684603F0D2FA04B010BD29
:10621800E0AD071051653F02A6F53F029DF43F022D
:1062280020AE0710F0AD0710E9683F02D0AD0710A7
:1062380069663F02C0AD0710FD673F02FD873F0258
:10624800BFF53F02F0B5294B294F1C68294E99B07C
:10625800002C48D0394604A803F0F5FA23682146F3
:10626800DB6868469847694604A803F0E3FB3146B3
:1062780003F0ECFB0546236821461B6908A89847EC
:10628800284608A903F0D6FB314603F0DFFB054694
:10629800236821469B680CA898470CA9284603F058
:1062A800C9FB014614A803F01AFBA1690A2210A829
:1062B80003F04BFB002210A914A8FDF72DFE10A82F
:1062C80003F076FA14A803F073FA0CA803F070FA36
:1062D80008A803F06DFA684603F06AFA04A803F008
:1062E80067FA6468B4E719B0F0BD00BF58AD07108D
:1062F800C9F53F02CEF53F0208B50B490B4803F03C
:10630800A2FA0B490B4803F09EFA0B490B4803F01D
:106318009AFA0B490B4803F096FABDE808400A4977
:106328000A4803F090BA00BF7CEF3F02E0AD0710C7
:1063380084EF3F02F0AD07108EEF3F02D0AD07109B
:1063480095EF3F02B0AD07109DEF3F02C0AD0710BB
:106358000368C9B29B681847F8B50023364A374D19
:106368001370374E374A31701360287004F060FCA0
:1063780001F0F8FD18B904F05BFC01F0B3FD042747
:1063880004F056FC95F9001001F0E2FD04F050FC11
:106398000021FFF7DDFF04F04BFC96F90010FFF732
:1063A800D7FF04F045FC01F0DAFD044618B1013FBF
:1063B800E6D1254936E0042704F03AFC95F90010A7
:1063C80001F0C6FD04F034FC0621FFF7C1FF04F01C
:1063D8002FFC96F90010FFF7BBFF04F029FC01F031
:1063E800BEFD044618B1013FE6D118491AE004275A
:1063F80004F01EFC95F9001001F0AAFD04F018FC49
:106408000121FFF7A5FF04F013FC96F90010FFF730
:106418009FFF04F00DFC01F0A2FD044630B1013FDE
:10642800E6D10B490B48FDF71DFC03E00A49094872
:10643800FDF726FC2046F8BD06AE071005AE07108E
:1064480004AE071000AE071062F63F0249F63F029D
:1064580010F63F0220AE07102DF63F0208B5094995
:106468000948FDF788FF04F0E3FB01F07FFD074BC7
:1064780093F90010064B93F90000BDE80840FFF7B8
:106488006BBF00BF7CF63F0220AE071004AE0710BA
:1064980005AE0710F8B500F053FE204E336864339C
:1064A800834204D91E4B93F900402046F8BD0425C9
:1064B8001C4F04F0BDFB97F9001001F049FD04F0F2
:1064C800B7FB0921FFF744FF04F0B2FB01F047FDD9
:1064D800044640B1013DECD1134900E0134914488A
:1064E800FDF7C0FBE1E704F0A3FB0122397801F0D6
:1064F80028FD04F09DFB03681B6998470128EDD12E
:1065080004F096FB0368064C5B699847207000F01E
:1065180017FE94F900403060C7E700BF00AE0710CF
:1065280006AE071005AE0710ADF63F028FF63F0224
:1065380020AE0710F8B5064601240D460B46024664
:106548001C491D48FDF79CFB04FA06F01B4C42B29F
:1065580023785DB31A4352B21949174822700326AB
:10656800FDF78EFB174F04F063FB97F9001001F05D
:10657800EFFC04F05DFB0921FFF7EAFE04F058FB8D
:1065880094F90010FFF7E4FE04F052FB01F0E7FC79
:10659800054648B1013EE6D194F900200A4906486B
:1065A800FDF760FBFFF75AFF2846F8BD23EA020211
:1065B800D1E700BFD4F63F0220AE071006AE0710A1
:1065C800F1F63F0205AE071005F73F020368C9B2AE
:1065D8009B68184730B5474C89B0207004F028FBF9
:1065E80001F0C0FC18B904F023FB01F07BFC04F0B7
:1065F8001FFB94F9001001F0ABFC04F019FB01F04B
:10660800AEFC054600285ED104F012FB94F9001098
:1066180001F09EFC04F00CFB2946FFF7D7FF04F0BD
:1066280007FB2946FFF7D2FF04F002FB01F097FCB5
:1066380004F0FEFA94F9001001F08AFC04F0F8FA6C
:106648000121FFF7C3FF04F0F3FA0421FFF7BEFFAF
:1066580004F0EEFA01F083FC04F0EAFA94F9001071
:1066680001F076FC04F0E4FA8C21FFF7AFFF04F0A8
:10667800DFFAAA21FFF7AAFF04F0DAFAAA21FFF746
:10668800A5FF04F0D5FA01F06AFC1B4904A803F041
:10669800DAF80A2294F90010684603F056F96946B8
:1066A80004A803F0C7F9154903F0D0F901681448A4
:1066B800FDF7E6FA684603F07BF804A803F078F8DB
:1066C800284609B030BD0F4904A803F0BCF80A22D7
:1066D80094F90010684603F038F9694604A803F0F5
:1066E800A9F9094903F0B2F901680548FDF7BAFAB2
:1066F800E0E700BF07AE071027F73F0240F63F026A
:1067080020AE071043F73F0257F73F0208B5094983
:106718000948FDF7A7FA04F08BFA01F027FC04F00A
:1067280087FA01F0DFFB054B93F90000BDE808404C
:10673800FFF750BF60F73F0220AE071007AE071003
:106748002DE9F04105460C460626DFF8A0808CB0FE
:10675800871C04F06DFA98F9001001F0F9FB04F0B9
:1067680067FA3946FFF732FF04F062FA2146FFF76D
:106778002DFF04F05DFA01F0F2FB68B3013EE8D1A9
:10678800174904A803F05FF80A222946684603F06F
:10679800DCF8694604A803F04DF9124903F056F9EC
:1067A80005460A22214608A803F0CFF808A928467A
:1067B80003F040F901680C48FDF754FA08A802F004
:1067C800F7FF684602F0F4FF04A802F0F1FF0CB0EE
:1067D800BDE8F041FFF79ABF0CB0BDE8F08100BFFB
:1067E80072F73F029CF73F0220AE071007AE071072
:1067F80091F85C3010B50446016013B1886D00F063
:1068080021FC204610BD10B50368044693F85C20AF
:1068180012B1986D00F024FC204610BDF8B51F4653
:106828009DF8243004460D46164623B101235830FE
:10683800037100F0F9FB089B23630023636306B12F
:10684800A66425B1294604F1380003F05BF8069BDD
:10685800E0692365079BA4F84C70FF2BB8BFFF23A2
:10686800A4F8543008B1FCF72CFBB4F85400FCF73A
:1068780026FBE061F8BD00002DE9FF410446002534
:10688800984617460E4603F033FD0D49E56104F1BD
:10689800380002F0D8FF9DF82830FF22CDE90283A6
:1068A8000F232046CDE9003231463B462A46A564EF
:1068B80084F85C50FFF7B2FF204604B0BDE8F081D1
:1068C8007DF83F0210B50446204603F06DFC002811
:1068D800FAD0204603F052FAC0B210BD2DE9F047B5
:1068E8004FF0010905468846FFF7ECFF00274C46A4
:1068F800EB691870EB6993F800A00AF0F00A2846D3
:10690800FFF7E0FF2646EB690134985500F07F0356
:1069180013FB09F31F440306A4B2BFB24FEAC91917
:10692800EDD4631EBAF1300F88F800301ED1284626
:10693800FFF7C8FFEB6918552846FFF7C3FFF41C9B
:10694800EB690236B6B298550226A4B2B6B2BE4278
:106958000ED22846FFF7B6FFB5F854300136A342E9
:1069680084BFEB6918550134A4B2EFE70026EDE7C0
:10697800B5F85430A3422CBF20460020BDE8F0876C
:106988002DE9F34115461E461A460746002396464A
:1069980002F07F0CBEF17F0F02A888BF4CF0800C7C
:1069A8005C1CBEF17F0F03444FEAD212E4B203F835
:1069B80004CC1ED8C4F10403C4F10500E9542246EE
:1069C80001A9284405EB030805F0EEFB721C2244DC
:1069D8004146384603F0BDF9054600F0B1FB621C9C
:1069E80078623244A8B2131A5842584102B0BDE83E
:1069F800F0812346CBE70233F0B5054698B2002371
:106A0800CE5C9CB24EB1B5F854C05F1C844504D925
:106A1800441C16543B46A0B2F2E799B2411A0A4404
:106A2800210A02F8021C02F8013CF0BD38B5044600
:106A380003F0DCFA002814BF0125002502D1204606
:106A480003F00CFC284638BD2DE9F04788B0044611
:106A5800894617461E46DDF840809DF850A0FFF78E
:106A6800E5FF0546002840F0CD80214601A8FFF744
:106A7800BFFEA16C002940F088802B462046B4F860
:106A88004C20A16B03F034FA00287AD00123238428
:106A98009DF85430E269042B5B4B40F08180186804
:106AA80099889B79ADF80C108DF80E300290C2F8D9
:106AB80005009DF80E30BDF80C10D3720C23A2F817
:106AC8000910B8F1000F00F081809DF848009DF88A
:106AD8004420400140EAC20040F00600C0B2BAF1CA
:106AE800000F01D100F0FD001FB1002E70D140F061
:106AF8008000E269D054226DE169581C12120A54D0
:106B0800E169206D9A1C8854033349462046E2699E
:106B1800FFF771FF0346B8F1000F0BD04146E26959
:106B28002046FFF768FFE269034613992046FFF7FE
:106B380062FF034667B139462046E269FFF75BFF0B
:106B480003462EB131462046E269FFF754FF03465B
:106B5800053B1021E2699BB22046FFF711FF00F0C8
:106B6800EFFA4FF47A76C4E90900204603F01CFBDB
:106B780088BB00F0E5FAA36AC01A236D73439842F4
:106B8800F3D9204603F06AFB35E002A801F072FA57
:106B98002B462046B4F84C2002A903F089FA73E783
:106BA800D3F80700D3F80B100DF1080CACE803007C
:106BB800DB7B8CF8003002AB03CBC2F80500C2F8CF
:106BC80009109CF8003053730E237AE7022086E7F9
:106BD80040F0C0008DE7204602A9FFF77FFE042899
:106BE800CFD1E369DE78002ECBD100F0A9FA0125D8
:106BF800A06284F82C6001A8FFF705FE284608B0BB
:106C0800BDE8F0870025F9E7A4EC3F022DE9F74F2E
:106C1800DDF83C8004468B4616461F469DF83450E6
:106C28009DF83890FFF702FF8246002851D0214690
:106C380001A8FFF7DDFD0021B4F85420E06905F054
:106C4800DAFA052359462046E269FFF7D4FE6B1E9F
:106C5800012B15D8218CE369013189B22184090AF5
:106C68001954421CE369218C92B2023080B29954C3
:106C7800B8F1000F04D0238C5A1C2284A8F80030E5
:106C880000210B188F42E2699BB20AD9B4F854C0AC
:106C98009C4506D916F801C0013102F803C089B233
:106CA800EFE79DF8301000290CBF30213121B9F1F0
:106CB800000F01D041F00801022D0ED141F004016E
:106CC800053B20469BB2FFF75BFE824601A8FFF713
:106CD8009AFD504603B0BDE8F08F012D08BF41F082
:106CE8000201EDE71FB5089C0394002402949DF867
:106CF8001C4001949DF818400094FFF787FF04B0EA
:106D080010BD73B504460E46FFF790FE0546C8B1A0
:106D1800214601A8FFF76CFD6222E36920461A703C
:106D28000222E3695A70E369320A9A70E36904221D
:106D3800DE70E16903F00DF8051E01A818BF0125F2
:106D4800FFF761FD284602B070BD73B504460E46D4
:106D5800FFF76CFE0546C8B1214601A8FFF748FDBC
:106D68007222E36920461A700222E3695A70E369C5
:106D7800320A9A70E3690422DE70E16902F0E9FFE1
:106D8800051E01A818BF0125FFF73DFD284602B0E2
:106D980070BD2DE9F04F2DED028B87B000AF044692
:106DA800FFF744FE8146F8B1214607F11400FFF7CA
:106DB8001FFD00F0C5F94FF47A72236D0646534360
:106DC800A26A821A9A4203D8626A821A934221D22C
:106DD80094F82C307BB1204603F040FA4FF00009BC
:106DE80007F11400FFF70FFD48461C37BD46BDEC00
:106DF800028BBDE8F08FC021E26920461170E2697C
:106E08005370E169022202F0A4FF0123C4E9096674
:106E180084F82C30204603F0C7F90028E0D020463B
:106E280007F11301FFF75AFD83460028D8D0E3691C
:106E3800A662197801F0F002302A7FD1D4F830A088
:106E4800BAF1000FCCD06A4697F813C008EE102AA2
:106E580003EB0C025178957805EB01256946ADB234
:106E680005F10802D208A1EBC202954668460CF16A
:106E78000302FA6003EB020E0DEB0502C7F808D017
:106E88007A60D7E901218A4206D00A461EF8018BAA
:106E980002F8018BBA60F4E70022425593F80080AB
:106EA800F96808F00608ABEB0C02033AB8F1020FD8
:106EB800A2EB0502294425D113F801E0194491F801
:106EC80001B00CF105012944023A19440BEB0E2BD1
:106ED800D0474022E3691FFA8BFB1A70E36983F8F5
:106EE8000180E3694FEA1B229A70E369042283F860
:106EF80003B02046E16902F02CFF666218EE103AF2
:106F08009D466DE7B8F1040F15D113F801E0194457
:106F180091F801B00CF105012944023A19440BEB30
:106F28000E2BD0475022E3691FFA8BFB1A700222FE
:106F3800E3695A70D5E71944D047DFE7502A08D1EA
:106F48009A78D978204601EB022189B2FFF7D9FE59
:106F580046E7402A12D1626B002A3FF441AFBBF1E9
:106F6800040F7FF43DAF11F0060F7FF439AF997825
:106F7800D87800EB012080B2904731E7602A08D129
:106F88009A78D978204601EB022189B2FFF7DDFE15
:106F980026E7702ADFD0902A3FF422AFC02A0AD110
:106FA800D0221A700022E36920465A70E169022251
:106FB80002F0CFFE14E7D02A04BF002384F82C3057
:106FC8000EE7F7B504460F461646FFF72FFD0546B0
:106FD80010B3214601A8FFF70BFC238C01339BB2A9
:106FE800EBB12384238CE2691B0A5371E369228C79
:106FF80039469A71E26907232046FFF7FCFCE369EA
:1070080082211E54043883B2E2692046FFF7B8FC97
:10701800054601A8FFF7F7FB284603B0F0BD01239A
:10702800DFE70022FFF7CDBF09B504480068044B2D
:1070380003441B681B6B029309BD0000D8AA071004
:107048003000000009B504480068044B03441B687D
:107058009B6B029309BD0000D8AA071030000000FE
:1070680009B504480068044B03441B681B6C029371
:1070780009BD0000D8AA07103000000009B504486F
:107088000068044B03441B685B6C029309BD000055
:10709800D8AA07103000000009B504480068044B5E
:1070A80003441B689B6C029309BD0000D8AA071013
:1070B8003000000009B504480068044B03441B680D
:1070C800DB6C029309BD0000D8AA0710300000004D
:1070D80009B504480068044B03441B685B6D0293C0
:1070E80009BD0000D8AA07103000000009B50448FF
:1070F8000068044B03441B685B6D029309BD0000E4
:10710800D8AA07101C00000009B504480068044B01
:1071180003441B685B68029309BD0000D8AA0710E6
:107128000000000009B504480068044B03441B68CC
:10713800DB68029309BD0000D8AA07100000000010
:1071480009B504480068044B03441B685B69029353
:1071580009BD0000D8AA07100000000009B50448BE
:107168000068044B03441B689B6A029309BD000036
:10717800D8AA07100000000009B504480068044BAD
:1071880003441B685B6C029309BD0000D8AA071072
:107198000000000009B504480068044B03441B685C
:1071A8009B6C029309BD0000D8AA071000000000DC
:1071B80009B504480068044B03441B689B6D02939F
:1071C80009BD0000D8AA07100000000009B504484E
:1071D8000068044B03441B685B6E029309BD000002
:1071E800D8AA07100000000009B504480068044B3D
:1071F80003441B689B68029309BD0000D8AA0710C6
:107208001400000009B504480068044B03441B68D7
:10721800DB68029309BD0000D8AA0710140000001B
:1072280009B504480068044B03441B681B690293B2
:1072380009BD0000D8AA07101400000009B50448C9
:107248000068044B03441B68DB68029309BD000017
:10725800D8AA07101000000009B504480068044BBC
:1072680003441B689B69029309BD0000D8AA071054
:107278001000000009B504480068044B03441B686B
:10728800DB69029309BD0000D8AA071010000000AE
:1072980009B504480068044B03441B681B6A029341
:1072A80009BD0000D8AA07101000000009B504485D
:1072B8000068044B03441B685B6A029309BD000025
:1072C800D8AA07101000000009B504480068044B4C
:1072D80003441B689B6A029309BD0000D8AA0710E3
:1072E8001000000009B504480068044B03441B68FB
:1072F800DB6A029309BD0000D8AA0710100000003D
:1073080009B504480068044B03441B681B6B0293CF
:1073180009BD0000D8AA07101000000009B50448EC
:107328000068044B03441B685B6B029309BD0000B3
:10733800D8AA07101000000009B504480068044BDB
:1073480003441B681B6C029309BD0000D8AA0710F0
:107358001000000009B504480068044B03441B688A
:107368005B6C029309BD0000D8AA0710100000004A
:1073780009B504480068044B03441B681B6D02935D
:1073880009BD0000D8AA07101000000009B504487C
:107398000068044B03441B685B69029309BD000045
:1073A800D8AA07105400000009B504480068044B27
:1073B80003441B685B69029309BD0000D8AA071043
:1073C8004C00000009B504480068044B03441B68DE
:1073D8001B6A029309BD0000D8AA07104C000000E0
:1073E80009B504480068044B03441B689B6A029370
:1073F80009BD0000D8AA07104C00000009B50448D0
:107408000068044B03441B689B68029309BD000095
:10741800D8AA07105000000009B504480068044BBA
:1074280003441B68DB68029309BD0000D8AA071053
:107438005000000009B504480068044B03441B6869
:107448009B69029309BD0000D8AA0710200000001C
:1074580009B504480068044B03441B68DB690293C0
:1074680009BD0000D8AA07102000000009B504488B
:107478000068044B03441B681B6A029309BD0000A3
:10748800D8AA07102000000009B504480068044B7A
:1074980003441B689B6A029309BD0000D8AA071021
:1074A8002000000009B504480068044B03441B6829
:1074B8001B6B029309BD0000D8AA0710200000002A
:1074C80009B504480068044B03441B689B6B02938E
:1074D80009BD0000D8AA07102000000009B504481B
:1074E8000068044B03441B68DB69029309BD000074
:1074F800D8AA07101800000009B504480068044B12
:1075080003441B681B6A029309BD0000D8AA071030
:107518001800000009B504480068044B03441B68C0
:107528009B68029309BD0000D8AA07102400000038
:1075380009B504480068044B03441B68DB680293E0
:1075480009BD0000D8AA07102400000009B50448A6
:107558000068044B03441B681B69029309BD0000C3
:10756800D8AA07102400000009B504480068044B95
:1075780003441B685B69029309BD0000D8AA071081
:107588002400000009B504480068044B03441B6844
:107598009B69029309BD0000D8AA071024000000C7
:1075A80009B504480068044B03441B68DB6902936F
:1075B80009BD0000D8AA07102400000009B5044836
:1075C8000068044B03441B681B6A029309BD000052
:1075D800D8AA07102400000009B504480068044B25
:1075E80003441B689B6A029309BD0000D8AA0710D0
:1075F8002400000009B504480068044B03441B68D4
:10760800DB6A029309BD0000D8AA07102400000015
:1076180009B504480068044B03441B681B6C0293BB
:1076280009BD0000D8AA07102400000009B50448C5
:107638000068044B03441B681B68029309BD0000E3
:10764800D8AA07103400000009B504480068044BA4
:1076580003441B685B68029309BD0000D8AA0710A1
:107668003400000009B504480068044B03441B6853
:107678009B68029309BD0000D8AA071034000000D7
:1076880009B504480068044B03441B681B6902934E
:1076980009BD0000D8AA07103400000009B5044845
:1076A8000068044B03441B685B69029309BD000032
:1076B800D8AA07103400000009B504480068044B34
:1076C80003441B689B69029309BD0000D8AA0710F0
:1076D8003400000009B504480068044B03441B68E3
:1076E800DB69029309BD0000D8AA07103400000026
:1076F80009B504480068044B03441B681B6A0293DD
:1077080009BD0000D8AA07103400000009B50448D4
:107718000068044B03441B681B68029309BD000002
:10772800D8AA07106C00000009B504480068044B8B
:1077380003441B689B68029309BD0000D8AA071080
:107748006C00000009B504480068044B03441B683A
:107758001B69029309BD0000D8AA07106C0000003D
:1077680009B504480068044B03441B685B6902932D
:1077780009BD0000D8AA07106C00000009B504482C
:107788000068044B03441B681B6D029309BD00008D
:10779800D8AA07105C00000009B504480068044B2B
:1077A80003441B685B6B029309BD0000D8AA07104D
:1077B8004800000009B504480068044B03441B68EE
:1077C8001B6D029309BD0000D8AA071048000000ED
:1077D80009B504480068044B03441B685B6D0293B9
:1077E80009BD0000D8AA07104800000009B50448E0
:1077F8000068044B03441B68DB6E029309BD00005C
:10780800D8AA07104800000009B504480068044BCE
:1078180003441B681B6F029309BD0000D8AA071018
:107828004800000009B504480068044B03441B687D
:107838001B68029309BD0000D8AA071008000000C1
:1078480009B504480068044B03441B685B6802934D
:1078580009BD0000D8AA07100800000009B50448AF
:107868000068044B03441B685B69029309BD000070
:10787800D8AA07100800000009B504480068044B9E
:1078880003441B681B6A029309BD0000D8AA0710AD
:107898000800000009B504480068044B03441B684D
:1078A800DB6A029309BD0000D8AA0710080000008F
:1078B80009B504480068044B03441B689B6D029398
:1078C80009BD0000D8AA07100800000009B504483F
:1078D8000068044B03441B68D3F88830029309BD41
:1078E800D8AA07100800000009B504480068044B2E
:1078F80003441B68D3F89430029309BDD8AA071033
:107908000800000009B504480068044B03441B68DC
:10791800D3F8AC30029309BDD8AA071008000000BC
:1079280009B504480068044B03441B681B680293AC
:1079380009BD0000D8AA07102C00000009B50448AA
:107948000068044B03441B685B68029309BD000090
:10795800D8AA07102C00000009B504480068044B99
:1079680003441B689B68029309BD0000D8AA07104E
:107978002C00000009B504480068044B03441B6848
:107988005B69029309BD0000D8AA07102C0000000B
:1079980009B504480068044B03441B685B6A0293FA
:1079A80009BD0000D8AA07102C00000009B504483A
:1079B8000068044B03441B681B6B029309BD00005D
:1079C800D8AA07102C00000009B504480068044B29
:1079D80003441B68DB6B029309BD0000D8AA07109B
:1079E8002C00000009B504480068044B03441B68D8
:1079F8005B68029309BD0000D8AA071028000000A0
:107A080009B504480068044B03441B689B6802934B
:107A180009BD0000D8AA07102800000009B50448CD
:107A28000068044B03441B68DB68029309BD00002F
:107A3800D8AA07102800000009B504480068044BBC
:107A480003441B681B69029309BD0000D8AA0710EC
:107A58002800000009B504480068044B03441B686B
:107A68005B69029309BD0000D8AA0710280000002E
:107A780009B504480068044B03441B689B690293DA
:107A880009BD0000D8AA07102800000009B504485D
:107A98000068044B03441B68DB69029309BD0000BE
:107AA800D8AA07102800000009B504480068044B4C
:107AB80003441B681B6A029309BD0000D8AA07107B
:107AC8002800000009B504480068044B03441B68FB
