:02000004085F93
:1050000000505F08FCFF5F0800000600200005015B
:085010000401E015000000009E
:105018001348144908B5884205D0134A824202D081
:10502800124B121A98471248124A0021124B121AB0
:10503800984712481249884205D0124A824202D043
:105048000A4B121A984710481049884205D0104A4E
:10505800824202D0054B121A9847014808BD00BF8A
:10506800C8AA07107CF55F08C0AC07102D0D1110F9
:10507800C0AC0710ECAF0710A10E1110285B3F025F
:10508800B0505F08305B3F02305B3F02B8505F08AA
:0C509800F4FF3F0219505F080000000008
:0850A400EC14E07901000000AA
:0850B0009C505F085CF23F0216
:1050B80081F0004102E000BF83F0004330B54FEAC1
:1050C80041044FEA430594EA050F08BF90EA020F2E
:1050D8001FBF54EA000C55EA020C7FEA645C7FEAC1
:1050E800655C00F0E2804FEA5454D4EB5555B8BFE4
:1050F8006D420CDD2C4480EA020281EA030382EA55
:10510800000083EA010180EA020281EA0303362DE6
:1051180088BF30BD11F0004F4FEA01314FF4801CB9
:105128004CEA113102D0404261EB410113F0004FCB
:105138004FEA03334CEA133302D0524263EB430382
:1051480094EA050F00F0A780A4F10104D5F1200E20
:105158000DDB02FA0EFC22FA05F2801841F100017B
:1051680003FA0EF2801843FA05F359410EE0A5F14F
:1051780020050EF1200E012A03FA0EFC28BF4CF080
:10518800020C43FA05F3C01851EBE37101F0004536
:1051980007D54FF0000EDCF1000C7EEB00006EEB43
:1051A8000101B1F5801F1BD3B1F5001F0CD34908CD
:1051B8005FEA30004FEA3C0C04F101044FEA445224
:1051C80012F5800F80F09A80BCF1004F08BF5FEAAB
:1051D800500C50F1000041EB045141EA050130BD8B
:1051E8005FEA4C0C404141EB0101013C28BFB1F59D
:1051F800801FE9D291F0000F04BF01460020B1FAE8
:1052080081F308BF2033A3F10B03B3F120020CDABA
:105218000C3208DD02F1140CC2F10C0201FA0CF098
:1052280021FA02F10CE002F11402D8BFC2F1200CFD
:1052380001FA02F120FA0CFCDCBF41EA0C019040B3
:10524800E41AA2BF01EB0451294330BD6FEA0404FC
:105258001F3C1CDA0C340EDC04F11404C4F12002E7
:1052680020FA04F001FA02F340EA030021FA04F3F9
:1052780045EA030130BDC4F10C04C4F1200220FA50
:1052880002F001FA04F340EA0300294630BD21FA8E
:1052980004F0294630BD94F0000F83F4801306BF54
:1052A80081F480110134013D4EE77FEA645C18BF48
:1052B8007FEA655C29D094EA050F08BF90EA020FDF
:1052C80005D054EA000C04BF1946104630BD91EAD7
:1052D800030F1EBF0021002030BD5FEA545C05D1DA
:1052E8004000494128BF41F0004130BD14F5800419
:1052F8003CBF01F5801130BD01F0004545F0FE418D
:1053080041F470014FF0000030BD7FEA645C1ABFC1
:10531800194610467FEA655C1CBF0B46024650EAF8
:10532800013406BF52EA033591EA030F41F4002124
:1053380030BD00BF90F0000F04BF0021704730B5AA
:105348004FF4806404F132044FF000054FF000017F
:1053580050E700BF90F0000F04BF0021704730B540
:105368004FF4806404F1320410F0004548BF404215
:105378004FF000013EE700BF42004FEAE2014FEA6A
:1053880031014FEA02701FBF12F07F4393F07F4F45
:1053980081F06051704732F07F4208BF704793F048
:1053A8007F4F04BF41F40021704730B54FF460745B
:1053B80001F0004521F000411CE700BF50EA01025E
:1053C80008BF704730B54FF000050AE050EA010207
:1053D80008BF704730B511F0004502D5404261EB77
:1053E80041014FF4806404F132045FEA915C3FF4B8
:1053F800D8AE4FF003025FEADC0C18BF03325FEA55
:10540800DC0C18BF033202EBDC02C2F1200300FA05
:1054180003FC20FA02F001FA03FE40EA0E0021FA2A
:1054280002F11444BDE600BF70B54FF0FF0C4CF418
:10543800E06C1CEA11541DBF1CEA135594EA0C0FCA
:1054480095EA0C0F00F0DEF82C4481EA030621EA05
:105458004C5123EA4C5350EA013518BF52EA033540
:1054680041F4801143F4801338D0A0FB02CE4FF0F2
:105478000005E1FB02E506F00042E0FB03E54FF022
:105488000006E1FB03569CF0000F18BF4EF0010E1A
:10549800A4F1FF04B6F5007F64F5407404D25FEA16
:1054A8004E0E6D4146EB060642EAC62141EA5551C9
:1054B8004FEAC52040EA5E504FEACE2EB4F1FD0C0B
:1054C80088BFBCF5E06F1ED8BEF1004F08BF5FEA89
:1054D800500E50F1000041EB045170BD06F000463B
:1054E80046EA010140EA020081EA0301B4EB5C04E8
:1054F800C2BFD4EB0C0541EA045170BD41F48011E0
:105508004FF0000E013C00F3AB8014F1360FDEBF04
:10551800002001F0004170BDC4F10004203C35DAE0
:105528000C341BDC04F11404C4F1200500FA05F363
:1055380020FA04F001FA05F240EA020001F0004204
:1055480021F0004110EBD37021FA04F642EB06017A
:105558005EEA430E08BF20EAD37070BDC4F10C04A4
:10556800C4F1200500FA04F320FA05F001FA04F268
:1055780040EA020001F0004110EBD37041F1000154
:105588005EEA430E08BF20EAD37070BDC4F120055F
:1055980000FA05F24EEA020E20FA04F301FA05F2C7
:1055A80043EA020321FA04F001F0004121FA04F26F
:1055B80020EA020000EBD3705EEA430E08BF20EA3F
:1055C800D37070BD94F0000F0FD101F00046400079
:1055D80041EB010111F4801F08BF013CF7D041EAFB
:1055E800060195F0000F18BF704703F000465200FF
:1055F80043EB030313F4801F08BF013DF7D043EAD0
:105608000603704794EA0C0F0CEA135518BF95EA85
:105618000C0F0CD050EA410618BF52EA4306D1D10C
:1056280081EA030101F000414FF0000070BD50EA2B
:10563800410606BF1046194652EA430619D094EAB5
:105648000C0F02D150EA013613D195EA0C0F05D19F
:1056580052EA03361CBF104619460AD181EA0301F3
:1056680001F0004141F0FE4141F470014FF00000AB
:1056780070BD41F0FE4141F4780170BD70B54FF046
:10568800FF0C4CF4E06C1CEA11541DBF1CEA1355C6
:1056980094EA0C0F95EA0C0F00F0A7F8A4EB0504A8
:1056A80081EA030E52EA03354FEA013100F088809F
:1056B8004FEA03334FF0805545EA131343EA126368
:1056C8004FEA022245EA111545EA10654FEA00261D
:1056D8000EF000419D4208BF964244F1FD0404F5D6
:1056E800407402D25B084FEA3202B61A65EB030532
:1056F8005B084FEA32024FF480104FF4002CB6EBEF
:10570800020E75EB030E22BFB61A754640EA0C006E
:105718005B084FEA3202B6EB020E75EB030E22BFAE
:10572800B61A754640EA5C005B084FEA3202B6EBEF
:10573800020E75EB030E22BFB61A754640EA9C00AE
:105748005B084FEA3202B6EB020E75EB030E22BF7E
:10575800B61A754640EADC0055EA060E18D04FEA3C
:10576800051545EA16754FEA06164FEAC30343EADC
:1057780052734FEAC2025FEA1C1CC0D111F4801FA9
:105788000BD141EA00014FF000004FF0004CB6E7A2
:1057980011F4801F04BF01430020B4F1FD0C88BF41
:1057A800BCF5E06F3FF6AFAEB5EB030C04BFB6EB4C
:1057B800020C5FEA500C50F1000041EB045170BD3F
:1057C8000EF0004E4EEA113114EB5C04C2BFD4EB6C
:1057D8000C0541EA045170BD41F480114FF0000EF0
:1057E800013C90E645EA060E8DE60CEA135594EA6C
:1057F8000C0F08BF95EA0C0F3FF43BAF94EA0C0F6F
:105808000AD150EA01347FF434AF95EA0C0F7FF4E3
:1058180025AF104619462CE795EA0C0F06D152EA37
:1058280003353FF4FDAE1046194622E750EA41061B
:1058380018BF52EA43067FF4C5AE50EA41047FF42C
:105848000DAF52EA43057FF4EBAE12E74FF0FF3C91
:1058580006E000BF4FF0010C02E000BF4FF0010C62
:105868004DF804CD4FEA410C7FEA6C5C4FEA430CDB
:1058780018BF7FEA6C5C1BD001B050EA410C0CBF2A
:1058880052EA430C91EA030F02BF90EA020F00208C
:10589800704710F1000F91EA030F58BF994208BFF3
:1058A80090422CBFD8176FEAE37040F001007047B0
:1058B8004FEA410C7FEA6C5C02D150EA013C07D107
:1058C8004FEA430C7FEA6C5CD6D152EA033CD3D052
:1058D8005DF8040B704700BF8446104662468C464C
:1058E8001946634600E000BF01B5FFF7B7FF00287F
:1058F80048BF10F1000F01BD4DF808EDFFF7F4FFA8
:105908000CBF012000205DF808FB00BF4DF808ED32
:10591800FFF7EAFF34BF012000205DF808FB00BF55
:105928004DF808EDFFF7E0FF94BF012000205DF877
:1059380008FB00BF4DF808EDFFF7CEFF94BF01202C
:1059480000205DF808FB00BF4DF808EDFFF7C4FF25
:1059580034BF012000205DF808FB00BF4A0011D2C7
:1059680012F5001211D20DD56FF47873B3EB6252B1
:105978000ED44FEAC12343F0004343EA505323FABD
:1059880002F070474FF00000704750EA013002D132
:105998004FF0FF3070474FF0000070474FEA410268
:1059A800B2F1E04324BFB3F5001CDCF1FE5C0DD975
:1059B80001F0004C4FEAC0024CEA5070B2F1004FBF
:1059C80040EB830008BF20F00100704711F0804FC2
:1059D80021D113F13872BCBF01F00040704741F487
:1059E80080114FEA5252C2F11802C2F1200C10FA8B
:1059F8000CF320FA02F018BF40F001004FEAC1236F
:105A08004FEAD32303FA0CFC40EA0C0023FA02F312
:105A18004FEA4303CCE77FEA625307D150EA0133E8
:105A28001EBF4FF0FE4040F44000704701F00040B8
:105A380040F0FE4040F40000704700BF53B94AB937
:105A4800002908BF00281CBF4FF0FF314FF0FF307E
:105A580000F0D4B9ADF1080C6DE904CE00F058F8A7
:105A6800DDF804E0DDE9022304B0704707EE900A90
:105A7800F5EEC07AF1EE10FA01D400F00BB8F1EEB1
:105A8800677A08B517EE900A00F004F8404261EB17
:105A9800410108BDD0B5FFF76FFC00220B4B06464D
:105AA8000F46FFF7C1FCFFF759FF0446FFF742FC1A
:105AB8000022074BFFF7B8FC02460B463046394632
:105AC800FFF7FAFAFFF74AFF2146D0BD0000F03D84
:105AD8000000F041D0B500220B4B06460F46FFF7F9
:105AE800A3FCFFF73BFF0446FFF724FC0022074B0B
:105AF800FFF79AFC02460B4630463946FFF7DCFAB8
:105B0800FFF72CFF2146D0BD0000F03D0000F0411A
:105B18002DE9F04F099D04460F46002B48D18A42D3
:105B2800944661D9B2FA82F343B1C3F120019F4090
:105B380002FA03FC9C4020FA01F10F434FEA1C4192
:105B48001FFA8CFE220CB7FBF1F601FB167706FB59
:105B58000EF042EA0742904208D91CEB020206F115
:105B6800FF3702D2904200F237813E46121AA4B2A1
:105B7800B2FBF1F001FB102200FB0EFE44EA0244E6
:105B8800A64508D91CEB040400F1FF3202D2A64551
:105B980000F21C81104640EA0640A4EB0E040026E1
:105BA8001DB1DC400023C5E900433146BDE8F08F54
:105BB8008B4209D9002D00F0FD800026C5E90001BF
:105BC80030463146BDE8F08FB3FA83F6002E4BD14C
:105BD8008B42C0F0F280824240F2EF803046002DC6
:105BE800E3D0C5E90047E0E702B9FFDEB2FA82F385
:105BF800002B40F09D80891A4FEA124E97B2012679
:105C0800200CB1FBFEF20EFB121140EA014107FB2A
:105C180002F088420FD91CEB010102F1FF382CBFBA
:105C28004FF001094FF00009884203D9B9F1000F7C
:105C380000F0CF804246091AA4B2B1FBFEF00EFB79
:105C4800101100FB07F744EA0144A74208D91CEBEE
:105C5800040400F1FF3102D2A74200F2B4800846E2
:105C6800E41B40EA02409BE7C6F12007B34001FA73
:105C780006F422FA07FCF940B2404CEA030C20FA79
:105C880007F34FEA1C491C431FFA8CFE00FA06F37F
:105C9800200CB1FBF9F809FB181140EA014108FB97
:105CA8000EF088420FD91CEB010108F1FF3A2CBF16
:105CB8004FF0010B4FF0000B884203D9BBF1000FE6
:105CC80000F08D80D046091AA4B2B1FBF9F009FBA7
:105CD800101100FB0EFE44EA01418E4507D91CEB6A
:105CE800010100F1FF3401D28E457FD8204640EAF9
:105CF8000840A1EB0E01A0FB029841454C46C64660
:105D080002D306D14B4504D20138B9EB020468EB43
:105D18000C0E002D70D01A1B61EB0E0122FA06F34F
:105D280001FA07F7F14000261F43C5E900713CE777
:105D380002FA03FCC3F1200001FA03F221FA00F68B
:105D48004FEA1C4E24FA00F11FFA8CF79C401143CD
:105D5800B6FBFEF00A0C0EFB106642EA064200FB98
:105D680007F696420ED91CEB020200F1FF382CBF51
:105D78004FF001094FF00009964202D9B9F1000F1E
:105D880031D04046921B89B2B2FBFEF60EFB1622BA
:105D980041EA024106FB07F28A4207D91CEB0101DE
:105DA80006F1FF3801D28A4223D84646891A46EAC4
:105DB800004625E72E462846F7E6841A61EB0303DA
:105DC80001201F460BE76444023849E7644402385F
:105DD800E1E6023A61442EE7023E6244C6E6A8F1D3
:105DE800020861446FE702386244CBE70238614435
:105DF8007DE7023E6144D9E72E46D6E6704700BFEC
:105E080010F8012B11F8013B012A28BF9A42F7D05C
:105E1800D01A7047034613F8012B002AFBD1181A31
:105E28000138704738B50022002304460D46FFF7B5
:105E38006DFD28B920462946BDE83840FFF74ABE1F
:105E4800204605F10041FFF745FE404261EB410164
:105E580038BD00BF70B506F061F90025054E064C47
:105E6800A41BA408AC4200D170BD56F8043B984767
:105E78000135F7E7C4FF3F02F4FF3F0200F04AB8DC
:105E880008B500F09FF8BDE8084006F0FFB803F039
:105E980073BA03F071BA03F07DBA03F07BBA00005D
:105EA8000C2008B5024A034903F06EF8FEE700BF6C
:105EB8003D943F026CF23F020078B0FA80F040094E
:105EC80070470123037070477047000010B50446FF
:105ED800094B036003F0F4FF214604F02BFA05F0A8
:105EE800EBFF05F0DDFF2046044B40F8043B04F0CF
:105EF800BDF8204610BD00BFC8F23F02B0F23F0215
:105F080010B50446FFF7E2FF20462421FFF7C5FF3E
:105F1800204610BD10B588B02549684604F0D5FF65
:105F2800244904A804F0D1FF002204A9684600F01F
:105F38000BFC04A804F07EFF684604F07BFF1E49B2
:105F4800684604F0C2FF1D4904A804F0BEFF3820CB
:105F5800FFF79DFF044620B15023694604AA01F0CB
:105F6800AFFE204601F0C6FE04A804F063FF6846B1
:105F780004F060FF1249684604F0A7FF0F4904A81F
:105F880004F0A3FF3820FFF782FF044620B1502316
:105F9800694604AA01F094FE204601F0ABFE04A86D
:105FA80004F048FF684604F045FF08B010BD00BF84
:105FB80081F23F028EF23F0296F23F029CF23F02CC
:105FC800A0F23F0200F0A2B970B51426D0E9005340
:105FD800044606FB0356AE4204D0284604F02AFFC6
:105FE8001435F8E7206803F0D5F9204670BD8842DB
:105FF800F8B504460D46164616D9904215D2A2F1B8
:106008001406751AA1F114072C44B7421CD02CB100
:106018003146204604F08BFF337C2374304604F06D
:1060280009FF143E143CF0E70ED0B5420CD02CB159
:106038002946204604F07BFF2B7C2374284604F075
:10604800F9FE14351434F0E7F8BD00232DE9F041CA
:10605800C0E9003383604F6804469F420E4624DD42
:106068004FF0140808FB07F003F086F90546E0B185
:10607800D4E9001208FB0212FFF7B9FF206803F009
:1060880089F92560A760D6E9007308FB0378B8454D
:1060980009D03946284604F064FF3B7C143505F8DE
:1060A800043C1437F3E7736863602046BDE8F08169
:1060B80070B50024234B244A8CB09A60C3E900448D
:1060C800012002F0B5FF2146012002F0DBFFCDE9F7
:1060D8000044029405F0F0FE1C4C0546264669462D
:1060E80003A8FFF7B2FF03A906A8FFF7AEFF184BF6
:1060F80006A946F8043B09A8FFF7A7FF09AA1E212D
:10610800304604F0F9F909A8FFF75EFF06A8FFF783
:106118005BFF104B2562236003A8FFF755FF0E4B6A
:10612800236005F0C9FE4FF4165105F0B5FE03F0E3
:10613800C7FE214604F0B8F86846FFF745FF0CB0E3
:1061480070BD00BFC0AC07100000FFFFCCAC07104B
:10615800B0F23F02CCF83F02C8F23F02014B1A608E
:10616800704700BFCCAA071030B585B00446089820
:1061780060B1406850B1856845B1CDE90241CDE9CB
:106188000023C4686A4601AB02A9A04705B030BD28
:1061980030B51368006885B001938368D1E900457C
:1061A800CDE902450BB906F06DF9C36801AA02A949
:1061B800984705B030BD012A02D101600020704720
:1061C800022A04BF0B680360F8E703681268D1E984
:1061D8000001184710B58368044613B1032201462D
:1061E8009847204610BD10B5044638B1FFF7F2FFB6
:1061F8002046BDE810401021FFF74FBE10BD00003B
:1062080008B50248FFF7E6FF08BD00BFF4AC071069
:1062180038B50A4DD5E88F4F14F001040CD1284643
:10622800FFF74AFE40B1064B28469C601C74FFF7F6
:1062380048FE044806F06AFA014838BDF0AC071079
:10624800F4AC0710816C3F0210B54FF0200C0446E7
:10625800084600218AB0CDE90023CDE902C10B46EA
:1062680002AA216802F0ACFE0AB010BD0EB403B554
:1062780003AB53F8042B32210193FFF7E5FF02B07B
:106288005DF804EB03B070470EB403B503AB53F8E5
:10629800042B1E210193FFF7D7FF02B05DF804EB32
:1062A80003B070470EB403B503AB53F8042B0121B8
:1062B8000193FFF7C9FF02B05DF804EB03B0704724
:1062C80000B50F4B97B0202200210EA80D9306F0C1
:1062D80062FAFFF79DFF04A905F01FFEFFF798FF7C
:1062E800084A094B01A9CDE901232123039305F0AD
:1062F80007FEFFF78DFF05F008FE17B05DF804FBF9
:10630800240001000C000100E093040008B501F02E
:1063180037FD0C4B186801F043FA0B4B1A68002A3A
:1063280009DB0A490A48FFF7A1FF4FF4FA6003F0B6
:10633800D9F805F01DF8FFF76BFFBDE8084005F038
:10634800E8BD00BF58AD0710CCAA0710D8F23F022D
:106358001CAE071010B590B004460CA804F0B5FDAB
:106368000CA804F08CFF0146684604F0FAFD0CA85E
:1063780004F060FD214604A804F0A7FD1D490CA8FF
:1063880004F0A3FD04A90CA804F096FE1A4904F031
:106398009FFE694604F090FE184904F099FE0168D2
:1063A8001748FFF771FF0CA804F044FD154B04A82B
:1063B8001C6804F056FF014608A804F0D2FD6846A0
:1063C80004F04FFF01460CA804F0CBFD0CAA08A965
:1063D800204600F019FD0CA804F02CFD08A804F0D4
:1063E80029FD04A804F026FD684604F023FD10B03A
:1063F80010BD00BFF7F23F021EF33F0221F33F0238
:106408001CAE071058AD0710F0B502F1080399B09B
:1064180023F007036E4600AFADEB030D0546684653
:10642800144606F091F9002369460DF80430384601
:1064380004F04BFD384604F014FF014607F1100044
:1064480004F08FFD294607F1200004F03EFD07F116
:10645800200004F006FF014607F1300004F081FD3A
:106468002D4907F1500004F030FD07F1500107F104
:10647800200004F0A7FE044607F1500004F0DAFCFF
:1064880094B107F1300004F0D5FC07F1200004F0C6
:10649800D1FC07F1100004F0CDFC384604F0CAFC2A
:1064A800B5466437BD46F0BD1C4B07F130011C688A
:1064B80007F1400004F055FD07F1100107F1500005
:1064C80004F04FFD07F1500207F14001204600F0AB
:1064D800E7FF07F1500004F0ADFC07F1400004F0BD
:1064E800A9FC07F1300107F1400004F03AFD07F17B
:1064F800100107F1500004F034FD07F1500107F1D5
:10650800400001F097FC07F1500004F093FC07F1FC
:10651800400004F08FFCB4E723F33F0258AD0710A6
:1065280070B505468EB00192134A0C4602A813496D
:10653800166804F016FD124902A804F0C9FD2946A0
:1065480004F0BAFD014606A804F00BFD21460AA88E
:1065580004F007FD019B0AAA06A9304600F056FB85
:106568000AA804F067FC06A804F064FC02A804F07A
:1065780061FC0EB070BD00BF58AD071008AD071024
:106588007EF73F0201F036BC10B5044688B01449C6
:1065980004A804F09AFC0A222146684604F017FD74
:1065A800694604A804F088FD01680E48FFF77AFEE2
:1065B800684604F03FFC04A804F03CFC07EE904A4F
:1065C800B8EEE70A8DF8104005F040FA05F040FEF5
:1065D800012204A9104602F029FA08B010BD00BF34
:1065E80027F33F021CAE071038B505F089FB0546B6
:1065F80005F07AFB044605F06BFB072C1FDD6B1ECC
:10660800052B1AD8DFE803F0030F11131517082C10
:1066180001D1012813DD0A490A48FFF743FEBDE806
:10662800384005F033BA082C09D0092C07DD0A2CAC
:1066380005DD0B2C03DD0C2C01DD0D2CEAE738BD44
:1066480035F33F021CAE071038B505F059FB054677
:1066580005F04AFB044605F03BFB072C0BDC6B1EE0
:10666800052B13D8DFE803F003080A0C0E10012CE1
:106678000CD101280ADD38BD022CFBE7032CF9E711
:10668800042CF7E7052CF5E7072CF4D00349044858
:10669800FFF708FEBDE8384005F0F8B935F33F02CA
:1066A8001CAE071000B58BB005F0D2FD01220DF12C
:1066B8000701104602F0ACF9194906A804F005FCD8
:1066C8000A229DF9071002A804F081FC02A906A875
:1066D80004F0F2FC01681348FFF7E4FD02A804F097
:1066E800A9FB06A804F0A6FB9DF9073000EE103AB6
:1066F800B8EEC00A05F0AAF905F00AFB031F062B3D
:1067080004D805F0C3F90BB05DF804FB032802D1E7
:10671800FFF76AFFF7E70B28F5D1FFF795FFF2E7D8
:106728003FF33F021CAE071038B5002383608B6827
:1067380004460D462BB102229847EB68E360AB682C
:10674800A360204638BD00002DE9F0474FF0000A4D
:10675800474B98B00493474B80460793464B89466E
:1067680008A804A91746069310ADFFF7DDFF08A98E
:106778000CA8FFF7D9FF0CA92846FFF7D5FF102072
:10678800CDF858A0FFF783FB0446A0B195E80300B5
:1067980001AE86E8030094E8030085E8030096E864
:1067A8000300129BE268A36084E80300139BCDF802
:1067B80048A01392E3600026304B10201793304B0B
:1067C800149416932F4B0396CDE90136FFF75FFB20
:1067D8000446D8B1169B866033B1022214A99847A3
:1067E800179BE360169BA360274B4FF4802003930D
:1067F8000021264A01AB029402F036FC30B1204653
:10680800FFF7E8FC10212046FFF747FB14A8FFF725
:10681800E1FC2846FFF7DEFC0CA8FFF7DBFC08A824
:10682800FFF7D8FC04A8FFF7D5FCFFF73BFF01F002
:1068380027FBFFF745FD4146284604F092FB4946F1
:1068480014A804F08EFB6820FFF721FB044620B152
:106858003B46294614AA00F0EFF80D4B14A81C601B
:1068680004F0E8FA284604F0E5FA18B0BDE8F08725
:10687800DD6B3F024B6C3F02376C3F02116C3F02ED
:1068880015733F0202000C00676C3F02E96B3F0280
:1068980058AD0710012A37B5044604D10B680360C8
:1068A800002003B030BD022A0CD0032AF8D10468B6
:1068B800002CF5D02046FFF78DFC10212046FFF76D
:1068C800ECFAEDE7096810200191FFF7E0FA0546B8
:1068D80010B10199FFF728FF2560E1E708B50B49DA
:1068E8000B4804F0F2FA0B490B4804F0EEFA0B4996
:1068F8000B4804F0EAFA0B490B4804F0E6FABDE845
:1069080008400A490A4804F0E0BA00BF54F33F02BD
:1069180038AD07105CF33F0248AD071066F33F023D
:1069280028AD07106DF33F0208AD071075F33F025D
:1069380018AD071010B50446064B40F8283B04F084
:1069480079FA2046044B40F8043B03F08FFB2046BD
:1069580010BD00BF08F63F02B0F23F0210B5044672
:10696800FFF7E8FF20466821FFF797FA204610BD99
:1069780000224068114602F057BC0EB403B503ABC1
:1069880053F8042B28210193FFF75EFC02B05DF851
:1069980004EB03B07047406A01F094BC70B504463C
:1069A80092B020490EA804F0DCFA04F128051E492B
:1069B8000EA804F08DFB294604F07EFB1B4904F069
:1069C80087FB014606A804F0CCFA0EA804F032FAB8
:1069D80017490AA804F079FA29460EA8666A04F04D
:1069E800C0FA14490EA804F073FB00230422CDE971
:1069F80004320A9A0193CDE90232069A009201689C
:106A08001A46304601F06CFC0EA804F013FA05F0A3
:106A18004EF9A0630AA804F00DFA06A804F00AFAD1
:106A280012B070BD60AD07107EF73F027DF33F02E4
:106A380085F33F028DF33F022DE9FF4104462546C9
:106A480090461F46324B0E4640F8043B1E2103F089
:106A580037F9304B304945F8283B284604F035FAD9
:106A6800404604F0FEFB0146284604F06BFA002578
:106A78000121072084F82010C4E91155E56405F0C8
:106A8800BDFB2946072005F0CAFB24492448FFF727
:106A9800FBFB3168602084F860500391FFF7F7F939
:106AA800064630B140F25B721E4B0399009501F027
:106AB8002FFB20466662FFF771FF47B103F000FA2B
:106AC800214603F0F1FB18491548FFF7DDFB0023C9
:106AD800CDE9003315481A461549006802F050FB05
:106AE80005F0E5F8B438E06305F0E1F8206505F055
:106AF800DEF8606505F0DBF8A06505F0D8F8E0651C
:106B080005F0D5F82064204604B0BDE8F08100BF48
:106B1800B0F23F0208F63F0295F83F0290F33F02B9
:106B28001CAE0710896E3F02A3F33F0260AD071049
:106B3800D56D3F0208B507490748FFF71EFF01F06A
:106B480011F9C82002F0CEFC044B1868BDE80840D3
:106B580004F00ABCBAF33F021CAE071070AD071070
:106B680010B5044605F0A3F8236C3C3398421BDDAE
:106B780005F09DF820641E48FFF7FAFE90B3606A9E
:106B880001F0A0FB28B394F8603073B919491A488A
:106B9800FFF77AFB05F08BF81849A063606A01F0EB
:106BA8008CFE012384F8603010BD05F080F8A36BDB
:106BB80003F596739842F7DD11490F48FFF756FB26
:106BC8004FF47A7002F08EFC2046BDE81040FFF7C3
:106BD800B1BF09480B49FFF757FB2046BDE81040F5
:106BE800FFF7DCBE08490448FFF74EFBDCE700BFAF
:106BF800D0AE0710C7F33F021CAE0710E6F33F0202
:106C0800E8F33F02F6F33F0213F43F022DE9F041A7
:106C1800074688B0406A0E461546984601F052FB72
:106C280098B11548FFF7A4FE044670B100232A68FE
:106C3800CDE901833168AB68786ACDF8008001F04E
:106C48009DFC204608B0BDE8F0810C4904A804F07A
:106C58003CF9314604A804F02FFA094904F038FA3F
:106C6800294604F029FA01680648FFF786FE04A8B9
:106C780004F0E0F80024E4E7D0AE071022F43F0265
:106C880045F43F021CAE071010B5044692B005F05B
:106C98000EF8E36BB433984232DD05F008F8E06390
:106CA80005F005F8174B024617490093C31702A8C9
:106CB80004F09EFF15490AA804F053F914490AA8DC
:106CC80004F006FA04F1280104F0F6F9014606A8D2
:106CD80004F047F902A90EA804F043F900230EAA0C
:106CE80006A92046FFF792FF0EA804F0A3F806A80D
:106CF80004F0A0F80AA804F09DF802A804F09AF895
:106D080012B010BD48F43F0270AE071060AD071016
:106D180051F43F02F0B50F4616468DB004461549AA
:106D280068461D4604F01DF96846134904F0D0F979
:106D3800394604F0C1F9114904F0CAF9314604F0A2
:106D4800BBF9014604A804F00CF9294608A804F088
:106D580008F9002308AA04A92046FFF757FF08A846
:106D680004F068F804A804F065F8684604F062F8CE
:106D78000DB0F0BD60AD071059F43F027EF73F0239
:106D880038B50C4605461949204604F0D8F930BBF9
:106D98002046174904F0D3F918BB2046154904F0DA
:106DA800CEF918B1282385F8203017E0204612497B
:106DB80004F0C5F90028F5D12046104904F0BFF9C0
:106DC80088B920460E4904F0BAF908B10123EAE768
:106DD80020460C4904F0B3F90028F7D138BD462302
:106DE800E1E73223DFE71E23DDE700BF5FF43F0260
:106DF80064F43F026AF43F026FF43F0277F43F0203
:106E08007CF43F0282F43F022DE9F0412DED028B24
:106E18000446884615460026B24FAAB016AB981904
:106E28003946103604F051F8502EF7D100262F219C
:106E3800404604F0E9F93246071E1ADD3B46414652
:106E480012A804F0E5F916AB03EB061012A904F03A
:106E580093F812A803F0EEFF7A1C2F214046019206
:106E680004F0C4F90136042E0746019A01D000281F
:106E7800E3E7414612A804F0EDF916AB12A903EBBB
:106E8800061004F079F812A803F0D4FF964916A862
:106E980004F055F900284BD1944916A8013604F09E
:106EA8004EF988B1012E11D091491AA804F047F97A
:106EB80000283AD18F491AA804F041F9002844D093
:106EC80004F0F5FE606533E0012E48D18A4916A822
:106ED80004F035F9002840F08380884916A804F0AA
:106EE8002EF9002800F02981012E04F1280740F02E
:106EF8001581394612A804F034F8814912A804F023
:106F0800E7F8294604F0D8F801687E48FFF735FD10
:106F180012A803F08FFF294612A804F022F8204691
:106F280012A9FFF72DFF12A857E004F0C0FE206554
:106F3800042416AB03EB041003F07CFF013CF8D2E9
:106F48002AB0BDEC028BBDE8F0816F491AA804F0A5
:106F5800F6F80028ECD004F0AAFEA065E8E76B4933
:106F68001AA804F0ECF8002800F05E82284604F025
:106F7800AFF916A9074606A803F0F3FF06A912A859
:106F880003F0EFFF12A800F013FF064612A803F063
:106F980051FF0EB3002F1FDD336839465B6A304658
:106FA800984706A90AA803F0DCFF58490EA803F081
:106FB8008CFF294612A803F0D4FF12AB0EAA0AA927
:106FC8002046FFF7A7FE12A803F034FF0EA803F02F
:106FD80031FF0AA803F02EFF06A803F02BFFA7E74E
:106FE8002C21284604F010F9041EA1DB631E0022A0
:106FF800294602A804F00CF9621C294606A804F0E8
:1070080029F902A804F06AF906A8B0EE408A04F04B
:1070180065F93F490EA8F0EE408A03F056FFB0EE3E
:10702800480A06210AA803F0EDFF0AA90EA804F0F1
:1070380043F8384904F04CF80446B0EE680A0621D3
:1070480012A803F0DFFF12A9204604F035F8016802
:107058002C48FFF719F912A803F0ECFE0AA803F070
:10706800E9FE0EA803F0E6FEB5EE408AF1EE10FA4E
:1070780033D0F5EE408AF1EE10FA2ED026490EA84C
:1070880003F023FFB0EE480A06210AA803F0BAFF6E
:107098000AA90EA804F010F81E4904F019F80446CD
:1070A800B0EE680A062112A803F0ACFF12A9204628
:1070B80004F002F801681348FFF7F4F812A803F087
:1070C800B9FE0AA803F0B6FE0EA803F0B3FEF0EE70
:1070D800680AB0EE480AFFF755FA06A803F0AAFEB8
:1070E80002A87AE795F83F0286F43F028AF43F0245
:1070F80090F43F029BF43F02BAF43F02EDF43F02E2
:10710800F6F43F021CAE0710A5F43F02AFF43F02AD
:10711800CCF43F02D8F43F02DAF43F0239461AA809
:1071280004F000F800287FF4E4AEAA491AA804F095
:1071380006F800287FF4DDAEFAE6A74916A803F0A2
:10714800FEFF08B328342146284603F0EBFFA0B120
:10715800214612A803F005FFA04912A803F0B8FFC2
:107168000168019104F007F9019902469C48FFF76C
:107178008BF812A803F05EFEDAE62846954903F07C
:10718800DEFF0028E4D1D3E6964916A803F0D7FF1E
:10719800F0B128342146284603F0C4FF88B12146BF
:1071A80012A803F0DEFE904912A803F091FF0168CF
:1071B8008B48FFF769F812A803F03CFE00F0DEFEEA
:1071C800B6E62846834903F0BAFF0028E7D1AFE6C0
:1071D800864916A803F0B3FF10B328342146284681
:1071E80003F0A0FFA8B1214612A803F0BAFE804917
:1071F80012A803F06DFF01687948FFF745F812A857
:1072080003F018FE00F0AEFD7A4B186804F0ACF8F5
:107218008EE628466F4903F092FF0028E3D187E6FF
:10722800012E57D1744916A803F089FF0746002894
:1072380040F0A280714916A803F081FF00283FF4AE
:1072480077AE2834214612A803F08BFE6C4912A8A9
:1072580003F03EFF294603F02FFF01686048FFF75F
:1072680013F812A803F0E6FD3946284603F0BCFFE0
:107278002D2840F0A5802946012212A803F0EAFF34
:1072880012A804F025F8454212A803F0D3FD002DFA
:1072980000F09B8021460EA803F063FE59490EA812
:1072A80003F016FF04460A22294612A803F08FFEAF
:1072B80012A9204603F000FF01684948FEF7E4FFE1
:1072C80012A803F0B7FD0EA803F0B4FD2846FFF797
:1072D8005BF92DE64C491AA803F031FF0028A1D02C
:1072E80016A912A803F03DFE12A800F061FD06469B
:1072F80012A803F09FFD002E3FF41AAE284603F0B3
:10730800E7FF42490746284603F019FF80B9284697
:107318003F4903F014FF58B928463E4903F00FFFD0
:1073280020B928463C4903F00AFF30B1002704E0A1
:10733800336830461B6A98470746336839469B6965
:107348003046984716A90AA803F00BFE2E490EA846
:1073580003F0BBFD294612A803F003FE12AB0EAAE8
:107368000AA92046FFF7D6FC12A803F063FD0EA871
:1073780003F060FD0AA830E6012E3FF4D9AD2834A9
:1073880021461AA803F0CEFE98B12846234903F0F7
:10739800D6FE00283FF4CCAD214612A803F0E1FD4B
:1073A8001F4912A803F094FE01680D48FEF76CFF10
:1073B800DFE608491AA803F0C2FE0028E5D1B7E5C0
:1073C800284603F085FF054661E716490448FEF79D
:1073D8004DFFADE582F43F020BF53F0212F53F0287
:1073E8001CAE071025F53F022BF53F024CF53F0276
:1073F80052F53F0270AD07106AF53F02CEF53F0225
:1074080097F53F02AEF53F024EF53F0276F73F0291
:107418006FF53F0274F53F0278F53F027EF53F02B3
:1074280083F53F02C6F53F0219491AA803F087FE03
:1074380000283FF44BAD16A912A803F092FD12A83C
:1074480000F0B6FC064612A803F0F4FC002E3FF448
:107458006FAD04F1280112A803F083FD0D4912A8AD
:1074680003F036FE16A903F027FE01680A48FEF766
:107478000BFF12A803F0DEFC336828460749DC69D5
:1074880003F05DFEB0FA80F130464909A0474FE5A8
:10749800D7F53F02C2F43F021CAE0710CAF43F0200
:1074A80070B58CB00D460446164604F000FC12492F
:1074B800A063284603F086FEE0B108222946684604
:1074C80003F0C8FE029B93B1694604A803F049FD86
:1074D800314608A803F045FD204608AA04A9FFF78D
:1074E80093FC08A803F0A6FC04A803F0A3FC6846D4
:1074F80003F0A0FC0CB070BD60AD071010B50C46D1
:107508002F21204605F0C4F900B1441C204610BDC7
:107518000B4610B5184613F8014B2CB1202C01D19D
:107528001946F7E7282CF5D1401A1060084610BD17
:1075380070B596B00446154604F0B9FB214B0246D7
:1075480000932149C31702A804F052FBE66C002EF1
:1075580032D101231D49E36406A803F0B6FC04F107
:10756800280106A803F0A8FD01460EA803F0F9FCBF
:1075780002A90AA803F0F5FC15490AA803F0A8FD1A
:10758800294603F099FD014612A803F0EAFC3346A8
:1075980012AA0EA92046FFF739FB12A803F04AFCED
:1075A8000AA803F047FC0EA803F044FC06A803F061
:1075B80041FCE36C013BE36402A803F03BFC16B01A
:1075C80070BD00BF48F43F0270AE0710DCF53F0203
:1075D80046F43F022DE9F0410546174688B00E46AD
:1075E80068464C4998460E9C03F06FFC95F820308D
:1075F800BB4205D9684603F01DFC08B0BDE8F08120
:107608002379D90726D5A1682846FFF777FF0146D1
:10761800684603F0B9FC6946684603F02BFD2379F8
:107628009A070FD53C49684603F028FD0A22E1680D
:1076380004A803F0CCFC684604A903F01BFD04A8C9
:1076480003F0F8FB237968465B074CBF334934499C
:1076580003F014FD2379580712D5002304AA2169E1
:1076680028460493FFF754FF0146684603F08CFC54
:107678006946684603F0FEFC68462A4903F0FEFCAA
:107688000021384601F0AAFC0146684603F0F6FCE2
:107698006846234903F0F2FC1EB13146684603F000
:1076A800EDFC237913F0300F27D01F49684603F00B
:1076B800E5FC2379D9060BD5A2691C4904A803F077
:1076C8001FFE684604A903F0D5FC04A803F0B2FB2A
:1076D80023799A060DD5DB0603D568460F4903F0D2
:1076E800CDFC1349684603F0C9FC6846E16903F01C
:1076F800C5FC5D21684603F0D2FC694604A803F086
:1077080030FC2846414604AAFFF712FF04A803F0FC
:1077180091FB6FE795F83F02E1F53F0245F43F0220
:10772800E5F53F02E3F53F02E8F53F02EBF53F02DE
:10773800F5F53F0210B5044601F04EF9636CFA33D3
:1077480083422AD801F048F9A36C606401331348D6
:10775800A364FFF70DF950B9A36C23F00202012AC4
:1077680012D10121BDE81040072004F058BD204681
:10777800FFF711F90028EFD094F86020A36C52B9F4
:1077880023F00202012A00E0052BEAD00021082B91
:10779800C8BFA164E6E7012BF7E710BDD0AE07101C
:1077A80010B50446406A00F040FF2046FFF7D8F9BC
:1077B8002046FFF769FA2046BDE81040FFF7BABF38
:1077C800012208B50B4B0C491A600C4803F07DFBED
:1077D8000B490C4803F079FB0B490C4803F075FB87
:1077E8000B490C4803F071FBBDE808400A490B48F7
:1077F80003F06BBB70AD071054F33F0294AD071054
:107808005CF33F02A4AD071066F33F0284AD071096
:107818006DF33F0260AD071075F33F0274AD0710BA
:10782800704780697047406B704710B504461C313B
:1078380003F097FB204610BD10B50446083103F04D
:1078480090FB204610BD10B5044691F8301003F0A7
:10785800ADFB204610BD7047704770478369C26A08
:1078680093420CBF4FF0FF33C3621846704770470E
:1078780070470000F0B58DB005462449684603F00E
:1078880024FB234B234E1C68234F64B394F8301019
:10789800582926D004A803F089FB04A908A803F0F6
:1078A80060FB314608A803F013FC0146684603F064
:1078B800E1FB08A803F0BEFA04A803F0BBFA04F140
:1078C800080108A803F04DFB08A9684603F0D2FB9D
:1078D80008A803F0AFFA63681BB13946684603F09D
:1078E800CDFB6468D1E7029BB3F5806F09D32846C6
:1078F8000A4903F0EAFA684603F09CFA28460DB0F4
:10790800F0BD6946284603F012FBF4E795F83F02FC
:107918005CAD0710E1F53F02D8F43F0218F63F02CC
:107928008269416312B103689B6918477047000078
:1079380030B5144685B0034668460D469847029808
:10794800206001F019FD286050B12268009904F008
:10795800FBFE0024684603F06DFA204605B030BDF2
:10796800004CF7E7FCFEFFFF1FB50023CDE901330C
:107978000C23ADF80430044B0422039301AB01F04F
:10798800C7FB05B05DF804FBB1833F022DE9F04168
:107998008CB0054604F08BF9C317024604A804F01E
:1079A80081F804A908A803F0DCFA374908A803F00D
:1079B8008FFB0146684603F0D4FA08A803F03AFAA8
:1079C80004A803F037FA314B314E1C68314FDFF809
:1079D800CC80002C43D094F8301058293DD004A80E
:1079E80003F0E4FA04A908A803F0BBFA314608A892
:1079F80003F06EFB0146684603F03CFB08A803F061
:107A080019FA04A803F016FA04F1080108A803F00B
:107A1800A8FA08A9684603F02DFB08A803F00AFA9B
:107A2800394608A803F051FA0A22A16904A803F00C
:107A3800CEFA04A908A803F03FFB0146684603F004
:107A480019FB04A803F0F6F908A803F0F3F9636832
:107A58001BB14146684603F011FB6468B9E7029B15
:107A6800B3F5806F0AD328460B4903F02EFA68460F
:107A780003F0E0F928460CB0BDE8F08169462846D5
:107A880003F055FAF3E700BFE5F53F025CAD0710D8
:107A9800E1F53F0257F63F0259F63F02D8F43F029C
:107AA80070B504468CB00D466846194903F00DFAC6
:107AB80004F10801684603F0FFFA164903F008FBD1
:107AC80006460A22294604A803F081FA04A930468A
:107AD80003F0F2FA104903F0FBFA06460A22A169FC
:107AE80008A803F074FA08A9304603F0E5FA01681B
:107AF8000A48FEF7C9FB08A803F09CF904A803F09C
:107B080099F9684603F096F9A5610CB070BD00BFFD
:107B180097F63F029FF63F02AAF63F021CAE0710F7
:107B2800F0B52C219DB0044603F06EFB051E13DC56
:107B3800314909A803F0C9F9214609A803F0BCFA9C
:107B480001682E48FEF792FB09A803F073F94FF07D
:107B5800FF3420461DB0F0BD2B460022214601A867
:107B680003F056FB6A1C214605A803F073FB244961
:107B780009A803F0AAF901A909A803F09DFA214967
:107B880003F0A6FA05A903F097FA01681B48FEF767
:107B98007BFB09A803F04EF9019F059D47B33846C2
:107BA800FEF738F906462DB32846FEF733F90446A2
:107BB800382200210DEB020004F0EDFD4C23CDE945
:107BC800093703238DF8383000230F48194609AACE
:107BD80040680D94CDE90B6501F06CFBB0FA80F4B8
:107BE80005A803F027F901A8640903F023F9B0E711
:107BF8003E46D8E72C46DBE7B1F63F021CAE07103D
:107C0800CAF63F0245F43F02D0AE0710F0B5254949
:107C180089B0044603F059F9234B244E1D68244FBC
:107C280075B395F83030582B28D105F1080104A810
:107C380003F097F904A9204603F01CFA04A803F0FE
:107C4800F9F8314604A803F040F90A22A969684600
:107C580003F0BDF9694604A803F02EFA0146204650
:107C680003F008FA684603F0E5F804A803F0E2F820
:107C78006B681BB13946204603F000FA6D68CFE700
:107C8800A368B3F5806F03D30A490B48FEF7EEFAF1
:107C9800A3681BB909490848FEF7F6FA204609B057
:107CA800F0BD00BF95F83F025CAD071057F63F02E4
:107CB800D8F43F02E2F63F021CAE071023F73F025A
:107CC800F8B50026044617461D46094B4660036072
:107CD800083003F046F93946A66104F11C0003F0A8
:107CE80040F964232046E66284F830506363F8BDA7
:107CF80088F73F0230B5044689B0164904A803F056
:107D0800E4F8236821469B6868469847694604A8B2
:107D180003F0D2F901681048FEF7B6FA0F4D68462D
:107D280003F088F804A803F085F82B685BB90C49C0
:107D38000948FEF7A9FA2C60204623681B6809B099
:107D4800BDE8304018471A465B68002BFBD15460E9
:107D5800F2E700BF36F73F021CAE07105CAD071014
:107D680047F73F0210B5054B1C682CB12368204625
:107D78005B6898476468F8E710BD00BF5CAD071002
:107D880010B5054B1C682CB1236820461B6B98471F
:107D98006468F8E710BD00BF5CAD07100020034B16
:107DA8001B6813B15B680130FBE770475CAD0710D7
:107DB800F0B5064600250E4B85B01C68FFF7EEFFB0
:107DC800A84211DD8CB12368214668469B68984714
:107DD8003146684603F0C5F90746684603F02AF8B5
:107DE8001FB964680135E9E70024204605B0F0BDF5
:107DF8005CAD071038B52DED028B0025B0EE408A3A
:107E0800F0EE608A0A4B1C68FFF7C8FFA8420BDD3A
:107E180054B123682046F0EE680AB0EE480ADB6ADF
:107E2800984701356468EFE7BDEC028B38BD00BFA9
:107E38005CAD0710F0B505460E46104B89B01C68BE
:107E4800CCB194F83030572B13D1236829466846B3
:107E58005F6B03F086F8314604A803F082F86946A0
:107E6800204604AAB84704A802F0E4FF684602F0D6
:107E7800E1FF6468E4E709B0F0BD00BF5CAD07103E
:107E88001FB5314C31492068FFF76EFD88B930497C
:107E9800684603F01AF82146684603F00DF92D49A3
:107EA80003F016F901682C48FEF7E0F9684602F07D
:107EB800C1FF2A4C2A492068FFF756FD88B9244992
:107EC800684603F002F82146684603F0F5F82149B0
:107ED80003F0FEF801682048FEF7C8F9684602F08A
:107EE800A9FF204C20492068FFF73EFD88B91849B2
:107EF800684602F0EAFF2146684603F0DDF81549B6
:107F080003F0E6F801681448FEF7B0F9684602F095
:107F180091FF164C16492268164801F041FB88B9B2
:107F28000B49684602F0D1FF2146684603F0C4F8C1
:107F3800114903F0CDF801680748FEF797F968463C
:107F480002F078FF04B010BDE4AD0710F5823F02DF
:107F580056F73F024DF63F021CAE0710F4AD07106E
:107F68008D863F02D4AD07100D843F02C4AD0710C3
:107F7800A1853F02F59F3F026FF73F02F0B5294BFD
:107F8800294F1C68294E99B0002C48D0394604A8BE
:107F980002F09BFF23682146DB68684698476946DC
:107FA80004A803F089F8314603F092F805462368DF
:107FB80021461B6908A89847284608A903F07CF8B9
:107FC800314603F085F80546236821469B680CA8CE
:107FD80098470CA9284603F06FF8014614A802F048
:107FE800C0FFA1690A2210A802F0F1FF002210A91F
:107FF80014A8FEF795FA10A802F01CFF14A802F0C6
:1080080019FF0CA802F016FF08A802F013FF684633
:1080180002F010FF04A802F00DFF6468B4E719B07D
:10802800F0BD00BF5CAD071079F73F027EF73F0255
:1080380008B50B490B4802F048FF0B490B4802F002
:1080480044FF0B490B4802F040FF0B490B4802F074
:108058003CFFBDE808400A490A4802F036BF00BFA5
:1080680054F33F02E4AD07105CF33F02F4AD071090
:1080780066F33F02D4AD07106DF33F02B4AD0710AD
:1080880075F33F02C4AD071091F85C3010B5044693
:10809800016013B1886D00F021FC204610BD10B5B9
:1080A8000368044693F85C2012B1986D00F024FC34
:1080B800204610BDF8B51F469DF8243004460D46ED
:1080C800164623B101235830037100F0F9FB089BD1
:1080D80023630023636306B1A66425B1294604F12E
:1080E800380002F051FF069BE0692365079BA4F85E
:1080F8004C70FF2BB8BFFF23A4F8543008B1FDF72C
:10810800CAFEB4F85400FDF7C4FEE061F8BD0000F3
:108118002DE9FF4104460025984617460E4603F010
:1081280029FC0D49E56104F1380002F0CEFE9DF806
:108138002830FF22CDE902830F232046CDE9003203
:1081480031463B462A46A56484F85C50FFF7B2FFE7
:10815800204604B0BDE8F08195F83F0210B504460A
:10816800204603F063FB0028FAD0204603F048F9C4
:10817800C0B210BD2DE9F0474FF001090546884609
:10818800FFF7ECFF00274C46EB691870EB6993F892
:1081980000A00AF0F00A2846FFF7E0FF2646EB6940
:1081A8000134985500F07F0313FB09F31F440306BD
:1081B800A4B2BFB24FEAC919EDD4631EBAF1300FA9
:1081C80088F800301ED12846FFF7C8FFEB6918551C
:1081D8002846FFF7C3FFF41CEB690236B6B2985580
:1081E8000226A4B2B6B2BE420ED22846FFF7B6FFA8
:1081F800B5F854300136A34284BFEB6918550134F1
:10820800A4B2EFE70026EDE7B5F85430A3422CBF3F
:1082180020460020BDE8F0872DE9F34115461E46AB
:108228001A4607460023964602F07F0CBEF17F0FE0
:1082380002A888BF4CF0800C5C1CBEF17F0F034481
:108248004FEAD212E4B203F804CC1ED8C4F10403F6
:10825800C4F10500E954224601A9284405EB0308A6
:1082680004F072FA721C22444146384603F0B3F80F
:10827800054600F0B1FB621C78623244A8B2131ABA
:108288005842584102B0BDE8F0812346CBE702339B
:10829800F0B5054698B20023CE5C9CB24EB1B5F855
:1082A80054C05F1C844504D9441C16543B46A0B2F4
:1082B800F2E799B2411A0A44210A02F8021C02F8AC
:1082C800013CF0BD38B5044603F0D2F9002814BFCC
:1082D8000125002502D1204603F002FB284638BDBF
:1082E8002DE9F04788B00446894617461E46DDF852
:1082F80040809DF850A0FFF7E5FF0546002840F0B4
:10830800CD80214601A8FFF7BFFEA16C002940F0EF
:1083180088802B462046B4F84C20A16B03F02AF93C
:1083280000287AD0012323849DF85430E269042B75
:108338005B4B40F08180186899889B79ADF80C10E8
:108348008DF80E300290C2F805009DF80E30BDF889
:108358000C10D3720C23A2F80910B8F1000F00F02A
:1083680081809DF848009DF84420400140EAC20001
:1083780040F00600C0B2BAF1000F01D100F0FD00D4
:108388001FB1002E70D140F08000E269D054226DF8
:10839800E169581C12120A54E169206D9A1C88542C
:1083A800033349462046E269FFF771FF0346B8F1F7
:1083B800000F0BD04146E2692046FFF768FFE269EB
:1083C800034613992046FFF762FF034667B1394613
:1083D8002046E269FFF75BFF03462EB1314620468F
:1083E800E269FFF754FF0346053B1021E2699BB29F
:1083F8002046FFF711FF00F0EFFA4FF47A76C4E950
:108408000900204603F012FA88BB00F0E5FAA36AD7
:10841800C01A236D73439842F3D9204603F060FADB
:1084280035E002A801F0D4F92B462046B4F84C20D8
:1084380002A903F07FF973E7D3F80700D3F80B100C
:108448000DF1080CACE80300DB7B8CF8003002ABC4
:1084580003CBC2F80500C2F809109CF8003053732A
:108468000E237AE7022086E740F0C0008DE7204619
:1084780002A9FFF77FFE0428CFD1E369DE78002E3A
:10848800CBD100F0A9FA0125A06284F82C6001A8DC
:10849800FFF705FE284608B0BDE8F0870025F9E794
:1084A8004CF23F022DE9F74FDDF83C8004468B463D
:1084B80016461F469DF834509DF83890FFF702FF86
:1084C8008246002851D0214601A8FFF7DDFD002192
:1084D800B4F85420E06904F05EF9052359462046B3
:1084E800E269FFF7D4FE6B1E012B15D8218CE369D6
:1084F800013189B22184090A1954421CE369218C8B
:1085080092B2023080B29954B8F1000F04D0238C93
:108518005A1C2284A8F8003000210B188F42E26907
:108528009BB20AD9B4F854C09C4506D916F801C0C4
:10853800013102F803C089B2EFE79DF83010002935
:108548000CBF30213121B9F1000F01D041F00801F1
:10855800022D0ED141F00401053B20469BB2FFF7E6
:108568005BFE824601A8FFF79AFD504603B0BDE8BE
:10857800F08F012D08BF41F00201EDE71FB5089CFF
:108588000394002402949DF81C4001949DF818401F
:108598000094FFF787FF04B010BD73B504460E467C
:1085A800FFF790FE0546C8B1214601A8FFF76CFD0C
:1085B8006222E36920461A700222E3695A70E3696D
:1085C800320A9A70E3690422DE70E16902F003FF5F
:1085D800051E01A818BF0125FFF761FD284602B056
:1085E80070BD73B504460E46FFF76CFE0546C8B16C
:1085F800214601A8FFF748FD7222E36920461A7058
:108608000222E3695A70E369320A9A70E369042224
:10861800DE70E16902F0DFFE051E01A818BF012522
:10862800FFF73DFD284602B070BD2DE9F04F2DED56
:10863800028B87B000AF0446FFF744FE8146F8B1CD
:10864800214607F11400FFF71FFD00F0C5F94FF4AC
:108658007A72236D06465343A26A821A9A4203D855
:10866800626A821A934221D294F82C307BB1204658
:1086780003F036F94FF0000907F11400FFF70FFD7A
:1086880048461C37BD46BDEC028BBDE8F08FC021C3
:10869800E26920461170E2695370E169022202F032
:1086A8009AFE0123C4E9096684F82C30204603F0B9
:1086B800BDF80028E0D0204607F11301FFF75AFD66
:1086C80083460028D8D0E369A662197801F0F00241
:1086D800302A7FD1D4F830A0BAF1000FCCD06A4646
:1086E80097F813C008EE102A03EB0C02517895781E
:1086F80005EB01256946ADB205F10802D208A1EBE8
:10870800C202954668460CF10302FA6003EB020EBA
:108718000DEB0502C7F808D07A60D7E901218A4233
:1087280006D00A461EF8018B02F8018BBA60F4E7FE
:108738000022425593F80080F96808F00608ABEB70
:108748000C02033AB8F1020FA2EB0502294425D125
:1087580013F801E0194491F801B00CF1050129441E
:10876800023A19440BEB0E2BD0474022E3691FFA5B
:108778008BFB1A70E36983F80180E3694FEA1B22D7
:108788009A70E369042283F803B02046E16902F095
:1087980022FE666218EE103A9D466DE7B8F1040FA6
:1087A80015D113F801E0194491F801B00CF1050155
:1087B8002944023A19440BEB0E2BD0475022E369A7
:1087C8001FFA8BFB1A700222E3695A70D5E7194425
:1087D800D047DFE7502A08D19A78D978204601EBAC
:1087E800022189B2FFF7D9FE46E7402A12D1626B0F
:1087F800002A3FF441AFBBF1040F7FF43DAF11F005
:10880800060F7FF439AF9978D87800EB012080B251
:10881800904731E7602A08D19A78D978204601EB49
:10882800022189B2FFF7DDFE26E7702ADFD0902A01
:108838003FF422AFC02A0AD1D0221A700022E3697D
:1088480020465A70E169022202F0C5FD14E7D02AD9
:1088580004BF002384F82C300EE7F7B504460F4612
:108868001646FFF72FFD054610B3214601A8FFF76E
:108878000BFC238C01339BB2EBB12384238CE2697C
:108888001B0A5371E369228C39469A71E2690723FE
:108898002046FFF7FCFCE36982211E54043883B2AA
:1088A800E2692046FFF7B8FC054601A8FFF7F7FB89
:1088B800284603B0F0BD0123DFE70022FFF7CDBF54
:1088C80009B504480068044B03441B681B6B0293FA
:1088D80009BD0000C8AA07103000000009B5044807
:1088E8000068044B03441B689B6B029309BD00009E
:1088F800C8AA07103000000009B504480068044BF6
:1089080003441B681B6C029309BD0000C8AA07102A
:108918003000000009B504480068044B03441B6894
:108928005B6C029309BD0000C8AA07103000000064
:1089380009B504480068044B03441B689B6C029308
:1089480009BD0000C8AA07103000000009B5044896
:108958000068044B03441B68DB6C029309BD0000EC
:10896800C8AA07103000000009B504480068044B85
:1089780003441B685B6D029309BD0000C8AA071079
:108988003000000009B504480068044B03441B6824
:108998005B6D029309BD0000C8AA07101C00000007
:1089A80009B504480068044B03441B685B680293DC
:1089B80009BD0000C8AA07100000000009B5044856
:1089C8000068044B03441B68DB68029309BD000080
:1089D800C8AA07100000000009B504480068044B45
:1089E80003441B685B69029309BD0000C8AA07100D
:1089F8000000000009B504480068044B03441B68E4
:108A08009B6A029309BD0000C8AA07100000000075
:108A180009B504480068044B03441B685B6C029367
:108A280009BD0000C8AA07100000000009B50448E5
:108A38000068044B03441B689B6C029309BD00004B
:108A4800C8AA07100000000009B504480068044BD4
:108A580003441B689B6D029309BD0000C8AA071058
:108A68000000000009B504480068044B03441B6873
:108A78005B6E029309BD0000C8AA07100000000041
:108A880009B504480068044B03441B689B680293BB
:108A980009BD0000C8AA07101400000009B5044861
:108AA8000068044B03441B68DB68029309BD00009F
:108AB800C8AA07101400000009B504480068044B50
:108AC80003441B681B69029309BD0000C8AA07106C
:108AD8001400000009B504480068044B03441B68EF
:108AE8001B6A029309BD0000C8AA07101000000005
:108AF80009B504480068044B03441B685B6A029389
:108B080009BD0000C8AA07101000000009B50448F4
:108B18000068044B03441B689B6A029309BD00006C
:108B2800C8AA07101000000009B504480068044BE3
:108B380003441B68DB6A029309BD0000C8AA07103A
:108B48001000000009B504480068044B03441B6882
:108B58001B6B029309BD0000C8AA07101000000093
:108B680009B504480068044B03441B685B6B029317
:108B780009BD0000C8AA07101000000009B5044884
:108B88000068044B03441B681B6C029309BD00007A
:108B9800C8AA07101000000009B504480068044B73
:108BA80003441B685B69029309BD0000C8AA07104B
:108BB8005400000009B504480068044B03441B68CE
:108BC8005B69029309BD0000C8AA07104C000000A9
:108BD80009B504480068044B03441B681B6A0293E8
:108BE80009BD0000C8AA07104C00000009B50448D8
:108BF8000068044B03441B689B6A029309BD00008C
:108C0800C8AA07104C00000009B504480068044BC6
:108C180003441B689B68029309BD0000C8AA07109B
:108C28005000000009B504480068044B03441B6861
:108C3800DB68029309BD0000C8AA071050000000B5
:108C480009B504480068044B03441B689B690293F8
:108C580009BD0000C8AA07102000000009B5044893
:108C68000068044B03441B68DB69029309BD0000DC
:108C7800C8AA07102000000009B504480068044B82
:108C880003441B681B6A029309BD0000C8AA0710A9
:108C98002000000009B504480068044B03441B6821
:108CA8009B6A029309BD0000C8AA071020000000B3
:108CB80009B504480068044B03441B681B6B029306
:108CC80009BD0000C8AA07102000000009B5044823
:108CD8000068044B03441B689B6B029309BD0000AA
:108CE800C8AA07102000000009B504480068044B12
:108CF80003441B68DB69029309BD0000C8AA07107A
:108D08001800000009B504480068044B03441B68B8
:108D18001B6A029309BD0000C8AA071018000000CA
:108D280009B504480068044B03441B689B68029318
:108D380009BD0000C8AA07102400000009B50448AE
:108D48000068044B03441B68DB68029309BD0000FC
:108D5800C8AA07102400000009B504480068044B9D
:108D680003441B681B69029309BD0000C8AA0710C9
:108D78002400000009B504480068044B03441B683C
:108D88005B69029309BD0000C8AA0710240000000F
:108D980009B504480068044B03441B689B690293A7
:108DA80009BD0000C8AA07102400000009B504483E
:108DB8000068044B03441B68DB69029309BD00008B
:108DC800C8AA07102400000009B504480068044B2D
:108DD80003441B681B6A029309BD0000C8AA071058
:108DE8002400000009B504480068044B03441B68CC
:108DF8009B6A029309BD0000C8AA0710240000005E
:108E080009B504480068044B03441B68DB6A0293F5
:108E180009BD0000C8AA07102400000009B50448CD
:108E28000068044B03441B681B6C029309BD0000D7
:108E3800C8AA07102400000009B504480068044BBC
:108E480003441B681B68029309BD0000C8AA0710E9
:108E58003400000009B504480068044B03441B684B
:108E68005B68029309BD0000C8AA0710340000001F
:108E780009B504480068044B03441B689B680293C7
:108E880009BD0000C8AA07103400000009B504484D
:108E98000068044B03441B681B69029309BD00006A
:108EA800C8AA07103400000009B504480068044B3C
:108EB80003441B685B69029309BD0000C8AA071038
:108EC8003400000009B504480068044B03441B68DB
:108ED8009B69029309BD0000C8AA0710340000006E
:108EE80009B504480068044B03441B68DB69029316
:108EF80009BD0000C8AA07103400000009B50448DD
:108F08000068044B03441B681B6A029309BD0000F8
:108F1800C8AA07103400000009B504480068044BCB
:108F280003441B681B68029309BD0000C8AA071008
:108F38006C00000009B504480068044B03441B6832
:108F48009B68029309BD0000C8AA07106C000000C6
:108F580009B504480068044B03441B681B69029365
:108F680009BD0000C8AA07106C00000009B5044834
:108F78000068044B03441B685B69029309BD000049
:108F8800C8AA07106C00000009B504480068044B23
:108F980003441B685B6B029309BD0000C8AA071055
:108FA8004800000009B504480068044B03441B68E6
:108FB8001B6D029309BD0000C8AA071048000000F5
:108FC80009B504480068044B03441B685B6D0293B1
:108FD80009BD0000C8AA07104800000009B50448E8
:108FE8000068044B03441B68DB6E029309BD000054
:108FF800C8AA07104800000009B504480068044BD7
:1090080003441B681B6F029309BD0000C8AA071020
:109018004800000009B504480068044B03441B6875
:109028001B68029309BD0000C8AA071008000000C9
:1090380009B504480068044B03441B685B68029345
:1090480009BD0000C8AA07100800000009B50448B7
:109058000068044B03441B685B69029309BD000068
:10906800C8AA07100800000009B504480068044BA6
:1090780003441B681B6A029309BD0000C8AA0710B5
:109088000800000009B504480068044B03441B6845
:10909800DB6A029309BD0000C8AA07100800000097
:1090A80009B504480068044B03441B689B6D029390
:1090B80009BD0000C8AA07100800000009B5044847
:1090C8000068044B03441B68D3F88830029309BD39
:1090D800C8AA07100800000009B504480068044B36
:1090E80003441B68D3F89430029309BDC8AA07103B
:1090F8000800000009B504480068044B03441B68D5
:10910800D3F8AC30029309BDC8AA071008000000C4
:1091180009B504480068044B03441B681B680293A4
:1091280009BD0000C8AA07102C00000009B50448B2
:109138000068044B03441B685B68029309BD000088
:10914800C8AA07102C00000009B504480068044BA1
:1091580003441B689B68029309BD0000C8AA071056
:109168002C00000009B504480068044B03441B6840
:109178005B69029309BD0000C8AA07102C00000013
:1091880009B504480068044B03441B685B6A0293F2
:1091980009BD0000C8AA07102C00000009B5044842
:1091A8000068044B03441B681B6B029309BD000055
:1091B800C8AA07102C00000009B504480068044B31
:1091C80003441B68DB6B029309BD0000C8AA0710A3
:1091D8002C00000009B504480068044B03441B68D0
:1091E8005B68029309BD0000C8AA071028000000A8
:1091F80009B504480068044B03441B689B68029344
:1092080009BD0000C8AA07102800000009B50448D5
:109218000068044B03441B68DB68029309BD000027
:10922800C8AA07102800000009B504480068044BC4
:1092380003441B681B69029309BD0000C8AA0710F4
:109248002800000009B504480068044B03441B6863
:109258005B69029309BD0000C8AA07102800000036
:1092680009B504480068044B03441B689B690293D2
:1092780009BD0000C8AA07102800000009B5044865
:109288000068044B03441B68DB69029309BD0000B6
:10929800C8AA07102800000009B504480068044B54
:1092A80003441B681B6A029309BD0000C8AA071083
:1092B8002800000009B504480068044B03441B68F3
:1092C8009B6A029309BD0000C8AA07102800000085
:1092D80009B504480068044B03441B681B6B0293E0
:1092E80009BD0000C8AA07102800000009B50448F5
:1092F8000068044B03441B685B6B029309BD0000C4
:10930800C8AA07102800000009B504480068044BE3
:1093180003441B681B6C029309BD0000C8AA071010
:109328002800000009B504480068044B03441B6882
:109338005B6C029309BD0000C8AA07102800000052
:1093480009B504480068044B03441B685B6D02932D
:1093580009BD0000C8AA07102800000009B5044884
:109368000068044B03441B689B6D029309BD000011
:10937800C8AA07102800000009B504480068044B73
:1093880003441B681B68029309BD0000C8AA0710A4
:109398000400000009B504480068044B03441B6836
:1093A8005B68029309BD0000C8AA0710040000000A
:1093B80009B504480068044B03441B689B68029382
:1093C80009BD0000C8AA07100400000009B5044838
:1093D8000068044B03441B681B69029309BD000025
:1093E800C8AA07100400000009B504480068044B27
:1093F80003441B68DB69029309BD0000C8AA071073
:109408000400000009B504480068044B03441B68C5
:109418005B6A029309BD0000C8AA07100400000097
:1094280009B504480068044B03441B68DB6A0293CF
:1094380009BD0000C8AA07100400000009B50448C7
:109448000068044B03441B681B6B029309BD0000B2
:10945800C8AA07100400000009B504480068044BB6
:1094680003441B68DB6B029309BD0000C8AA071000
:109478000400000009B504480068044B03441B6855
:109488001B6C029309BD0000C8AA07100400000065
:1094980009B504480068044B03441B685B6C0293DD
:1094A80009BD0000C8AA07100400000009B5044857
:1094B8000068044B03441B689B6C029309BD0000C1
:1094C800C8AA07100400000009B504480068044B46
:1094D80003441B68DB6C029309BD0000C8AA07108F
:1094E800040000000021FFF7B1BD38B50468054647
:1094F8007CB16368013B63605BB9236820469B6865
:109508009847A368013BA3601BB923682046DB6822
:109518009847284638BD10B543680446013B436068
:1095280063B903689B689847A368013BA3602BB99C
:1095380023682046BDE81040DB68184710BD70B5A9
:109548000446D0E9005305EB0316AE4204D0284682
:1095580001F070FC1035F8E72068FFF71BFF204684
:1095680070BD0000002302480360FFF7D3B900BFB5
:1095780004AE071010B588B00446684601F0A5FC93
:10958800694604A801F0EDFC04A8A047044604A815
:1095980001F050FC684601F04DFC204608B010BDB3
:1095A8001FB500231024CDE90201019269461A462D
:1095B8001846ADF80230ADF80040FFF7B7FD04B02B
:1095C80010BD002240681146FFF766BE00224068C1
:1095D8001146FFF78BBE00224068FFF779BE0022D4
:1095E800406881F00101FFF749BE002340681A4630
:1095F8001946FFF735BE002340681A461946FFF79B
:1096080021BE002240681146FFF70EBE00224068C6
:109618001146FFF7EDBD002202214068FFF7F6BDB5
:10962800002340681A46FFF7D5BD00000322024B0D
:109638005A60024A1A60704708AE0710D0F73F0216
:109648007047F8B5064615460C468F18BC4206D03A
:10965800336830469B6814F8011B9847F6E728469C
:10966800F8BD0022007CFFF735BA0021007CFFF727
:109678003FBA0021007CFFF749BA0021007CFFF7C0
:1096880053BA0021007CFFF75DBA10B504461421D7
:10969800FCF703FC204610BD38B5044615464FF4C8
:1096A8007A730022C4E90123094B08462174236018
:1096B8002946FFF763FABF3008D16B69DB0705D588
:1096C8006868FFF767FEE868FFF764FE204638BD64
:1096D80014F83F02704710B504461821FCF7DDFB6B
:1096E800204610BDF0B5037D0E46062B4FF0000452
:1096F8008DB000F1040712D000F1080515F8011D1E
:109708000A22304601F007FBAF42044419D0002C6E
:10971800F4D02E21304601F0FBFA0444EEE72F2363
:109728006A4639460A208DF80040FFF743FA684632
:10973800FCF770FB3368024669463046DB68984799
:10974800044620460DB0F0BD10B50446044B112266
:10975800002140F8043B03F01EF8204610BD00BF6E
:109768003CF83F020346074A10B543F8042B01F1C1
:10977800100251F8044B914243F8044BF9D10A788E
:109788001A7010BD3CF83F02037D042B04D14068D9
:10979800003818BF01207047062B07D143683BB932
:1097A80083682BB9C3681BB90069F1E700207047CB
:1097B8000120704710B59DF8084044EA032343EAA6
:1097C8000242042342EA01614160037510BD0000B2
:1097D80007B5064B0360CB7800938B784A780978F5
:1097E800FFF7E8FF03B05DF804FB00BF3CF83F0259
:1097F800012200F1100313F8101C1846012908D1A2
:1098080053F8041C02EB4102013A03F11003F2D1B0
:109818007047022904BF53F8041C5218F4E70EB429
:10982800F0B588B0102100AF07F1340555F8042BC6
:1098380004462B4678187A60FD60FFF7E3FD0F2891
:109848007A681AD900F1080323F007036E46ADEBD6
:10985800030D411C2B466846FD60FFF7D3FD021E31
:1098680004DD2368694620469B689847B54620373B
:10987800BD46BDE8F04003B070470028F7D0236824
:1098880002469B68204607F110019847EFE738B574
:109898000B68044603604D6843689D4208D015B1C3
:1098A8006B6801336B60606808B1FFF734FE656070
:1098B80038BD07B503688DF8071001229B680DF1C4
:1098C8000701984703B05DF804FB0B4611460022D8
:1098D80010B50446C0E9002283600BB9204610BDCC
:1098E800FFF7D5FFFAE78368EBB11A78032A1AD88D
:1098F800DFE802F00417021B0520704702685B6866
:109908005268D05C2D2812D0A0F13003092B0ED953
:1099180074280ED066280CD0A0F16E035842584126
:1099280070470620704700207047042070470320C6
:1099380070470220704710B50446FFF7D4FF02288D
:109948000ED0C31EDBB2012B14D82268A36850685E
:109958005B680A22BDE810400021184403F058BE95
:109968002268A36852685B68D05CA0F1740358420F
:10997800584110BD0020FCE738B500230446C0E973
:1099880000330E48C4E90203A9B10B78032B06D0B3
:109998008BB9136858684B68C35C6E2B07D0136883
:1099A8004D6858688B6828445B1BA060E3601146CB
:1099B8002046FFF76CFF204638BD00BF95F83F02F0
:1099C80038B500250B4604461146C0E90055C0E9E4
:1099D8000255C0E904554BB11A78012A06D103F1A2
:1099E8001002DB6882604361FFF751FF204638BDF3
:1099F80010B54369044663B18068013BE0601030EC
:109A0800A0602061636113B1FFF7F2FEA06001203E
:109A180000E0184610BD10B57D210446FFF749FF48
:109A280001232046237110BD08B50379012B02D00C
:109A3800022B04D008BD2C21FFF73BFFFAE73A219F
:109A4800FAE710B50446FFF7EFFF20467B21FFF742
:109A580030FF00232046237110BD000013B50446D3
:109A68000191FFF7E1FF23682046DB68019A03496B
:109A7800984701232046237102B010BD88F93F02A0
:109A880013B504460191FFF7CFFF23682046DB6832
:109A9800019A0349984701232046237102B010BD5B
:109AA80048F83F022DE9F0470D469046222104462A
:109AB8002F46FFF7FEFEDFF8A490A8444745BA46B4
:109AC8003DD017F8016B222E06D05C2E04D030460C
:109AD80002F02AFE0028F1D12368294620469B6817
:109AE800AAEB050298475C212046FFF7E2FE0D2EFF
:109AF8000AD8072E1CD9A6F10803052B18D8DFE8C9
:109B080003F00D0F11171315222E01D05C2E0FD163
:109B180031462046FFF7CDFE3D46CFE76221F8E704
:109B28007421F6E76E21F4E76621F2E77221F0E787
:109B38002368324649462046DB689847ECE7BD4231
:109B480005D02368294620469B687A1B984722211E
:109B58002046FFF7AEFEBDE8F08700BF4BF83F0296
:109B680013B50446CDE90021FFF75EFFDDE90021CA
:109B78002046FFF797FF02232046237102B010BD4D
:109B880013B50446CDE90021FFF74EFFDDE90021BA
:109B98002046FFF787FF01232046237102B010BD3E
:109BA80080680368DB6818477047084611B10B687E
:109BB8005B6818477047704770477047704738B5FB
:109BC80004460D4600682E2102F029FE2368C31AB8
:109BD8002B6023B1037803B1013023682060184655
:109BE80038BD10B504460C21FCF757F9204610BDC6
:109BF80010B504460421FCF750F9204610BD10B5F5
:109C080004460421FCF749F9204610BDFEF79EBE24
:109C180008B5FCF7F5F8B0FA80F0400908BD7047C0
:109C280010B50C4602F048F9844205D102F044F917
:109C3800BDE8104002F034B902F090FB844205D12F
:109C480002F08CFBBDE8104002F0CDB82CB12368BF
:109C58002046BDE810405B68184710BD0B680360DC
:109C68004B68436013B15A6801325A60704713B5A4
:109C7800044608460191FCF7CDF8024620460199B2
:109C880002B0BDE81040FFF77BBF13B50446084695
:109C98000191FCF7BFF80246204623680199DB686A
:109CA80002B0BDE81040184707B503688DF80710E3
:109CB8000122DB680DF10701984703B05DF804FB4A
:109CC80000220176C0E90022C0E90222C0E904228C
:109CD80070470A6810B502604A6842600022C0E90D
:109CE800022202618C688A608460CC68CA60C460A1
:109CF8000C690A61046110BD2DE9F74F4FF0140A91
:109D0800D0E90084174645460AFB04F40093174B34
:109D1800A4105C43002C21DD66100AFB06F005EB5D
:109D28000009B9F804B03A465F4528BF5A46285892
:109D3800019102F086FD00284FF0010301990BD133
:109D48005F4503D1009A13703446E3E7FCD9A61B9C
:109D580009F11405013EF7E7F9DBF5E7A5EB08057E
:109D68000248AD10684303B0BDE8F08FCDCCCCCC31
:109D78007FB50369057E019103B3F9B1002600F1AF
:109D88000C04039603A901A8FFF719FF0146A8B11F
:109D98000DF10B032046039A8DF80B60FFF7ACFF1B
:109DA8009DF80B3053B12368142404FB0034B4F934
:109DB80006300834002BA8BFDDB2E3E7284604B01C
:109DC80070BD0EB4F0B58CB000AF07F1440555F87E
:109DD800042B04462B46202107F110007A60FD6011
:109DE800FFF710FB1F287A681AD900F1080323F03F
:109DF80007036E46ADEB030D411C2B466846FD601C
:109E0800FFF700FB021E04DD236869462046DB6875
:109E18009847B5463037BD46BDE8F04003B07047B7
:109E28000028F7D023680246DB68204607F11001B6
:109E38009847EFE710B5084CD4E88F3FDB0709D403
:109E48002046FCF739F828B12046FCF73AF80348D1
:109E580002F05CFC024810BD14AE071037A63F02A2
:109E6800D0AA071010B5084CD4E88F3FDB0709D4F7
:109E78002046FCF721F828B12046FCF722F80348D1
:109E880002F044FC024810BD18AE07109FA63F021E
:109E9800D4AA071038B500250446C0E90055C0E922
:109EA80004558560856140F8245FFEF733FDFFF7B0
:109EB800C1FFE061FFF7D6FF25732062204638BD59
:109EC80010B50A4CD4E88F3FDB070CD42046FBF7CB
:109ED800F3FF40B10648FFF7DDFF2046FBF7F1FF2F
:109EE800044802F013FC024810BD00BF10AE071072
:109EF80020AE071091AE3F020023024A02490348F0
:109F0800FFF77AB879AC3F0205AC3F0285AB3F0258
:109F180000231A4619461846FFF76EB837B50446A7
:109F28008D686846FFF79AFE6A4629462046FFF77D
:109F380047FD01A8FFF7D9FA204603B030BD37B571
:109F48000446CD686846FFF789FE6A4629462046DA
:109F5800FFF712FD01A8FFF7C8FA204603B030BD8D
:109F680037B504460D696846FFF778FE6A46294604
:109F78002046FFF7AAFC01A8FFF7B7FA204603B06E
:109F880030BD000070B58AB00D46014604A8FFF741
:109F9800C5FF144E04A8FFF72BFDE8B1684604A9D5
:109FA800FFF7CDFF31460298FFF732FE044610B1A5
:109FB8002C1E18BF012401A8FFF797FA002CE9D03E
:109FC800684604A9FFF7CCFF6846FFF7B4FC286091
:109FD80001A8FFF78AFADDE705A8FFF786FA0AB0B5
:109FE80070BD00BF51F83F0237B50C4613492046F3
:109FF8001546FBF705FF50B901F05EFF4FF4165107
:10A0080001F04AFF03B0BDE8304001F055BF2046DB
:10A018000B49FBF7F5FE78B94FF4165301A928460A
:10A028000193FFF7AFFF02F099F9019901F0D8FE0B
:10A0380002F094F903B030BD0020FBE756F83F0268
:10A048005DF83F0270B51426D0E90053044606FBBC
:10A058000356AE4205D005F10800FFF7F3FF1435AB
:10A06800F7E72068FFF796F9204670BD10B504465B
:10A078000C30FFF7E7FF2046FFF761FA204610BDD6
:10A0880010B50446034B40F8043BFFF7EFFF2046AA
:10A0980010BD00BFB0F23F0210B50446FFF7F0FF55
:10A0A80020462421FBF7F9FE204610BD10B50446D2
:10A0B800024B0360FFF7E4FF204610BDE4F83F02BF
:10A0C80010B50446FFF7F2FF20462421FBF7E5FE12
:10A0D800204610BD0022C0E90022826010B50C683D
:10A0E8000A6004604C684A6044608C688A608460D6
:10A0F80010BD10B5044603681868FEF735FC204605
:10A1080010BD00002DE9F04F87B003931C4B80462B
:10A118005B688946C3F3080316466BB9FFF7D0FEA0
:10A12800044600F12403406A0593FFF76FFD237B83
:10A138002BB105A8FFF7DDFF07B0BDE8F08F0123BD
:10A148005FFA89F92373D4E9005305EB830AAA451A
:10A1580012D055F8047B3146381DFFF709FE8145BA
:10A16800F5D3039A3B680092D3F808B04A463346C1
:10A1780041463846D847EAE700232373D9E700BFAA
:10A1880000ED00E02DE9F74F9B461A4B80465B68CF
:10A198008946C3F3080316466BB9FFF791FE0446D8
:10A1A80000F12403406A0193FFF730FD237B2BB1B4
:10A1B80001A8FFF79EFF03B0BDE8F08F0123F6B2B8
:10A1C8002373D4E9005305EB830A55450ED055F89F
:10A1D800047B5946381DFFF7CBFD8642F5D33B6813
:10A1E8004A4641463846DB689847EEE70023237322
:10A1F800DEE700BF00ED00E02DE9F341164B054610
:10A208005B680F46C3F308031BBBFFF759FE044600
:10A2180000F12403406A0193FFF7F8FCD4E90063D6
:10A22800462406EB8308B04509D101A8FFF761FF72
:10A23800A542B4BF0020012002B0BDE8F08156F865
:10A24800040B39460430FFF793FD8442A8BF044647
:10A25800E9E70020F0E700BF00ED00E0F8B5D0E93D
:10A2680001539D4204460E460DDB6F1C002F00680B
:10A2780004DDB900FFF79CF818B9F8BDFFF78AF8B4
:10A2880000202060A7602768626807EB85019200BC
:10A29800A2EB8502081D02F064FA47F8256063689E
:10A2A800012001336360E8E737B5044600F1240371
:10A2B800406A01930D46FFF7A9FCD4E9003203EB8D
:10A2C8008202934219460AD009680433A942F8D198
:10A2D80001A8FFF70EFF0025284603B030BD294628
:10A2E8002046FFF7BBFF05460028F1D06368012B25
:10A2F80001D1FFF701FE01A8FFF7FBFEECE70B46D3
:10A3080070B50446D0E9000200EB820282420FD009
:10A3180001461D6851F8046BAE4207D1521A02F08B
:10A3280020FA01206368013B636070BD0846EDE7D1
:10A338000020FAE71FB5044600F12403406A0191A2
:10A348000393FFF763FC204601A9FFF7D8FF18B174
:10A3580063680BB9FFF7DCFD03A8FFF7CAFE04B07A
:10A3680010BD182370B50446D0E9045603FB065601
:10A37800AE4215D0204605F11001FFF7C0FF636813
:10A388000BB9FFF7C5FDE06929690368DB689847E1
:10A39800696919B1206A0368DB6898471835E7E7E7
:10A3A8001826D4E9045306FB0356AE4204D02846C7
:10A3B80000F040FD1835F8E70023636170BD73B500
:10A3C8000446FFF7A5FD04F12403606A0193FFF733
:10A3D8001DFC2046FFF7C5FF01A8FFF78AFE606A4B
:10A3E80008B1FEF7A5FAD4E90453182606FB03566C
:10A3F800AE4204D0284600F01DFD1835F8E7206964
:10A40800FEF7C8FF2068FEF7C5FF204602B070BD02
:10A418000148FFF7D4BF00BF20AE07108842F8B547
:10A4280004460D46164615D9904214D2A2F11406D8
:10A43800751AA1F114072C44B7421AD01CB1314641
:10A448002046FFF746FC06F10800FFF7FBFD143E27
:10A45800143CF1E70DD0B5420BD01CB1294620467B
:10A46800FFF737FC05F10800FFF7ECFD143514344D
:10A47800F1E7F8BD8842F8B504460D46164614D9EA
:10A48800904213D2A2F11006751AA1F110072C44BC
:10A49800B74218D01CB13146204600F048FD30467E
:10A4A80000F0C8FC103E103CF2E70CD0B5420AD0D0
:10A4B8001CB12946204600F03AFD284600F0BAFCB7
:10A4C80010351034F2E7F8BD70B50E1E054611DDE3
:10A4D8003001FEF751FF044658B1D5E9001201EBEF
:10A4E8000212FFF7C7FF2868FEF754FF01202C600F
:10A4F800AE6070BD0024F6E72DE9F04F90460023CA
:10A50800462295B00391D8F8041004469942C0E950
:10A518000033C0E90233C0E90433CDE908330276D9
:10A528000A9323DCD8E90057142303FB0757AF42EB
:10A538003BD029460BA800F0FAFC0BA90FA8099EEE
:10A5480000F0F5FCDDE9091399421BDA089B099A2A
:10A5580003EB0616314603EB021206F11000FFF773
:10A5680089FFEEB9099B0133099311E008A8FFF7A9
:10A57800ABFF0028D6D108A8FEF7E1FF204615B0AA
:10A58800BDE8F08F013108A8FFF79EFF0028DDD154
:10A598000FA800F04FFC0BA800F04CFC1435C6E7E0
:10A5A80030460FA900F0C3FCDCE700264FF0140981
:10A5B800CDE90B660D96DDE908239E427CDA33016E
:10A5C800D35806930BB90136F5E70023079309FB27
:10A5D80006F30BAD029307A906A8FFF7F0FA824627
:10A5E8000028F0D04FF0000301468DF817302846B8
:10A5F800079A0DF11703FFF77FFB9DF8177001907D
:10A60800002F4AD1BDF81C30CDE91177ADF84030A4
:10A618004FF6FF73CDF83CA0ADF842301397D5E95B
:10A628000132934217DB03F1010ABAF1000F30DD62
:10A6380009FB0AF0FEF7A0FE834660B3D5E90012D5
:10A6480009FB0212FFF7EAFE2868FEF7A3FEC5F829
:10A6580000B0C5F808A02B68019A09FB023A6A689D
:10A66800514609FB02320AF11400FFF7D7FEBAF18E
:10A67800000F03D050460FA9FFF72BFB6B6801337F
:10A688006B6011A8FFF7DEFC3FB10BA8FFF7DAFCFF
:10A6980071E7BB46D8E70127F3E7019B2D6809FB63
:10A6A8000355069B1B782BB9D8F80030029A13443F
:10A6B8001B7CEB8008358EE7216822606268636046
:10A6C800A36809920A9A0A93E368A2600B9A0B930B
:10A6D8002369E2600C9A0C93636922610D9A0D93C9
:10A6E800039B089162612376CFE70000F0B504462A
:10A6F8002646174687B00D4668461946FBF7A5FC5F
:10A708000B4B694646F8043B03A8FBF79EFC394609
:10A7180003AA3046FFF7F0FE03A8FBF755FC68468E
:10A72800FBF752FC2046034B2562236007B0F0BDBF
:10A73800B0F23F02CCF83F02F0B50F4685B038467C
:10A748001C4916461D460A9CFBF75AFBC0B9A4B122
:10A75800294601A8FFF7BEFC2420174901F08EFE08
:10A76800054630B101AB32462146FFF7BFFF134B18
:10A778002B6001A8FBF728FC2C46204605B0F0BD4D
:10A7880038460F49FBF73CFB90B9002CF5D0294619
:10A7980001A8FFF79FFC2420074901F06FFE05463A
:10A7A8000028E6D03246214601ABFFF79FFFE0E7DD
:10A7B8000024E2E765F83F02C4FA3F02E4F83F02EA
:10A7C80069F83F02014B024A1A6070471CAE071035
:10A7D8007AF83F022DE9F047089DD0F8209004460A
:10A7E8000E461746984601F067FB81454DD02B79F8
:10A7F800190704D520466A695449FFF7E2FAB8F107
:10A80800000F0DD05B212046FFF74EFA4146204647
:10A81800FFF73BFA236802222046DB684C49984739
:10A828002B79DA0724D5D5F808802F21404602F085
:10A838002FF808B100F1010841462046FFF725FA34
:10A848002B799B0708D53A212046FFF72DFA204699
:10A85800EA684049FFF7B5FA2A79236812F0040F2D
:10A8680020464FF00202DB6814BF3B493B4998473A
:10A878002B7958071DD529690B461A4613F8010B81
:10A8880060B1202808D11946F7E7354800F083F968
:10A898000028ACD0BDE8F0872828EED12368521AEA
:10A8A8002046DB689847236804222046DB682D4948
:10A8B800984700213846FEF791FB01462046FFF7EE
:10A8C800E4F9236802222046DB68244998471EB130
:10A8D80031462046FFF7D9F92B7913F0300F2CD0E9
:10A8E80023682149DB680222204698472B79D9063C
:10A8F8000AD52368072220461C49DB68984720466A
:10A90800AA691B49FFF75DFA2B799A0611D5DB0670
:10A9180005D5236802222046DB680F49984723683B
:10A92800204614490A22DB6898472046E969FFF760
:10A93800ACF95D212046FFF7B7F923682046BDE84A
:10A94800F0470222DB680C49184700BF7EF83F0237
:10A9580085F83F0288F93F0245F43F02E5F53F02DA
:10A9680048AE0710E3F53F02E8F53F0288F83F02DA
:10A9780090F83F02F5F53F0293F83F022DE9F041C8
:10A988000446076A0D46164601F096FA874207D034
:10A99800206A324603682946BDE8F041DB6818475B
:10A9A800034800F0F8F80028F2D0BDE8F08100BFB5
:10A9B80048AE07102DE9F04385B0D0F82090054641
:10A9C8000F4690461E460C9C01F076FA814505D14B
:10A9D800494800F0E0F8002840F08A804FF000096C
:10A9E8002B6A464A01A8019203938DF80890FFF755
:10A9F80028F849464046FEF7F1FA804640490122C8
:10AA080001A8FFF7ADF84146FFF731F93FB13D49DD
:10AA1800012201A8FFF7A4F83946FFF728F93EB14B
:10AA28003949012201A8FFF79BF83146FFF71FF9C2
:10AA38002379DF070ED5A6682F21304601F028FFBD
:10AA480000B1461C3149012201A8FFF789F83146B7
:10AA5800FFF70DF923799E0707D52D49022201A892
:10AA6800FFF77EF8E168FEF7F9FF2379580714D558
:10AA7800266933461F4613F8012B2AB1202A01D133
:10AA88001E46F7E7282AF5D10222224901A8FFF736
:10AA980067F83146BA1BFFF773F82379190707D50A
:10AAA8001D49012201A8FFF75BF86169FEF7E8FF7D
:10AAB8002379DA0608D5042218490DEB0200FFF7BE
:10AAC8004FF8A169FEF7CAFF23799B0607D51449F9
