:02000004085F93
:1050000000505F08FCFF5F0800000600200005015B
:085010000401E015000000009E
:105018001348144908B5884205D0134A824202D081
:10502800124B121A98471248124A0021124B121AB0
:10503800984712481249884205D0124A824202D043
:105048000A4B121A984710481049884205D0104A4E
:10505800824202D0054B121A9847014808BD00BF8A
:10506800C8AA07109CF55F08C0AC07102D0D1110D9
:10507800C0AC0710ECAF0710A10E1110085B3F027F
:10508800B0505F08105B3F02105B3F02B8505F08EA
:0C509800F4FF3F0219505F080000000008
:0850A400CC14E07901000000CA
:0850B0009C505F085CF23F0216
:1050B80081F0004102E000BF83F0004330B54FEAC1
:1050C80041044FEA430594EA050F08BF90EA020F2E
:1050D8001FBF54EA000C55EA020C7FEA645C7FEAC1
:1050E800655C00F0E2804FEA5454D4EB5555B8BFE4
:1050F8006D420CDD2C4480EA020281EA030382EA55
:10510800000083EA010180EA020281EA0303362DE6
:1051180088BF30BD11F0004F4FEA01314FF4801CB9
:105128004CEA113102D0404261EB410113F0004FCB
:105138004FEA03334CEA133302D0524263EB430382
:1051480094EA050F00F0A780A4F10104D5F1200E20
:105158000DDB02FA0EFC22FA05F2801841F100017B
:1051680003FA0EF2801843FA05F359410EE0A5F14F
:1051780020050EF1200E012A03FA0EFC28BF4CF080
:10518800020C43FA05F3C01851EBE37101F0004536
:1051980007D54FF0000EDCF1000C7EEB00006EEB43
:1051A8000101B1F5801F1BD3B1F5001F0CD34908CD
:1051B8005FEA30004FEA3C0C04F101044FEA445224
:1051C80012F5800F80F09A80BCF1004F08BF5FEAAB
:1051D800500C50F1000041EB045141EA050130BD8B
:1051E8005FEA4C0C404141EB0101013C28BFB1F59D
:1051F800801FE9D291F0000F04BF01460020B1FAE8
:1052080081F308BF2033A3F10B03B3F120020CDABA
:105218000C3208DD02F1140CC2F10C0201FA0CF098
:1052280021FA02F10CE002F11402D8BFC2F1200CFD
:1052380001FA02F120FA0CFCDCBF41EA0C019040B3
:10524800E41AA2BF01EB0451294330BD6FEA0404FC
:105258001F3C1CDA0C340EDC04F11404C4F12002E7
:1052680020FA04F001FA02F340EA030021FA04F3F9
:1052780045EA030130BDC4F10C04C4F1200220FA50
:1052880002F001FA04F340EA0300294630BD21FA8E
:1052980004F0294630BD94F0000F83F4801306BF54
:1052A80081F480110134013D4EE77FEA645C18BF48
:1052B8007FEA655C29D094EA050F08BF90EA020FDF
:1052C80005D054EA000C04BF1946104630BD91EAD7
:1052D800030F1EBF0021002030BD5FEA545C05D1DA
:1052E8004000494128BF41F0004130BD14F5800419
:1052F8003CBF01F5801130BD01F0004545F0FE418D
:1053080041F470014FF0000030BD7FEA645C1ABFC1
:10531800194610467FEA655C1CBF0B46024650EAF8
:10532800013406BF52EA033591EA030F41F4002124
:1053380030BD00BF90F0000F04BF0021704730B5AA
:105348004FF4806404F132044FF000054FF000017F
:1053580050E700BF90F0000F04BF0021704730B540
:105368004FF4806404F1320410F0004548BF404215
:105378004FF000013EE700BF42004FEAE2014FEA6A
:1053880031014FEA02701FBF12F07F4393F07F4F45
:1053980081F06051704732F07F4208BF704793F048
:1053A8007F4F04BF41F40021704730B54FF460745B
:1053B80001F0004521F000411CE700BF50EA01025E
:1053C80008BF704730B54FF000050AE050EA010207
:1053D80008BF704730B511F0004502D5404261EB77
:1053E80041014FF4806404F132045FEA915C3FF4B8
:1053F800D8AE4FF003025FEADC0C18BF03325FEA55
:10540800DC0C18BF033202EBDC02C2F1200300FA05
:1054180003FC20FA02F001FA03FE40EA0E0021FA2A
:1054280002F11444BDE600BF70B54FF0FF0C4CF418
:10543800E06C1CEA11541DBF1CEA135594EA0C0FCA
:1054480095EA0C0F00F0DEF82C4481EA030621EA05
:105458004C5123EA4C5350EA013518BF52EA033540
:1054680041F4801143F4801338D0A0FB02CE4FF0F2
:105478000005E1FB02E506F00042E0FB03E54FF022
:105488000006E1FB03569CF0000F18BF4EF0010E1A
:10549800A4F1FF04B6F5007F64F5407404D25FEA16
:1054A8004E0E6D4146EB060642EAC62141EA5551C9
:1054B8004FEAC52040EA5E504FEACE2EB4F1FD0C0B
:1054C80088BFBCF5E06F1ED8BEF1004F08BF5FEA89
:1054D800500E50F1000041EB045170BD06F000463B
:1054E80046EA010140EA020081EA0301B4EB5C04E8
:1054F800C2BFD4EB0C0541EA045170BD41F48011E0
:105508004FF0000E013C00F3AB8014F1360FDEBF04
:10551800002001F0004170BDC4F10004203C35DAE0
:105528000C341BDC04F11404C4F1200500FA05F363
:1055380020FA04F001FA05F240EA020001F0004204
:1055480021F0004110EBD37021FA04F642EB06017A
:105558005EEA430E08BF20EAD37070BDC4F10C04A4
:10556800C4F1200500FA04F320FA05F001FA04F268
:1055780040EA020001F0004110EBD37041F1000154
:105588005EEA430E08BF20EAD37070BDC4F120055F
:1055980000FA05F24EEA020E20FA04F301FA05F2C7
:1055A80043EA020321FA04F001F0004121FA04F26F
:1055B80020EA020000EBD3705EEA430E08BF20EA3F
:1055C800D37070BD94F0000F0FD101F00046400079
:1055D80041EB010111F4801F08BF013CF7D041EAFB
:1055E800060195F0000F18BF704703F000465200FF
:1055F80043EB030313F4801F08BF013DF7D043EAD0
:105608000603704794EA0C0F0CEA135518BF95EA85
:105618000C0F0CD050EA410618BF52EA4306D1D10C
:1056280081EA030101F000414FF0000070BD50EA2B
:10563800410606BF1046194652EA430619D094EAB5
:105648000C0F02D150EA013613D195EA0C0F05D19F
:1056580052EA03361CBF104619460AD181EA0301F3
:1056680001F0004141F0FE4141F470014FF00000AB
:1056780070BD41F0FE4141F4780170BD70B54FF046
:10568800FF0C4CF4E06C1CEA11541DBF1CEA1355C6
:1056980094EA0C0F95EA0C0F00F0A7F8A4EB0504A8
:1056A80081EA030E52EA03354FEA013100F088809F
:1056B8004FEA03334FF0805545EA131343EA126368
:1056C8004FEA022245EA111545EA10654FEA00261D
:1056D8000EF000419D4208BF964244F1FD0404F5D6
:1056E800407402D25B084FEA3202B61A65EB030532
:1056F8005B084FEA32024FF480104FF4002CB6EBEF
:10570800020E75EB030E22BFB61A754640EA0C006E
:105718005B084FEA3202B6EB020E75EB030E22BFAE
:10572800B61A754640EA5C005B084FEA3202B6EBEF
:10573800020E75EB030E22BFB61A754640EA9C00AE
:105748005B084FEA3202B6EB020E75EB030E22BF7E
:10575800B61A754640EADC0055EA060E18D04FEA3C
:10576800051545EA16754FEA06164FEAC30343EADC
:1057780052734FEAC2025FEA1C1CC0D111F4801FA9
:105788000BD141EA00014FF000004FF0004CB6E7A2
:1057980011F4801F04BF01430020B4F1FD0C88BF41
:1057A800BCF5E06F3FF6AFAEB5EB030C04BFB6EB4C
:1057B800020C5FEA500C50F1000041EB045170BD3F
:1057C8000EF0004E4EEA113114EB5C04C2BFD4EB6C
:1057D8000C0541EA045170BD41F480114FF0000EF0
:1057E800013C90E645EA060E8DE60CEA135594EA6C
:1057F8000C0F08BF95EA0C0F3FF43BAF94EA0C0F6F
:105808000AD150EA01347FF434AF95EA0C0F7FF4E3
:1058180025AF104619462CE795EA0C0F06D152EA37
:1058280003353FF4FDAE1046194622E750EA41061B
:1058380018BF52EA43067FF4C5AE50EA41047FF42C
:105848000DAF52EA43057FF4EBAE12E74FF0FF3C91
:1058580006E000BF4FF0010C02E000BF4FF0010C62
:105868004DF804CD4FEA410C7FEA6C5C4FEA430CDB
:1058780018BF7FEA6C5C1BD001B050EA410C0CBF2A
:1058880052EA430C91EA030F02BF90EA020F00208C
:10589800704710F1000F91EA030F58BF994208BFF3
:1058A80090422CBFD8176FEAE37040F001007047B0
:1058B8004FEA410C7FEA6C5C02D150EA013C07D107
:1058C8004FEA430C7FEA6C5CD6D152EA033CD3D052
:1058D8005DF8040B704700BF8446104662468C464C
:1058E8001946634600E000BF01B5FFF7B7FF00287F
:1058F80048BF10F1000F01BD4DF808EDFFF7F4FFA8
:105908000CBF012000205DF808FB00BF4DF808ED32
:10591800FFF7EAFF34BF012000205DF808FB00BF55
:105928004DF808EDFFF7E0FF94BF012000205DF877
:1059380008FB00BF4DF808EDFFF7CEFF94BF01202C
:1059480000205DF808FB00BF4DF808EDFFF7C4FF25
:1059580034BF012000205DF808FB00BF4A0011D2C7
:1059680012F5001211D20DD56FF47873B3EB6252B1
:105978000ED44FEAC12343F0004343EA505323FABD
:1059880002F070474FF00000704750EA013002D132
:105998004FF0FF3070474FF0000070474FEA410268
:1059A800B2F1E04324BFB3F5001CDCF1FE5C0DD975
:1059B80001F0004C4FEAC0024CEA5070B2F1004FBF
:1059C80040EB830008BF20F00100704711F0804FC2
:1059D80021D113F13872BCBF01F00040704741F487
:1059E80080114FEA5252C2F11802C2F1200C10FA8B
:1059F8000CF320FA02F018BF40F001004FEAC1236F
:105A08004FEAD32303FA0CFC40EA0C0023FA02F312
:105A18004FEA4303CCE77FEA625307D150EA0133E8
:105A28001EBF4FF0FE4040F44000704701F00040B8
:105A380040F0FE4040F40000704700BF53B94AB937
:105A4800002908BF00281CBF4FF0FF314FF0FF307E
:105A580000F0D4B9ADF1080C6DE904CE00F058F8A7
:105A6800DDF804E0DDE9022304B0704707EE900A90
:105A7800F5EEC07AF1EE10FA01D400F00BB8F1EEB1
:105A8800677A08B517EE900A00F004F8404261EB17
:105A9800410108BDD0B5FFF76FFC00220B4B06464D
:105AA8000F46FFF7C1FCFFF759FF0446FFF742FC1A
:105AB8000022074BFFF7B8FC02460B463046394632
:105AC800FFF7FAFAFFF74AFF2146D0BD0000F03D84
:105AD8000000F041D0B500220B4B06460F46FFF7F9
:105AE800A3FCFFF73BFF0446FFF724FC0022074B0B
:105AF800FFF79AFC02460B4630463946FFF7DCFAB8
:105B0800FFF72CFF2146D0BD0000F03D0000F0411A
:105B18002DE9F04F099D04460F46002B48D18A42D3
:105B2800944661D9B2FA82F343B1C3F120019F4090
:105B380002FA03FC9C4020FA01F10F434FEA1C4192
:105B48001FFA8CFE220CB7FBF1F601FB167706FB59
:105B58000EF042EA0742904208D91CEB020206F115
:105B6800FF3702D2904200F237813E46121AA4B2A1
:105B7800B2FBF1F001FB102200FB0EFE44EA0244E6
:105B8800A64508D91CEB040400F1FF3202D2A64551
:105B980000F21C81104640EA0640A4EB0E040026E1
:105BA8001DB1DC400023C5E900433146BDE8F08F54
:105BB8008B4209D9002D00F0FD800026C5E90001BF
:105BC80030463146BDE8F08FB3FA83F6002E4BD14C
:105BD8008B42C0F0F280824240F2EF803046002DC6
:105BE800E3D0C5E90047E0E702B9FFDEB2FA82F385
:105BF800002B40F09D80891A4FEA124E97B2012679
:105C0800200CB1FBFEF20EFB121140EA014107FB2A
:105C180002F088420FD91CEB010102F1FF382CBFBA
:105C28004FF001094FF00009884203D9B9F1000F7C
:105C380000F0CF804246091AA4B2B1FBFEF00EFB79
:105C4800101100FB07F744EA0144A74208D91CEBEE
:105C5800040400F1FF3102D2A74200F2B4800846E2
:105C6800E41B40EA02409BE7C6F12007B34001FA73
:105C780006F422FA07FCF940B2404CEA030C20FA79
:105C880007F34FEA1C491C431FFA8CFE00FA06F37F
:105C9800200CB1FBF9F809FB181140EA014108FB97
:105CA8000EF088420FD91CEB010108F1FF3A2CBF16
:105CB8004FF0010B4FF0000B884203D9BBF1000FE6
:105CC80000F08D80D046091AA4B2B1FBF9F009FBA7
:105CD800101100FB0EFE44EA01418E4507D91CEB6A
:105CE800010100F1FF3401D28E457FD8204640EAF9
:105CF8000840A1EB0E01A0FB029841454C46C64660
:105D080002D306D14B4504D20138B9EB020468EB43
:105D18000C0E002D70D01A1B61EB0E0122FA06F34F
:105D280001FA07F7F14000261F43C5E900713CE777
:105D380002FA03FCC3F1200001FA03F221FA00F68B
:105D48004FEA1C4E24FA00F11FFA8CF79C401143CD
:105D5800B6FBFEF00A0C0EFB106642EA064200FB98
:105D680007F696420ED91CEB020200F1FF382CBF51
:105D78004FF001094FF00009964202D9B9F1000F1E
:105D880031D04046921B89B2B2FBFEF60EFB1622BA
:105D980041EA024106FB07F28A4207D91CEB0101DE
:105DA80006F1FF3801D28A4223D84646891A46EAC4
:105DB800004625E72E462846F7E6841A61EB0303DA
:105DC80001201F460BE76444023849E7644402385F
:105DD800E1E6023A61442EE7023E6244C6E6A8F1D3
:105DE800020861446FE702386244CBE70238614435
:105DF8007DE7023E6144D9E72E46D6E6704700BFEC
:105E080010F8012B11F8013B012A28BF9A42F7D05C
:105E1800D01A7047034613F8012B002AFBD1181A31
:105E28000138704738B50022002304460D46FFF7B5
:105E38006DFD28B920462946BDE83840FFF74ABE1F
:105E4800204605F10041FFF745FE404261EB410164
:105E580038BD00BF70B506F071F90025054E064C37
:105E6800A41BA408AC4200D170BD56F8043B984767
:105E78000135F7E7C4FF3F02F4FF3F0200F04AB8DC
:105E880008B500F0A1F8BDE8084006F00FB903F026
:105E980083BA03F081BA03F08DBA03F08BBA00001D
:105EA8000C2008B5024A034903F07EF8FEE700BF5C
:105EB80021943F026CF23F020078B0FA80F040096A
:105EC80070470123037070477047000010B50446FF
:105ED800094B036004F004F8214604F03BFA05F08E
:105EE800FBFF05F0EDFF2046044B40F8043B04F0AF
:105EF800CDF8204610BD00BFC8F23F02B0F23F0205
:105F080010B50446FFF7E2FF20462421FFF7C5FF3E
:105F1800204610BD10B5002088B003F037F8254999
:105F2800684604F0E2FF244904A804F0DEFF0022DA
:105F380004A9684600F00AFC04A804F08BFF684630
:105F480004F088FF1D49684604F0CFFF1C4904A8E7
:105F580004F0CBFF3820FFF79AFF044620B1502306
:105F6800694604AA01F0AEFE204601F0C5FE04A869
:105F780004F070FF684604F06DFF1249684604F0AB
:105F8800B4FF0F4904A804F0B0FF3820FFF77FFFE3
:105F9800044620B15023694604AA01F093FE204626
:105FA80001F0AAFE04A804F055FF684604F052FF69
:105FB80008B010BD81F23F028EF23F0296F23F0216
:105FC8009CF23F02A0F23F0200F0A2B970B514267D
:105FD800D0E90053044606FB0356AE4204D02846D7
:105FE80004F038FF1435F8E7206803F0E3F9204699
:105FF80070BD8842F8B504460D46164616D990423B
:1060080015D2A2F11406751AA1F114072C44B7424F
:106018001CD02CB13146204604F099FF337C237400
:10602800304604F017FF143E143CF0E70ED0B5429A
:106038000CD02CB12946204604F089FF2B7C237410
:10604800284604F007FF14351434F0E7F8BD0023A0
:106058002DE9F041C0E9003383604F6804469F4250
:106068000E4624DD4FF0140808FB07F003F094F9FE
:106078000546E0B1D4E9001208FB0212FFF7B9FFA8
:10608800206803F097F92560A760D6E9007308FB3C
:106098000378B84509D03946284604F072FF3B7C9E
:1060A800143505F8043C1437F3E773686360204639
:1060B800BDE8F08170B50024234B244A8CB09A6067
:1060C800C3E90044012002F0C3FF2146012002F089
:1060D800E9FFCDE90044029405F0FEFE1C4C05469C
:1060E8002646694603A8FFF7B2FF03A906A8FFF7EB
:1060F800AEFF184B06A946F8043B09A8FFF7A7FF0F
:1061080009AA1E21304604F007FA09A8FFF75EFF26
:1061180006A8FFF75BFF104B2562236003A8FFF773
:1061280055FF0E4B236005F0D7FE4FF4165105F0CE
:10613800C3FE03F0D5FE214604F0C6F86846FFF713
:1061480045FF0CB070BD00BFC0AC07100000FFFFDA
:10615800CCAC0710B0F23F02CCF83F02C8F23F02C5
:10616800014B1A60704700BFCCAA071030B585B044
:106178000446089860B1406850B1856845B1CDE9DA
:106188000241CDE90023C4686A4601AB02A9A047D1
:1061980005B030BD30B51368006885B001938368D9
:1061A800D1E90045CDE902450BB906F07BF9C36892
:1061B80001AA02A9984705B030BD012A02D10160A1
:1061C80000207047022A04BF0B680360F8E70368E1
:1061D8001268D1E90001184710B58368044613B165
:1061E800032201469847204610BD10B5044638B131
:1061F800FFF7F2FF2046BDE810401021FFF74DBE23
:1062080010BD000008B50248FFF7E6FF08BD00BF53
:10621800F4AC071038B50A4DD5E88F4F14F00104D7
:106228000CD12846FFF748FE40B1064B28469C6033
:106238001C74FFF746FE044806F078FA014838BD9A
:10624800F0AC0710F4AC0710656C3F0210B54FF0C6
:10625800200C0446084600218AB0CDE90023CDE988
:1062680002C10B4602AA216802F0BAFE0AB010BDAC
:106278000EB403B503AB53F8042B32210193FFF797
:10628800E5FF02B05DF804EB03B070470EB403B548
:1062980003AB53F8042B1E210193FFF7D7FF02B07D
:1062A8005DF804EB03B070470EB403B503AB53F8C5
:1062B800042B01210193FFF7C9FF02B05DF804EB3D
:1062C80003B0704700B50F4B97B0202200210EA8ED
:1062D8000D9306F070FAFFF79DFF04A905F02DFE57
:1062E800FFF798FF084A094B01A9CDE901232123AB
:1062F800039305F015FEFFF78DFF05F016FE17B0A6
:106308005DF804FB240001000C000100E093040088
:1063180008B501F037FD0C4B186801F043FA0B4B38
:106328001A68002A09DB0A490A48FFF7A1FF4FF457
:10633800FA6003F0E7F805F02BF8FFF76BFFBDE80C
:10634800084005F0F6BD00BF58AD0710CCAA0710ED
:10635800D8F23F021CAE071010B590B004460CA846
:1063680004F0C3FD0CA804F09AFF0146684604F047
:1063780008FE0CA804F06EFD214604A804F0B5FD43
:106388001D490CA804F0B1FD04A90CA804F0A4FE52
:106398001A4904F0ADFE694604F09EFE184904F05F
:1063A800A7FE01681748FFF771FF0CA804F052FD1B
:1063B800154B04A81C6804F064FF014608A804F003
:1063C800E0FD684604F05DFF01460CA804F0D9FD25
:1063D8000CAA08A9204600F019FD0CA804F03AFD03
:1063E80008A804F037FD04A804F034FD684604F05A
:1063F80031FD10B010BD00BFF7F23F021EF33F029F
:1064080021F33F021CAE071058AD0710F0B502F19A
:10641800080399B023F007036E4600AFADEB030DF8
:1064280005466846144606F09FF9002369460DF8AC
:106438000430384604F059FD384604F022FF01467E
:1064480007F1100004F09DFD294607F1200004F033
:106458004CFD07F1200004F014FF014607F130005D
:1064680004F08FFD2D4907F1500004F03EFD07F1BF
:10647800500107F1200004F0B5FE044607F1500072
:1064880004F0E8FC94B107F1300004F0E3FC07F1F4
:10649800200004F0DFFC07F1100004F0DBFC3846B4
:1064A80004F0D8FCB5466437BD46F0BD1C4B07F177
:1064B80030011C6807F1400004F063FD07F110018A
:1064C80007F1500004F05DFD07F1500207F14001AB
:1064D800204600F0E7FF07F1500004F0BBFC07F18D
:1064E800400004F0B7FC07F1300107F1400004F068
:1064F80048FD07F1100107F1500004F042FD07F1D3
:10650800500107F1400001F097FC07F1500004F03A
:10651800A1FC07F1400004F09DFCB4E723F33F021F
:1065280058AD071070B505468EB00192134A0C4657
:1065380002A81349166804F024FD124902A804F0C1
:10654800D7FD294604F0C8FD014606A804F019FD48
:1065580021460AA804F015FD019B0AAA06A930469F
:1065680000F056FB0AA804F075FC06A804F072FCBB
:1065780002A804F06FFC0EB070BD00BF58AD071044
:1065880008AD07107EF73F0201F036BC10B504468F
:1065980088B0144904A804F0A8FC0A2221466846D9
:1065A80004F025FD694604A804F096FD01680E482C
:1065B800FFF77AFE684604F04DFC04A804F04AFC94
:1065C80007EE904AB8EEE70A8DF8104005F04EFA4B
:1065D80005F04EFE012204A9104602F029FA08B07F
:1065E80010BD00BF27F33F021CAE071038B505F0F9
:1065F80097FB054605F088FB044605F079FB072C58
:106608001FDD6B1E052B1AD8DFE803F0030F1113EB
:106618001517082C01D1012813DD0A490A48FFF78C
:1066280043FEBDE8384005F041BA082C09D0092CD2
:1066380007DD0A2C05DD0B2C03DD0C2C01DD0D2CF0
:10664800EAE738BD35F33F021CAE071038B505F050
:1066580067FB054605F058FB044605F049FB072C87
:106668000BDC6B1E052B13D8DFE803F003080A0CBC
:106678000E10012C0CD101280ADD38BD022CFBE7D5
:10668800032CF9E7042CF7E7052CF5E7072CF4D0E1
:1066980003490448FFF708FEBDE8384005F006BA8C
:1066A80035F33F021CAE071000B58BB005F0E0FDD6
:1066B80001220DF10701104602F0ACF9194906A8AC
:1066C80004F013FC0A229DF9071002A804F08FFCBD
:1066D80002A906A804F000FD01681348FFF7E4FDCD
:1066E80002A804F0B7FB06A804F0B4FB9DF9073034
:1066F80000EE103AB8EEC00A05F0B8F905F018FB3C
:10670800031F062B04D805F0D1F90BB05DF804FB84
:10671800032802D1FFF76AFFF7E70B28F5D1FFF747
:1067280095FFF2E73FF33F021CAE071038B5002390
:1067380083608B6804460D462BB102229847EB68AC
:10674800E360AB68A360204638BD00002DE9F04740
:106758004FF0000A474B98B00493474B8046079385
:10676800464B894608A804A91746069310ADFFF7BB
:10677800DDFF08A90CA8FFF7D9FF0CA92846FFF7E9
:10678800D5FF1020CDF858A0FFF781FB0446A0B133
:1067980095E8030001AE86E8030094E8030085E865
:1067A800030096E80300129BE268A36084E80300F4
:1067B800139BCDF848A01392E3600026304B1020BD
:1067C8001793304B149416932F4B0396CDE901364B
:1067D800FFF75DFB0446D8B1169B866033B10222F1
:1067E80014A99847179BE360169BA360274B4FF4A7
:1067F800802003930021264A01AB029402F044FC56
:1068080030B12046FFF7E8FC10212046FFF745FB92
:1068180014A8FFF7E1FC2846FFF7DEFC0CA8FFF7F9
:10682800DBFC08A8FFF7D8FC04A8FFF7D5FCFFF7A6
:106838003BFF01F027FBFFF745FD4146284604F0E2
:10684800A0FB494614A804F09CFB6820FFF71FFB37
:10685800044620B13B46294614AA00F0EFF80D4B38
:1068680014A81C6004F0F6FA284604F0F3FA18B0ED
:10687800BDE8F087C16B3F022F6C3F021B6C3F02E3
:10688800F56B3F02F9723F0202000C004B6C3F02AD
:10689800CD6B3F0258AD0710012A37B5044604D125
:1068A8000B680360002003B030BD022A0CD0032A15
:1068B800F8D10468002CF5D02046FFF78DFC102194
:1068C8002046FFF7EAFAEDE7096810200191FFF783
:1068D800DEFA054610B10199FFF728FF2560E1E7C8
:1068E80008B50B490B4804F000FB0B490B4804F0B2
:1068F800FCFA0B490B4804F0F8FA0B490B4804F072
:10690800F4FABDE808400A490A4804F0EEBA00BFA4
:1069180054F33F0238AD07105CF33F0248AD07104F
:1069280066F33F0228AD07106DF33F0208AD07106C
:1069380075F33F0218AD071010B50446064B40F832
:10694800283B04F087FA2046044B40F8043B03F048
:106958009DFB204610BD00BF08F63F02B0F23F0283
:1069680010B50446FFF7E8FF20466821FFF795FABF
:10697800204610BD00224068114602F065BC0EB4E6
:1069880003B503AB53F8042B28210193FFF75EFCF2
:1069980002B05DF804EB03B07047406A01F094BCA4
:1069A80070B5044692B020490EA804F0EAFA04F142
:1069B80028051E490EA804F09BFB294604F08CFB11
:1069C8001B4904F095FB014606A804F0DAFA0EA864
:1069D80004F040FA17490AA804F087FA29460EA8D5
:1069E800666A04F0CEFA14490EA804F081FB00236D
:1069F8000422CDE904320A9A0193CDE90232069ABB
:106A0800009201681A46304601F06CFC0EA804F0AA
:106A180021FA05F05CF9A0630AA804F01BFA06A89D
:106A280004F018FA12B070BD60AD07107EF73F028F
:106A38007DF33F0285F33F028DF33F022DE9FF41CD
:106A48000446254690461F46324B0E4640F8043B06
:106A58001E2103F045F9304B304945F8283B2846BC
:106A680004F043FA404604F00CFC0146284604F0C2
:106A780079FA00250121072084F82010C4E911556E
:106A8800E56405F0CBFB2946072005F0D8FB24492F
:106A98002448FFF7FBFB3168602084F860500391BD
:106AA800FFF7F5F9064630B140F25B721E4B0399C9
:106AB800009501F02FFB20466662FFF771FF47B192
:106AC80003F00EFA214603F0FFFB18491548FFF7BB
:106AD800DDFB0023CDE9003315481A461549006847
:106AE80002F05EFB05F0F3F8B438E06305F0EFF868
:106AF800206505F0ECF8606505F0E9F8A06505F09B
:106B0800E6F8E06505F0E3F82064204604B0BDE847
:106B1800F08100BFB0F23F0208F63F0295F83F024D
:106B280090F33F021CAE07106D6E3F02A3F33F02C5
:106B380060AD0710B96D3F0208B507490748FFF770
:106B48001EFF01F011F9C82002F0DCFC044B1868A4
:106B5800BDE8084004F018BCBAF33F021CAE0710A9
:106B680070AD071010B5044605F0B1F8236C3C333E
:106B780098421BDD05F0ABF820641E48FFF7FAFECB
:106B880090B3606A01F0A0FB28B394F8603073B941
:106B980019491A48FFF77AFB05F099F81849A063D4
:106BA800606A01F08CFE012384F8603010BD05F0A6
:106BB8008EF8A36B03F596739842F7DD11490F48D9
:106BC800FFF756FB4FF47A7002F09CFC2046BDE8B4
:106BD8001040FFF7B1BF09480B49FFF757FB2046A4
:106BE800BDE81040FFF7DCBE08490448FFF74EFB3C
:106BF800DCE700BFD0AE0710C7F33F021CAE07109A
:106C0800E6F33F02E8F33F02F6F33F0213F43F02D4
:106C18002DE9F041074688B0406A0E461546984669
:106C280001F052FB98B11548FFF7A4FE044670B175
:106C380000232A68CDE901833168AB68786ACDF80A
:106C4800008001F09DFC204608B0BDE8F0810C49A9
:106C580004A804F04AF9314604A804F03DFA0949A9
:106C680004F046FA294604F037FA01680648FFF7A7
:106C780086FE04A804F0EEF80024E4E7D0AE07107E
:106C880022F43F0245F43F021CAE071010B504463B
:106C980092B005F01CF8E36BB433984232DD05F08E
:106CA80016F8E06305F013F8174B024617490093EE
:106CB800C31702A804F0ACFF15490AA804F061F94B
:106CC80014490AA804F014FA04F1280104F004FA9B
:106CD800014606A804F055F902A90EA804F051F9D6
:106CE80000230EAA06A92046FFF792FF0EA804F07B
:106CF800B1F806A804F0AEF80AA804F0ABF802A8A8
:106D080004F0A8F812B010BD48F43F0270AE0710A6
:106D180060AD071051F43F02F0B50F4616468DB02E
:106D28000446154968461D4604F02BF96846134980
:106D380004F0DEF9394604F0CFF9114904F0D8F926
:106D4800314604F0C9F9014604A804F01AF92946A5
:106D580008A804F016F9002308AA04A92046FFF79A
:106D680057FF08A804F076F804A804F073F86846FA
:106D780004F070F80DB0F0BD60AD071059F43F0293
:106D88007EF73F0238B50C4605461949204604F0FF
:106D9800E6F930BB2046174904F0E1F918BB204654
:106DA800154904F0DCF918B1282385F8203017E0DC
:106DB8002046124904F0D3F90028F5D1204610499D
:106DC80004F0CDF988B920460E4904F0C8F908B195
:106DD8000123EAE720460C4904F0C1F90028F7D15D
:106DE80038BD4623E1E73223DFE71E23DDE700BF96
:106DF8005FF43F0264F43F026AF43F026FF43F021B
:106E080077F43F027CF43F0282F43F022DE9F0411F
:106E18002DED028B0446884615460026B24FAAB0CF
:106E280016AB98193946103604F05FF8502EF7D192
:106E380000262F21404604F0F7F93246071E1ADDD6
:106E48003B46414612A804F0F3F916AB03EB0610D3
:106E580012A904F0A1F812A803F0FCFF7A1C2F2154
:106E68004046019204F0D2F90136042E0746019AF1
:106E780001D00028E3E7414612A804F0FBF916AB5D
:106E880012A903EB061004F087F812A803F0E2FF3A
:106E9800964916A804F063F900284BD1944916A81E
:106EA800013604F05CF988B1012E11D091491AA875
:106EB80004F055F900283AD18F491AA804F04FF97F
:106EC800002844D004F003FF606533E0012E48D168
:106ED8008A4916A804F043F9002840F083808849BD
:106EE80016A804F03CF9002800F02981012E04F1CD
:106EF800280740F01581394612A804F042F8814964
:106F080012A804F0F5F8294604F0E6F801687E486E
:106F1800FFF735FD12A803F09DFF294612A804F0DB
:106F280030F8204612A9FFF72DFF12A857E004F009
:106F3800CEFE2065042416AB03EB041003F08AFF91
:106F4800013CF8D22AB0BDEC028BBDE8F0816F4954
:106F58001AA804F004F90028ECD004F0B8FEA065E3
:106F6800E8E76B491AA804F0FAF8002800F05E82F6
:106F7800284604F0BDF916A9074606A804F001F84A
:106F880006A912A803F0FDFF12A800F013FF064699
:106F980012A803F05FFF0EB3002F1FDD33683946D8
:106FA8005B6A3046984706A90AA803F0EAFF5849E1
:106FB8000EA803F09AFF294612A803F0E2FF12ABCD
:106FC8000EAA0AA92046FFF7A7FE12A803F042FF5F
:106FD8000EA803F03FFF0AA803F03CFF06A803F041
:106FE80039FFA7E72C21284604F01EF9041EA1DB6F
:106FF800631E0022294602A804F01AF9621C2946D9
:1070080006A804F037F902A804F078F906A8B0EE4B
:10701800408A04F073F93F490EA8F0EE408A03F065
:1070280064FFB0EE480A06210AA803F0FBFF0AA98C
:107038000EA804F051F8384904F05AF80446B0EEA6
:10704800680A062112A803F0EDFF12A9204604F0F1
:1070580043F801682C48FFF719F912A803F0FAFE63
:107068000AA803F0F7FE0EA803F0F4FEB5EE408A76
:10707800F1EE10FA33D0F5EE408AF1EE10FA2ED088
:1070880026490EA803F031FFB0EE480A06210AA8E7
:1070980003F0C8FF0AA90EA804F01EF81E4904F060
:1070A80027F80446B0EE680A062112A803F0BAFFD2
:1070B80012A9204604F010F801681348FFF7F4F805
:1070C80012A803F0C7FE0AA803F0C4FE0EA803F036
:1070D800C1FEF0EE680AB0EE480AFFF755FA06A8B6
:1070E80003F0B8FE02A87AE795F83F0286F43F025B
:1070F8008AF43F0290F43F029BF43F02BAF43F0245
:10710800EDF43F02F6F43F021CAE0710A5F43F026F
:10711800AFF43F02CCF43F02D8F43F02DAF43F0266
:1071280039461AA804F00EF800287FF4E4AEAA49FC
:107138001AA804F014F800287FF4DDAEFAE6A7498F
:1071480016A804F00CF808B328342146284603F0A2
:10715800F9FFA0B1214612A803F013FFA04912A815
:1071680003F0C6FF0168019104F015F90199024680
:107178009C48FFF78BF812A803F06CFEDAE6284665
:10718800954903F0ECFF0028E4D1D3E6964916A808
:1071980003F0E5FFF0B128342146284603F0D2FF7A
:1071A80088B1214612A803F0ECFE904912A803F01A
:1071B8009FFF01688B48FFF769F812A803F04AFEA1
:1071C80000F0DEFEB6E62846834903F0C8FF002833
:1071D800E7D1AFE6864916A803F0C1FF10B32834FB
:1071E8002146284603F0AEFFA8B1214612A803F0B5
:1071F800C8FE804912A803F07BFF01687948FFF7B1
:1072080045F812A803F026FE00F0AEFD7A4B186888
:1072180004F0BAF88EE628466F4903F0A0FF00286C
:10722800E3D187E6012E57D1744916A803F097FFDA
:107238000746002840F0A280714916A803F08FFF86
:1072480000283FF477AE2834214612A803F099FEAF
:107258006C4912A803F04CFF294603F03DFF016872
:107268006048FFF713F812A803F0F4FD39462846E2
:1072780003F0CAFF2D2840F0A5802946012212A854
:1072880003F0F8FF12A804F033F8454212A803F0FF
:10729800E1FD002D00F09B8021460EA803F071FE51
:1072A80059490EA803F024FF04460A22294612A8C9
:1072B80003F09DFE12A9204603F00EFF016849481D
:1072C800FEF7E4FF12A803F0C5FD0EA803F0C2FD07
:1072D8002846FFF75BF92DE64C491AA803F03FFF53
:1072E8000028A1D016A912A803F04BFE12A800F09E
:1072F80061FD064612A803F0ADFD002E3FF41AAE5C
:10730800284603F0F5FF42490746284603F027FFC1
:1073180080B928463F4903F022FF58B928463E491C
:1073280003F01DFF20B928463C4903F018FF30B18F
:10733800002704E0336830461B6A984707463368DD
:1073480039469B693046984716A90AA803F019FEE2
:107358002E490EA803F0C9FD294612A803F011FE14
:1073680012AB0EAA0AA92046FFF7D6FC12A803F012
:1073780071FD0EA803F06EFD0AA830E6012E3FF459
:10738800D9AD283421461AA803F0DCFE98B1284666
:10739800234903F0E4FE00283FF4CCAD214612A8AF
:1073A80003F0EFFD1F4912A803F0A2FE01680D4883
:1073B800FEF76CFFDFE608491AA803F0D0FE0028A4
:1073C800E5D1B7E5284603F093FF054661E716497E
:1073D8000448FEF74DFFADE582F43F020BF53F028E
:1073E80012F53F021CAE071025F53F022BF53F02B0
:1073F8004CF53F0252F53F0270AD07106AF53F02A7
:10740800CEF53F0297F53F02AEF53F024EF53F023B
:1074180076F73F026FF53F0274F53F0278F53F02B9
:107428007EF53F0283F53F02C6F53F0219491AA8C7
:1074380003F095FE00283FF44BAD16A912A803F0FF
:10744800A0FD12A800F0B6FC064612A803F002FD43
:10745800002E3FF46FAD04F1280112A803F091FD4E
:107468000D4912A803F044FE16A903F035FE016881
:107478000A48FEF70BFF12A803F0ECFC3368284615
:107488000749DC6903F06BFEB0FA80F13046490920
:10749800A0474FE5D7F53F02C2F43F021CAE0710E4
:1074A800CAF43F0270B58CB00D460446164604F087
:1074B8000EFC1249A063284603F094FEE0B10822AE
:1074C8002946684603F0D6FE029B93B1694604A894
:1074D80003F057FD314608A803F053FD204608AADB
:1074E80004A9FFF793FC08A803F0B4FC04A803F070
:1074F800B1FC684603F0AEFC0CB070BD60AD07107F
:1075080010B50C462F21204605F0D2F900B1441CD5
:10751800204610BD0B4610B5184613F8014B2CB188
:10752800202C01D11946F7E7282CF5D1401A106014
:10753800084610BD70B596B00446154604F0C7FB62
:10754800214B024600932149C31702A804F060FBAF
:10755800E66C002E32D101231D49E36406A803F02E
:10756800C4FC04F1280106A803F0B6FD01460EA8E4
:1075780003F007FD02A90AA803F003FD15490AA8AC
:1075880003F0B6FD294603F0A7FD014612A803F053
:10759800F8FC334612AA0EA92046FFF739FB12A8B9
:1075A80003F058FC0AA803F055FC0EA803F052FC9F
:1075B80006A803F04FFCE36C013BE36402A803F068
:1075C80049FC16B070BD00BF48F43F0270AE07100A
:1075D800DCF53F0246F43F022DE9F0410546174627
:1075E80088B00E4668464C4998460E9C03F07DFCD0
:1075F80095F82030BB4205D9684603F02BFC08B04B
:10760800BDE8F0812379D90726D5A1682846FFF778
:1076180077FF0146684603F0C7FC6946684603F0F1
:1076280039FD23799A070FD53C49684603F036FDA2
:107638000A22E16804A803F0DAFC684604A903F00A
:1076480029FD04A803F006FC237968465B074CBFB4
:107658003349344903F022FD2379580712D5002312
:1076680004AA216928460493FFF754FF0146684697
:1076780003F09AFC6946684603F00CFD68462A49FF
:1076880003F00CFD0021384601F0B8FC01466846BD
:1076980003F004FD6846234903F000FD1EB131469E
:1076A800684603F0FBFC237913F0300F27D01F49FD
:1076B800684603F0F3FC2379D9060BD5A2691C4967
:1076C80004A803F02DFE684604A903F0E3FC04A80F
:1076D80003F0C0FB23799A060DD5DB0603D568466F
:1076E8000F4903F0DBFC1349684603F0D7FC6846F2
:1076F800E16903F0D3FC5D21684603F0E0FC6946CC
:1077080004A803F03EFC2846414604AAFFF712FFEE
:1077180004A803F09FFB6FE795F83F02E1F53F02ED
:1077280045F43F02E5F53F02E3F53F02E8F53F0285
:10773800EBF53F02F5F53F0210B5044601F04EF9AE
:10774800636CFA3383422AD801F048F9A36C606469
:1077580001331348A364FFF70DF950B9A36C23F064
:107768000202012A12D10121BDE81040072004F0CD
:1077780066BD2046FFF711F90028EFD094F8602085
:10778800A36C52B923F00202012A00E0052BEAD0CB
:107798000021082BC8BFA164E6E7012BF7E710BD5D
:1077A800D0AE071010B50446406A00F040FF2046EE
:1077B800FFF7D8F92046FFF769FA2046BDE81040E0
:1077C800FFF7BABF012208B50B4B0C491A600C48E9
:1077D80003F08BFB0B490C4803F087FB0B490C4863
:1077E80003F083FB0B490C4803F07FFBBDE808401E
:1077F8000A490B4803F079BB70AD071054F33F02F8
:1078080094AD07105CF33F02A4AD071066F33F0286
:1078180084AD07106DF33F0260AD071075F33F02AA
:1078280074AD0710704780697047406B704710B59A
:1078380004461C3103F0A5FB204610BD10B50446D4
:10784800083103F09EFB204610BD10B5044691F8A0
:10785800301003F0BBFB204610BD704770477047DF
:107868008369C26A93420CBF4FF0FF33C362184664
:107878007047704770470000F0B58DB00546244941
:10788800684603F032FB234B234E1C68234F64B336
:1078980094F83010582926D004A803F097FB04A9BF
:1078A80008A803F06EFB314608A803F021FC014646
:1078B800684603F0EFFB08A803F0CCFA04A803F02D
:1078C800C9FA04F1080108A803F05BFB08A9684697
:1078D80003F0E0FB08A803F0BDFA63681BB1394662
:1078E800684603F0DBFB6468D1E7029BB3F5806F61
:1078F80009D328460A4903F0F8FA684603F0AAFAB9
:1079080028460DB0F0BD6946284603F020FBF4E791
:1079180095F83F025CAD0710E1F53F02D8F43F024D
:1079280018F63F028269416312B103689B691847E0
:107938007047000030B5144685B0034668460D46CA
:1079480098470298206001F027FD286050B122680E
:10795800009904F009FF0024684603F07BFA2046EA
:1079680005B030BD004CF7E7FCFEFFFF1FB5002354
:10797800CDE901330C23ADF80430044B0422039302
:1079880001AB01F0D5FB05B05DF804FB95833F0220
:107998002DE9F0418CB0054604F099F9C317024669
:1079A80004A804F08FF804A908A803F0EAFA3749F4
:1079B80008A803F09DFB0146684603F0E2FA08A810
:1079C80003F048FA04A803F045FA314B314E1C681D
:1079D800314FDFF8CC80002C43D094F83010582970
:1079E8003DD004A803F0F2FA04A908A803F0C9FAE4
:1079F800314608A803F07CFB0146684603F04AFBC1
:107A080008A803F027FA04A803F024FA04F10801EF
:107A180008A803F0B6FA08A9684603F03BFB08A8D3
:107A280003F018FA394608A803F05FFA0A22A16998
:107A380004A803F0DCFA04A908A803F04DFB0146EA
:107A4800684603F027FB04A803F004FA08A803F02B
:107A580001FA63681BB14146684603F01FFB64687E
:107A6800B9E7029BB3F5806F0AD328460B4903F0A8
:107A78003CFA684603F0EEF928460CB0BDE8F08100
:107A88006946284603F063FAF3E700BFE5F53F02CD
:107A98005CAD0710E1F53F0257F63F0259F63F0289
:107AA800D8F43F0270B504468CB00D4668461949B3
:107AB80003F01BFA04F10801684603F00DFB1649B0
:107AC80003F016FB06460A22294604A803F08FFA9B
:107AD80004A9304603F000FB104903F009FB0646F1
:107AE8000A22A16908A803F082FA08A9304603F01F
:107AF800F3FA01680A48FEF7C9FB08A803F0AAF9D7
:107B080004A803F0A7F9684603F0A4F9A5610CB02E
:107B180070BD00BF97F63F029FF63F02AAF63F02EC
:107B28001CAE0710F0B52C219DB0044603F07CFB79
:107B3800051E13DC314909A803F0D7F9214609A825
:107B480003F0CAFA01682E48FEF792FB09A803F071
:107B580081F94FF0FF3420461DB0F0BD2B460022BE
:107B6800214601A803F064FB6A1C214605A803F01E
:107B780081FB244909A803F0B8F901A909A803F071
:107B8800ABFA214903F0B4FA05A903F0A5FA016894
:107B98001B48FEF77BFB09A803F05CF9019F059DD4
:107BA80047B33846FEF736F906462DB32846FEF7A2
:107BB80031F90446382200210DEB020004F0FBFDE8
:107BC8004C23CDE9093703238DF8383000230F48BB
:107BD800194609AA40680D94CDE90B6501F07AFBB6
:107BE800B0FA80F405A803F035F901A8640903F098
:107BF80031F9B0E73E46D8E72C46DBE7B1F63F025D
:107C08001CAE0710CAF63F0245F43F02D0AE07107B
:107C1800F0B5254989B0044603F067F9234B244E93
:107C28001D68244F75B395F83030582B28D105F1CD
:107C3800080104A803F0A5F904A9204603F02AFACC
:107C480004A803F007F9314604A803F04EF90A2204
:107C5800A969684603F0CBF9694604A803F03CFA21
:107C68000146204603F016FA684603F0F3F804A824
:107C780003F0F0F86B681BB13946204603F00EFAA2
:107C88006D68CFE7A368B3F5806F03D30A490B4843
:107C9800FEF7EEFAA3681BB909490848FEF7F6FA99
:107CA800204609B0F0BD00BF95F83F025CAD071053
:107CB80057F63F02D8F43F02E2F63F021CAE071027
:107CC80023F73F02F8B50026044617461D46094B20
:107CD80046600360083003F054F93946A66104F1A0
:107CE8001C0003F04EF964232046E66284F8305005
:107CF8006363F8BD88F73F0230B5044689B016497A
:107D080004A803F0F2F8236821469B686846984760
:107D1800694604A803F0E0F901681048FEF7B6FACE
:107D28000F4D684603F096F804A803F093F82B6803
:107D38005BB90C490948FEF7A9FA2C60204623686C
:107D48001B6809B0BDE8304018471A465B68002B2D
:107D5800FBD15460F2E700BF36F73F021CAE0710B4
:107D68005CAD071047F73F0210B5054B1C682CB1F6
:107D7800236820465B6898476468F8E710BD00BF31
:107D88005CAD071010B5054B1C682CB12368204664
:107D98001B6B98476468F8E710BD00BF5CAD07101F
:107DA8000020034B1B6813B15B680130FBE7704789
:107DB8005CAD0710F0B5064600250E4B85B01C6873
:107DC800FFF7EEFFA84211DD8CB123682146684613
:107DD8009B6898473146684603F0D3F907466846DA
:107DE80003F038F81FB964680135E9E70024204634
:107DF80005B0F0BD5CAD071038B52DED028B002540
:107E0800B0EE408AF0EE608A0A4B1C68FFF7C8FFA4
:107E1800A8420BDD54B123682046F0EE680AB0EEA4
:107E2800480ADB6A984701356468EFE7BDEC028BC6
:107E380038BD00BF5CAD0710F0B505460E46104BC7
:107E480089B01C68CCB194F83030572B13D1236813
:107E5800294668465F6B03F094F8314604A803F09E
:107E680090F86946204604AAB84704A802F0F2FF31
:107E7800684602F0EFFF6468E4E709B0F0BD00BFB0
:107E88005CAD07101FB5314C31492068FFF76EFD16
:107E980088B93049684603F028F82146684603F057
:107EA8001BF92D4903F024F901682C48FEF7E0F985
:107EB800684602F0CFFF2A4C2A492068FFF756FD92
:107EC80088B92449684603F010F82146684603F04B
:107ED80003F9214903F00CF901682048FEF7C8F9B5
:107EE800684602F0B7FF204C20492068FFF73EFDA6
:107EF80088B91849684602F0F8FF2146684603F039
:107F0800EBF8154903F0F4F801681448FEF7B0F9E6
:107F1800684602F09FFF164C16492268164801F081
:107F28004FFB88B90B49684602F0DFFF21466846D7
:107F380003F0D2F8114903F0DBF801680748FEF7AF
:107F480097F9684602F086FF04B010BDE4AD07104B
:107F5800D9823F0256F73F024DF63F021CAE07108A
:107F6800F4AD071071863F02D4AD0710F1833F02CC
:107F7800C4AD071085853F02F59F3F026FF73F02AA
:107F8800F0B5294B294F1C68294E99B0002C48D0D0
:107F9800394604A802F0A9FF23682146DB68684631
:107FA8009847694604A803F097F8314603F0A0F80B
:107FB8000546236821461B6908A89847284608A94A
:107FC80003F08AF8314603F093F805462368214602
:107FD8009B680CA898470CA9284603F07DF8014631
:107FE80014A802F0CEFFA1690A2210A802F0FFFF30
:107FF800002210A914A8FEF795FA10A802F02AFF8B
:1080080014A802F027FF0CA802F024FF08A802F029
:1080180021FF684602F01EFF04A802F01BFF6468F7
:10802800B4E719B0F0BD00BF5CAD071079F73F02A7
:108038007EF73F0208B50B490B4802F056FF0B4983
:108048000B4802F052FF0B490B4802F04EFF0B4958
:108058000B4802F04AFFBDE808400A490A4802F006
:1080680044BF00BF54F33F02E4AD07105CF33F0286
:10807800F4AD071066F33F02D4AD07106DF33F026D
:10808800B4AD071075F33F02C4AD071091F85C302A
:1080980010B50446016013B1886D00F021FC20463C
:1080A80010BD10B50368044693F85C2012B1986DB2
:1080B80000F024FC204610BDF8B51F469DF824307A
:1080C80004460D46164623B101235830037100F0CB
:1080D800F9FB089B23630023636306B1A66425B1FB
:1080E800294604F1380002F05FFF069BE06923652A
:1080F800079BA4F84C70FF2BB8BFFF23A4F854309B
:1081080008B1FDF7C8FEB4F85400FDF7C2FEE061FF
:10811800F8BD00002DE9FF410446002598461746A2
:108128000E4603F037FC0D49E56104F1380002F012
:10813800DCFE9DF82830FF22CDE902830F2320467C
:10814800CDE9003231463B462A46A56484F85C50A6
:10815800FFF7B2FF204604B0BDE8F08195F83F0272
:1081680010B50446204603F071FB0028FAD02046DB
:1081780003F056F9C0B210BD2DE9F0474FF00109E0
:1081880005468846FFF7ECFF00274C46EB69187058
:10819800EB6993F800A00AF0F00A2846FFF7E0FF21
:1081A8002646EB690134985500F07F0313FB09F369
:1081B8001F440306A4B2BFB24FEAC919EDD4631E27
:1081C800BAF1300F88F800301ED12846FFF7C8FFF3
:1081D800EB6918552846FFF7C3FFF41CEB69023614
:1081E800B6B298550226A4B2B6B2BE420ED22846FE
:1081F800FFF7B6FFB5F854300136A34284BFEB69E8
:1082080018550134A4B2EFE70026EDE7B5F854306D
:10821800A3422CBF20460020BDE8F0872DE9F3419A
:1082280015461E461A4607460023964602F07F0C5E
:10823800BEF17F0F02A888BF4CF0800C5C1CBEF119
:108248007F0F03444FEAD212E4B203F804CC1ED8DD
:10825800C4F10403C4F10500E954224601A92844E5
:1082680005EB030804F080FA721C224441463846A4
:1082780003F0C1F8054600F0B1FB621C7862324495
:10828800A8B2131A5842584102B0BDE8F0812346FB
:10829800CBE70233F0B5054698B20023CE5C9CB21A
:1082A8004EB1B5F854C05F1C844504D9441C16541B
:1082B8003B46A0B2F2E799B2411A0A44210A02F8F1
:1082C800021C02F8013CF0BD38B5044603F0E0F9A1
:1082D800002814BF0125002502D1204603F010FB19
:1082E800284638BD2DE9F04788B004468946174628
:1082F8001E46DDF840809DF850A0FFF7E5FF0546D3
:10830800002840F0CD80214601A8FFF7BFFEA16CF0
:10831800002940F088802B462046B4F84C20A16BF9
:1083280003F038F900287AD0012323849DF85430CB
:10833800E269042B5B4B40F08180186899889B792F
:10834800ADF80C108DF80E300290C2F805009DF8BB
:108358000E30BDF80C10D3720C23A2F80910B8F136
:10836800000F00F081809DF848009DF844204001EE
:1083780040EAC20040F00600C0B2BAF1000F01D1D5
:1083880000F0FD001FB1002E70D140F08000E269BE
:10839800D054226DE169581C12120A54E169206D0B
:1083A8009A1C8854033349462046E269FFF771FF57
:1083B8000346B8F1000F0BD04146E2692046FFF7AB
:1083C80068FFE269034613992046FFF762FF0346F8
:1083D80067B139462046E269FFF75BFF03462EB1D5
:1083E80031462046E269FFF754FF0346053B10215A
:1083F800E2699BB22046FFF711FF00F0EFFA4FF455
:108408007A76C4E90900204603F020FA88BB00F018
:10841800E5FAA36AC01A236D73439842F3D920463C
:1084280003F06EFA35E002A801F0E2F92B46204687
:10843800B4F84C2002A903F08DF973E7D3F80700CC
:10844800D3F80B100DF1080CACE80300DB7B8CF8BB
:10845800003002AB03CBC2F80500C2F809109CF843
:10846800003053730E237AE7022086E740F0C000FD
:108478008DE7204602A9FFF77FFE0428CFD1E369E4
:10848800DE78002ECBD100F0A9FA0125A06284F88D
:108498002C6001A8FFF705FE284608B0BDE8F08764
:1084A8000025F9E74CF23F022DE9F74FDDF83C8053
:1084B80004468B4616461F469DF834509DF8389062
:1084C800FFF702FF8246002851D0214601A8FFF796
:1084D800DDFD0021B4F85420E06904F06CF90523AF
:1084E80059462046E269FFF7D4FE6B1E012B15D8CA
:1084F800218CE369013189B22184090A1954421C8B
:10850800E369218C92B2023080B29954B8F1000F1D
:1085180004D0238C5A1C2284A8F8003000210B18A0
:108528008F42E2699BB20AD9B4F854C09C4506D977
:1085380016F801C0013102F803C089B2EFE79DF8CF
:10854800301000290CBF30213121B9F1000F01D0C2
:1085580041F00801022D0ED141F00401053B2046EF
:108568009BB2FFF75BFE824601A8FFF79AFD5046D3
:1085780003B0BDE8F08F012D08BF41F00201EDE71F
:108588001FB5089C0394002402949DF81C40019494
:108598009DF818400094FFF787FF04B010BD73B52D
:1085A80004460E46FFF790FE0546C8B1214601A8CD
:1085B800FFF76CFD6222E36920461A700222E36924
:1085C8005A70E369320A9A70E3690422DE70E1693D
:1085D80002F011FF051E01A818BF0125FFF761FD74
:1085E800284602B070BD73B504460E46FFF76CFE10
:1085F8000546C8B1214601A8FFF748FD7222E36984
:1086080020461A700222E3695A70E369320A9A70A6
:10861800E3690422DE70E16902F0EDFE051E01A89F
:1086280018BF0125FFF73DFD284602B070BD2DE9B2
:10863800F04F2DED028B87B000AF0446FFF744FEE4
:108648008146F8B1214607F11400FFF71FFD00F03D
:10865800C5F94FF47A72236D06465343A26A821A0B
:108668009A4203D8626A821A934221D294F82C3033
:108678007BB1204603F044F94FF0000907F11400DC
:10868800FFF70FFD48461C37BD46BDEC028BBDE821
:10869800F08FC021E26920461170E2695370E169E8
:1086A800022202F0A8FE0123C4E9096684F82C30EE
:1086B800204603F0CBF80028E0D0204607F113014C
:1086C800FFF75AFD83460028D8D0E369A6621978D7
:1086D80001F0F002302A7FD1D4F830A0BAF1000FAF
:1086E800CCD06A4697F813C008EE102A03EB0C02A8
:1086F8005178957805EB01256946ADB205F1080278
:10870800D208A1EBC202954668460CF10302FA6052
:1087180003EB020E0DEB0502C7F808D07A60D7E923
:1087280001218A4206D00A461EF8018B02F8018B05
:10873800BA60F4E70022425593F80080F96808F01F
:108748000608ABEB0C02033AB8F1020FA2EB0502E4
:10875800294425D113F801E0194491F801B00CF12E
:1087680005012944023A19440BEB0E2BD04740224D
:10877800E3691FFA8BFB1A70E36983F80180E369E8
:108788004FEA1B229A70E369042283F803B020465B
:10879800E16902F030FE666218EE103A9D466DE718
:1087A800B8F1040F15D113F801E0194491F801B09C
:1087B8000CF105012944023A19440BEB0E2BD04762
:1087C8005022E3691FFA8BFB1A700222E3695A7080
:1087D800D5E71944D047DFE7502A08D19A78D978E5
:1087E800204601EB022189B2FFF7D9FE46E7402A6D
:1087F80012D1626B002A3FF441AFBBF1040F7FF442
:108808003DAF11F0060F7FF439AF9978D87800EBB7
:10881800012080B2904731E7602A08D19A78D97848
:10882800204601EB022189B2FFF7DDFE26E7702A18
:10883800DFD0902A3FF422AFC02A0AD1D0221A7082
:108848000022E36920465A70E169022202F0D3FD52
:1088580014E7D02A04BF002384F82C300EE7F7B5BC
:1088680004460F461646FFF72FFD054610B321466E
:1088780001A8FFF70BFC238C01339BB2EBB12384D7
:10888800238CE2691B0A5371E369228C39469A7179
:10889800E26907232046FFF7FCFCE36982211E54A6
:1088A800043883B2E2692046FFF7B8FC054601A800
:1088B800FFF7F7FB284603B0F0BD0123DFE70022EE
:1088C800FFF7CDBF09B504480068044B03441B6893
:1088D8001B6B029309BD0000C8AA071030000000F6
:1088E80009B504480068044B03441B689B6B02935A
:1088F80009BD0000C8AA07103000000009B50448E7
:108908000068044B03441B681B6C029309BD0000FC
:10891800C8AA07103000000009B504480068044BD5
:1089280003441B685B6C029309BD0000C8AA0710CA
:108938003000000009B504480068044B03441B6874
:108948009B6C029309BD0000C8AA07103000000004
:1089580009B504480068044B03441B68DB6C0293A8
:1089680009BD0000C8AA07103000000009B5044876
:108978000068044B03441B685B6D029309BD00004B
:10898800C8AA07103000000009B504480068044B65
:1089980003441B685B6D029309BD0000C8AA071059
:1089A8001C00000009B504480068044B03441B6818
:1089B8005B68029309BD0000C8AA07100000000008
:1089C80009B504480068044B03441B68DB6802933C
:1089D80009BD0000C8AA07100000000009B5044836
:1089E8000068044B03441B685B69029309BD0000DF
:1089F800C8AA07100000000009B504480068044B25
:108A080003441B689B6A029309BD0000C8AA0710AB
:108A18000000000009B504480068044B03441B68C3
:108A28005B6C029309BD0000C8AA07100000000093
:108A380009B504480068044B03441B689B6C029307
:108A480009BD0000C8AA07100000000009B50448C5
:108A58000068044B03441B689B6D029309BD00002A
:108A6800C8AA07100000000009B504480068044BB4
:108A780003441B685B6E029309BD0000C8AA071077
:108A88000000000009B504480068044B03441B6853
:108A98009B68029309BD0000C8AA071014000000D3
:108AA80009B504480068044B03441B68DB6802935B
:108AB80009BD0000C8AA07101400000009B5044841
:108AC8000068044B03441B681B69029309BD00003E
:108AD800C8AA07101400000009B504480068044B30
:108AE80003441B681B6A029309BD0000C8AA07104B
:108AF8001000000009B504480068044B03441B68D3
:108B08005B6A029309BD0000C8AA071010000000A4
:108B180009B504480068044B03441B689B6A029328
:108B280009BD0000C8AA07101000000009B50448D4
:108B38000068044B03441B68DB6A029309BD00000C
:108B4800C8AA07101000000009B504480068044BC3
:108B580003441B681B6B029309BD0000C8AA0710D9
:108B68001000000009B504480068044B03441B6862
:108B78005B6B029309BD0000C8AA07101000000033
:108B880009B504480068044B03441B681B6C029336
:108B980009BD0000C8AA07101000000009B5044864
:108BA8000068044B03441B685B69029309BD00001D
:108BB800C8AA07105400000009B504480068044B0F
:108BC80003441B685B69029309BD0000C8AA07102B
:108BD8004C00000009B504480068044B03441B68B6
:108BE8001B6A029309BD0000C8AA07104C000000C8
:108BF80009B504480068044B03441B689B6A029348
:108C080009BD0000C8AA07104C00000009B50448B7
:108C18000068044B03441B689B68029309BD00006D
:108C2800C8AA07105000000009B504480068044BA2
:108C380003441B68DB68029309BD0000C8AA07103B
:108C48005000000009B504480068044B03441B6841
:108C58009B69029309BD0000C8AA07102000000004
:108C680009B504480068044B03441B68DB69029398
:108C780009BD0000C8AA07102000000009B5044873
:108C88000068044B03441B681B6A029309BD00007B
:108C9800C8AA07102000000009B504480068044B62
:108CA80003441B689B6A029309BD0000C8AA071009
:108CB8002000000009B504480068044B03441B6801
:108CC8001B6B029309BD0000C8AA07102000000012
:108CD80009B504480068044B03441B689B6B029366
:108CE80009BD0000C8AA07102000000009B5044803
:108CF8000068044B03441B68DB69029309BD00004C
:108D0800C8AA07101800000009B504480068044BF9
:108D180003441B681B6A029309BD0000C8AA071018
:108D28001800000009B504480068044B03441B6898
:108D38009B68029309BD0000C8AA07102400000020
:108D480009B504480068044B03441B68DB680293B8
:108D580009BD0000C8AA07102400000009B504488E
:108D68000068044B03441B681B69029309BD00009B
:108D7800C8AA07102400000009B504480068044B7D
:108D880003441B685B69029309BD0000C8AA071069
:108D98002400000009B504480068044B03441B681C
:108DA8009B69029309BD0000C8AA071024000000AF
:108DB80009B504480068044B03441B68DB69029347
:108DC80009BD0000C8AA07102400000009B504481E
:108DD8000068044B03441B681B6A029309BD00002A
:108DE800C8AA07102400000009B504480068044B0D
:108DF80003441B689B6A029309BD0000C8AA0710B8
:108E08002400000009B504480068044B03441B68AB
:108E1800DB6A029309BD0000C8AA071024000000FD
:108E280009B504480068044B03441B681B6C029393
:108E380009BD0000C8AA07102400000009B50448AD
:108E48000068044B03441B681B68029309BD0000BB
:108E5800C8AA07103400000009B504480068044B8C
:108E680003441B685B68029309BD0000C8AA071089
:108E78003400000009B504480068044B03441B682B
:108E88009B68029309BD0000C8AA071034000000BF
:108E980009B504480068044B03441B681B69029326
:108EA80009BD0000C8AA07103400000009B504482D
:108EB8000068044B03441B685B69029309BD00000A
:108EC800C8AA07103400000009B504480068044B1C
:108ED80003441B689B69029309BD0000C8AA0710D8
:108EE8003400000009B504480068044B03441B68BB
:108EF800DB69029309BD0000C8AA0710340000000E
:108F080009B504480068044B03441B681B6A0293B4
:108F180009BD0000C8AA07103400000009B50448BC
:108F28000068044B03441B681B68029309BD0000DA
:108F3800C8AA07106C00000009B504480068044B73
:108F480003441B689B68029309BD0000C8AA071068
:108F58006C00000009B504480068044B03441B6812
:108F68001B69029309BD0000C8AA07106C00000025
:108F780009B504480068044B03441B685B69029305
:108F880009BD0000C8AA07106C00000009B5044814
:108F98000068044B03441B681B6D029309BD000065
:108FA800C8AA07105C00000009B504480068044B13
:108FB80003441B685B6B029309BD0000C8AA071035
:108FC8004800000009B504480068044B03441B68C6
:108FD8001B6D029309BD0000C8AA071048000000D5
:108FE80009B504480068044B03441B685B6D029391
:108FF80009BD0000C8AA07104800000009B50448C8
:109008000068044B03441B68DB6E029309BD000033
:10901800C8AA07104800000009B504480068044BB6
:1090280003441B681B6F029309BD0000C8AA071000
:109038004800000009B504480068044B03441B6855
:109048001B68029309BD0000C8AA071008000000A9
:1090580009B504480068044B03441B685B68029325
:1090680009BD0000C8AA07100800000009B5044897
:109078000068044B03441B685B69029309BD000048
:10908800C8AA07100800000009B504480068044B86
:1090980003441B681B6A029309BD0000C8AA071095
:1090A8000800000009B504480068044B03441B6825
:1090B800DB6A029309BD0000C8AA07100800000077
:1090C80009B504480068044B03441B689B6D029370
:1090D80009BD0000C8AA07100800000009B5044827
:1090E8000068044B03441B68D3F88830029309BD19
:1090F800C8AA07100800000009B504480068044B16
:1091080003441B68D3F89430029309BDC8AA07101A
:109118000800000009B504480068044B03441B68B4
:10912800D3F8AC30029309BDC8AA071008000000A4
:1091380009B504480068044B03441B681B68029384
:1091480009BD0000C8AA07102C00000009B5044892
:109158000068044B03441B685B68029309BD000068
:10916800C8AA07102C00000009B504480068044B81
:1091780003441B689B68029309BD0000C8AA071036
:109188002C00000009B504480068044B03441B6820
:109198005B69029309BD0000C8AA07102C000000F3
:1091A80009B504480068044B03441B685B6A0293D2
:1091B80009BD0000C8AA07102C00000009B5044822
:1091C8000068044B03441B681B6B029309BD000035
:1091D800C8AA07102C00000009B504480068044B11
:1091E80003441B68DB6B029309BD0000C8AA071083
:1091F8002C00000009B504480068044B03441B68B0
:109208005B68029309BD0000C8AA07102800000087
:1092180009B504480068044B03441B689B68029323
:1092280009BD0000C8AA07102800000009B50448B5
:109238000068044B03441B68DB68029309BD000007
:10924800C8AA07102800000009B504480068044BA4
:1092580003441B681B69029309BD0000C8AA0710D4
:109268002800000009B504480068044B03441B6843
:109278005B69029309BD0000C8AA07102800000016
:1092880009B504480068044B03441B689B690293B2
:1092980009BD0000C8AA07102800000009B5044845
:1092A8000068044B03441B68DB69029309BD000096
:1092B800C8AA07102800000009B504480068044B34
:1092C80003441B681B6A029309BD0000C8AA071063
:1092D8002800000009B504480068044B03441B68D3
:1092E8009B6A029309BD0000C8AA07102800000065
:1092F80009B504480068044B03441B681B6B0293C0
:1093080009BD0000C8AA07102800000009B50448D4
:109318000068044B03441B685B6B029309BD0000A3
:10932800C8AA07102800000009B504480068044BC3
:1093380003441B681B6C029309BD0000C8AA0710F0
:109348002800000009B504480068044B03441B6862
:109358005B6C029309BD0000C8AA07102800000032
:1093680009B504480068044B03441B685B6D02930D
:1093780009BD0000C8AA07102800000009B5044864
:109388000068044B03441B689B6D029309BD0000F1
:10939800C8AA07102800000009B504480068044B53
:1093A80003441B681B68029309BD0000C8AA071084
:1093B8000400000009B504480068044B03441B6816
:1093C8005B68029309BD0000C8AA071004000000EA
:1093D80009B504480068044B03441B689B68029362
:1093E80009BD0000C8AA07100400000009B5044818
:1093F8000068044B03441B681B69029309BD000005
:10940800C8AA07100400000009B504480068044B06
:1094180003441B68DB69029309BD0000C8AA071052
:109428000400000009B504480068044B03441B68A5
:109438005B6A029309BD0000C8AA07100400000077
:1094480009B504480068044B03441B68DB6A0293AF
:1094580009BD0000C8AA07100400000009B50448A7
:109468000068044B03441B681B6B029309BD000092
:10947800C8AA07100400000009B504480068044B96
:1094880003441B68DB6B029309BD0000C8AA0710E0
:109498000400000009B504480068044B03441B6835
:1094A8001B6C029309BD0000C8AA07100400000045
:1094B80009B504480068044B03441B685B6C0293BD
:1094C80009BD0000C8AA07100400000009B5044837
:1094D8000068044B03441B689B6C029309BD0000A1
:1094E800C8AA07100400000009B504480068044B26
:1094F80003441B68DB6C029309BD0000C8AA07106F
:10950800040000000021FFF7B1BD38B50468054626
:109518007CB16368013B63605BB9236820469B6844
:109528009847A368013BA3601BB923682046DB6802
:109538009847284638BD10B543680446013B436048
:1095480063B903689B689847A368013BA3602BB97C
:1095580023682046BDE81040DB68184710BD70B589
:109568000446D0E9005305EB0316AE4204D0284662
:1095780001F070FC1035F8E72068FFF71BFF204664
:1095880070BD0000002302480360FFF7C5B900BFA3
:1095980004AE071010B588B00446684601F0A5FC73
:1095A800694604A801F0EDFC04A8A047044604A8F5
:1095B80001F050FC684601F04DFC204608B010BD93
:1095C8001FB500231024CDE90201019269461A460D
:1095D8001846ADF80230ADF80040FFF7B7FD04B00B
:1095E80010BD002240681146FFF766BE00224068A1
:1095F8001146FFF78BBE00224068FFF779BE0022B4
:10960800406881F00101FFF749BE002340681A460F
:109618001946FFF735BE002340681A461946FFF77A
:1096280021BE002240681146FFF70EBE00224068A6
:109638001146FFF7EDBD002202214068FFF7F6BD95
:10964800002340681A46FFF7D5BD00000322024BED
:109658005A60024A1A60704708AE0710D0F73F02F6
:109668007047F8B5064615460C468F18BC4206D01A
:10967800336830469B6814F8011B9847F6E728467C
:10968800F8BD0022007CFFF727BA0021007CFFF715
:1096980031BA0021007CFFF73BBA0021007CFFF7BC
:1096A80045BA0021007CFFF74FBA10B504461421D3
:1096B800FCF7F3FB204610BD38B5044615464FF4B9
:1096C8007A730022C4E90123094B084621742360F8
:1096D8002946FFF755FABF3008D16B69DB0705D576
:1096E8006868FFF767FEE868FFF764FE204638BD44
:1096F80014F83F02704710B504461821FCF7CDFB5B
:10970800204610BDF0B5037D0E46062B4FF0000431
:109718008DB000F1040712D000F1080515F8011DFD
:109728000A22304601F007FBAF42044419D0002C4E
:10973800F4D02E21304601F0FBFA0444EEE72F2343
:109748006A4639460A208DF80040FFF735FA684620
:10975800FCF760FB3368024669463046DB68984789
:10976800044620460DB0F0BD10B50446044B112246
:10977800002140F8043B03F01EF8204610BD00BF4E
:109788003CF83F020346074A10B543F8042B01F1A1
:10979800100251F8044B914243F8044BF9D10A786E
:1097A8001A7010BD3CF83F02037D042B04D14068B9
:1097B800003818BF01207047062B07D143683BB912
:1097C80083682BB9C3681BB90069F1E700207047AB
:1097D8000120704710B59DF8084044EA032343EA86
:1097E8000242042342EA01614160037510BD000092
:1097F80007B5064B0360CB7800938B784A780978D5
:10980800FFF7E8FF03B05DF804FB00BF3CF83F0238
:10981800012200F1100313F8101C1846012908D181
:1098280053F8041C02EB4102013A03F11003F2D190
:109838007047022904BF53F8041C5218F4E70EB409
:10984800F0B588B0102100AF07F1340555F8042BA6
:1098580004462B4678187A60FD60FFF7E3FD0F2871
:109868007A681AD900F1080323F007036E46ADEBB6
:10987800030D411C2B466846FD60FFF7D3FD021E11
:1098880004DD2368694620469B689847B54620371B
:10989800BD46BDE8F04003B070470028F7D0236804
:1098A80002469B68204607F110019847EFE738B554
:1098B8000B68044603604D6843689D4208D015B1A3
:1098C8006B6801336B60606808B1FFF734FE656050
:1098D80038BD07B503688DF8071001229B680DF1A4
:1098E8000701984703B05DF804FB0B4611460022B8
:1098F80010B50446C0E9002283600BB9204610BDAC
:10990800FFF7D5FFFAE78368EBB11A78032A1AD86C
:10991800DFE802F00417021B0520704702685B6845
:109928005268D05C2D2812D0A0F13003092B0ED933
:1099380074280ED066280CD0A0F16E035842584106
:1099480070470620704700207047042070470320A6
:1099580070470220704710B50446FFF7D4FF02286D
:109968000ED0C31EDBB2012B14D82268A36850683E
:109978005B680A22BDE810400021184403F058BE75
:109988002268A36852685B68D05CA0F174035842EF
:10999800584110BD0020FCE738B500230446C0E953
:1099A80000330E48C4E90203A9B10B78032B06D093
:1099B8008BB9136858684B68C35C6E2B07D0136863
:1099C8004D6858688B6828445B1BA060E3601146AB
:1099D8002046FFF76CFF204638BD00BF95F83F02D0
:1099E80038B500250B4604461146C0E90055C0E9C4
:1099F8000255C0E904554BB11A78012A06D103F182
:109A08001002DB6882604361FFF751FF204638BDD2
:109A180010B54369044663B18068013BE0601030CB
:109A2800A0602061636113B1FFF7F2FEA06001201E
:109A380000E0184610BD10B57D210446FFF749FF28
:109A480001232046237110BD08B50379012B02D0EC
:109A5800022B04D008BD2C21FFF73BFFFAE73A217F
:109A6800FAE710B50446FFF7EFFF20467B21FFF722
:109A780030FF00232046237110BD000013B50446B3
:109A88000191FFF7E1FF23682046DB68019A03494B
:109A9800984701232046237102B010BD88F93F0280
:109AA80013B504460191FFF7CFFF23682046DB6812
:109AB800019A0349984701232046237102B010BD3B
:109AC80048F83F022DE9F0470D469046222104460A
:109AD8002F46FFF7FEFEDFF8A490A8444745BA4694
:109AE8003DD017F8016B222E06D05C2E04D03046EC
:109AF80002F02AFE0028F1D12368294620469B68F7
:109B0800AAEB050298475C212046FFF7E2FE0D2EDE
:109B18000AD8072E1CD9A6F10803052B18D8DFE8A8
:109B280003F00D0F11171315222E01D05C2E0FD143
:109B380031462046FFF7CDFE3D46CFE76221F8E7E4
:109B48007421F6E76E21F4E76621F2E77221F0E767
:109B58002368324649462046DB689847ECE7BD4211
:109B680005D02368294620469B687A1B98472221FE
:109B78002046FFF7AEFEBDE8F08700BF4BF83F0276
:109B880013B50446CDE90021FFF75EFFDDE90021AA
:109B98002046FFF797FF02232046237102B010BD2D
:109BA80013B50446CDE90021FFF74EFFDDE900219A
:109BB8002046FFF787FF01232046237102B010BD1E
:109BC80080680368DB6818477047084611B10B685E
:109BD8005B6818477047704770477047704738B5DB
:109BE80004460D4600682E2102F029FE2368C31A98
:109BF8002B6023B1037803B1013023682060184635
:109C080038BD10B504460C21FCF747F9204610BDB5
:109C180010B504460421FCF740F9204610BD10B5E4
:109C280004460421FCF739F9204610BDFEF790BE22
:109C380008B5FCF7E5F8B0FA80F0400908BD7047B0
:109C480010B50C4602F048F9844205D102F044F9F7
:109C5800BDE8104002F034B902F090FB844205D10F
:109C680002F08CFBBDE8104002F0CDB82CB123689F
:109C78002046BDE810405B68184710BD0B680360BC
:109C88004B68436013B15A6801325A60704713B584
:109C9800044608460191FCF7BDF8024620460199A2
:109CA80002B0BDE81040FFF77BBF13B50446084675
:109CB8000191FCF7AFF80246204623680199DB685A
:109CC80002B0BDE81040184707B503688DF80710C3
:109CD8000122DB680DF10701984703B05DF804FB2A
:109CE80000220176C0E90022C0E90222C0E904226C
:109CF80070470A6810B502604A6842600022C0E9ED
:109D0800022202618C688A608460CC68CA60C46080
:109D18000C690A61046110BD2DE9F74F4FF0140A70
:109D2800D0E90084174645460AFB04F40093174B14
:109D3800A4105C43002C21DD66100AFB06F005EB3D
:109D48000009B9F804B03A465F4528BF5A46285872
:109D5800019102F086FD00284FF0010301990BD113
:109D68005F4503D1009A13703446E3E7FCD9A61B7C
:109D780009F11405013EF7E7F9DBF5E7A5EB08055E
:109D88000248AD10684303B0BDE8F08FCDCCCCCC11
:109D98007FB50369057E019103B3F9B1002600F18F
:109DA8000C04039603A901A8FFF719FF0146A8B1FF
:109DB8000DF10B032046039A8DF80B60FFF7ACFFFB
:109DC8009DF80B3053B12368142404FB0034B4F914
:109DD80006300834002BA8BFDDB2E3E7284604B0FC
:109DE80070BD0EB4F0B58CB000AF07F1440555F85E
:109DF800042B04462B46202107F110007A60FD60F1
:109E0800FFF710FB1F287A681AD900F1080323F01E
:109E180007036E46ADEB030D411C2B466846FD60FB
:109E2800FFF700FB021E04DD236869462046DB6855
:109E38009847B5463037BD46BDE8F04003B0704797
:109E48000028F7D023680246DB68204607F1100196
:109E58009847EFE710B5084CD4E88F3FDB0709D4E3
:109E68002046FCF729F828B12046FCF72AF80348D1
:109E780002F05CFC024810BD14AE071037A63F0282
:109E8800D0AA071010B5084CD4E88F3FDB0709D4D7
:109E98002046FCF711F828B12046FCF712F80348D1
:109EA80002F044FC024810BD18AE07109FA63F02FE
:109EB800D4AA071038B500250446C0E90055C0E902
:109EC80004558560856140F8245FFEF725FDFFF79E
:109ED800C1FFE061FFF7D6FF25732062204638BD39
:109EE80010B50A4CD4E88F3FDB070CD42046FBF7AB
:109EF800E3FF40B10648FFF7DDFF2046FBF7E1FF2F
:109F0800044802F013FC024810BD00BF10AE071051
:109F180020AE071091AE3F020023024A02490348CF
:109F2800FFF77AB879AC3F0205AC3F0285AB3F0238
:109F380000231A4619461846FFF76EB837B5044687
:109F48008D686846FFF79AFE6A4629462046FFF75D
:109F580047FD01A8FFF7D9FA204603B030BD37B551
:109F68000446CD686846FFF789FE6A4629462046BA
:109F7800FFF712FD01A8FFF7C8FA204603B030BD6D
:109F880037B504460D696846FFF778FE6A462946E4
:109F98002046FFF7AAFC01A8FFF7B7FA204603B04E
:109FA80030BD000070B58AB00D46014604A8FFF721
:109FB800C5FF144E04A8FFF72BFDE8B1684604A9B5
:109FC800FFF7CDFF31460298FFF732FE044610B185
:109FD8002C1E18BF012401A8FFF797FA002CE9D01E
:109FE800684604A9FFF7CCFF6846FFF7B4FC286071
:109FF80001A8FFF78AFADDE705A8FFF786FA0AB095
:10A0080070BD00BF51F83F0237B50C4613492046D2
:10A018001546FBF7F5FE50B901F05EFF4FF41651F7
:10A0280001F04AFF03B0BDE8304001F055BF2046BB
:10A038000B49FBF7E5FE78B94FF4165301A92846FA
:10A048000193FFF7AFFF02F099F9019901F0D8FEEB
:10A0580002F094F903B030BD0020FBE756F83F0248
:10A068005DF83F0270B51426D0E90053044606FB9C
:10A078000356AE4205D005F10800FFF7F3FF14358B
:10A08800F7E72068FFF796F9204670BD10B504463B
:10A098000C30FFF7E7FF2046FFF761FA204610BDB6
:10A0A80010B50446034B40F8043BFFF7EFFF20468A
:10A0B80010BD00BFB0F23F0210B50446FFF7F0FF35
:10A0C80020462421FBF7E9FE204610BD10B50446C2
:10A0D800024B0360FFF7E4FF204610BDE4F83F029F
:10A0E80010B50446FFF7F2FF20462421FBF7D5FE02
:10A0F800204610BD0022C0E90022826010B50C681D
:10A108000A6004604C684A6044608C688A608460B5
:10A1180010BD10B5044603681868FEF727FC2046F2
:10A1280010BD00002DE9F04F87B003931C4B80460B
:10A138005B688946C3F3080316466BB9FFF7D0FE80
:10A14800044600F12403406A0593FFF76FFD237B63
:10A158002BB105A8FFF7DDFF07B0BDE8F08F01239D
:10A168005FFA89F92373D4E9005305EB830AAA45FA
:10A1780012D055F8047B3146381DFFF709FE81459A
:10A18800F5D3039A3B680092D3F808B04A463346A1
:10A1980041463846D847EAE700232373D9E700BF8A
:10A1A80000ED00E02DE9F74F9B461A4B80465B68AF
:10A1B8008946C3F3080316466BB9FFF791FE0446B8
:10A1C80000F12403406A0193FFF730FD237B2BB194
:10A1D80001A8FFF79EFF03B0BDE8F08F0123F6B298
:10A1E8002373D4E9005305EB830A55450ED055F87F
:10A1F800047B5946381DFFF7CBFD8642F5D33B68F3
:10A208004A4641463846DB689847EEE70023237301
:10A21800DEE700BF00ED00E02DE9F341164B0546EF
:10A228005B680F46C3F308031BBBFFF759FE0446E0
:10A2380000F12403406A0193FFF7F8FCD4E90063B6
:10A24800462406EB8308B04509D101A8FFF761FF52
:10A25800A542B4BF0020012002B0BDE8F08156F845
:10A26800040B39460430FFF793FD8442A8BF044627
:10A27800E9E70020F0E700BF00ED00E0F8B5D0E91D
:10A2880001539D4204460E460DDB6F1C002F0068EB
:10A2980004DDB900FFF79CF818B9F8BDFFF78AF894
:10A2A80000202060A7602768626807EB850192009C
:10A2B800A2EB8502081D02F064FA47F8256063687E
:10A2C800012001336360E8E737B5044600F1240351
:10A2D800406A01930D46FFF7A9FCD4E9003203EB6D
:10A2E8008202934219460AD009680433A942F8D178
:10A2F80001A8FFF70EFF0025284603B030BD294608
:10A308002046FFF7BBFF05460028F1D06368012B04
:10A3180001D1FFF701FE01A8FFF7FBFEECE70B46B2
:10A3280070B50446D0E9000200EB820282420FD0E9
:10A3380001461D6851F8046BAE4207D1521A02F06B
:10A3480020FA01206368013B636070BD0846EDE7B1
:10A358000020FAE71FB5044600F12403406A019182
:10A368000393FFF763FC204601A9FFF7D8FF18B154
:10A3780063680BB9FFF7DCFD03A8FFF7CAFE04B05A
:10A3880010BD182370B50446D0E9045603FB0656E1
:10A39800AE4215D0204605F11001FFF7C0FF6368F3
:10A3A8000BB9FFF7C5FDE06929690368DB689847C1
:10A3B800696919B1206A0368DB6898471835E7E7C7
:10A3C8001826D4E9045306FB0356AE4204D02846A7
:10A3D80000F040FD1835F8E70023636170BD73B5E0
:10A3E8000446FFF7A5FD04F12403606A0193FFF713
:10A3F8001DFC2046FFF7C5FF01A8FFF78AFE606A2B
:10A4080008B1FEF797FAD4E90453182606FB035659
:10A41800AE4204D0284600F01DFD1835F8E7206943
:10A42800FEF7C8FF2068FEF7C5FF204602B070BDE2
:10A438000148FFF7D4BF00BF20AE07108842F8B527
:10A4480004460D46164615D9904214D2A2F11406B8
:10A45800751AA1F114072C44B7421AD01CB1314621
:10A468002046FFF746FC06F10800FFF7FBFD143E07
:10A47800143CF1E70DD0B5420BD01CB1294620465B
:10A48800FFF737FC05F10800FFF7ECFD143514342D
:10A49800F1E7F8BD8842F8B504460D46164614D9CA
:10A4A800904213D2A2F11006751AA1F110072C449C
:10A4B800B74218D01CB13146204600F048FD30465E
:10A4C80000F0C8FC103E103CF2E70CD0B5420AD0B0
:10A4D8001CB12946204600F03AFD284600F0BAFC97
:10A4E80010351034F2E7F8BD70B50E1E054611DDC3
:10A4F8003001FEF751FF044658B1D5E9001201EBCF
:10A508000212FFF7C7FF2868FEF754FF01202C60EE
:10A51800AE6070BD0024F6E72DE9F04F90460023A9
:10A52800462295B00391D8F8041004469942C0E930
:10A538000033C0E90233C0E90433CDE908330276B9
:10A548000A9323DCD8E90057142303FB0757AF42CB
:10A558003BD029460BA800F0FAFC0BA90FA8099ECE
:10A5680000F0F5FCDDE9091399421BDA089B099A0A
:10A5780003EB0616314603EB021206F11000FFF753
:10A5880089FFEEB9099B0133099311E008A8FFF789
:10A59800ABFF0028D6D108A8FEF7E1FF204615B08A
:10A5A800BDE8F08F013108A8FFF79EFF0028DDD134
:10A5B8000FA800F04FFC0BA800F04CFC1435C6E7C0
:10A5C80030460FA900F0C3FCDCE700264FF0140961
:10A5D800CDE90B660D96DDE908239E427CDA33014E
:10A5E800D35806930BB90136F5E70023079309FB07
:10A5F80006F30BAD029307A906A8FFF7F0FA824607
:10A608000028F0D04FF0000301468DF81730284697
:10A61800079A0DF11703FFF77FFB9DF8177001905C
:10A62800002F4AD1BDF81C30CDE91177ADF8403084
:10A638004FF6FF73CDF83CA0ADF842301397D5E93B
:10A648000132934217DB03F1010ABAF1000F30DD42
:10A6580009FB0AF0FEF7A0FE834660B3D5E90012B5
:10A6680009FB0212FFF7EAFE2868FEF7A3FEC5F809
:10A6780000B0C5F808A02B68019A09FB023A6A687D
:10A68800514609FB02320AF11400FFF7D7FEBAF16E
:10A69800000F03D050460FA9FFF72BFB6B6801335F
:10A6A8006B6011A8FFF7DEFC3FB10BA8FFF7DAFCDF
:10A6B80071E7BB46D8E70127F3E7019B2D6809FB43
:10A6C8000355069B1B782BB9D8F80030029A13441F
:10A6D8001B7CEB8008358EE7216822606268636026
:10A6E800A36809920A9A0A93E368A2600B9A0B93EB
:10A6F8002369E2600C9A0C93636922610D9A0D93A9
:10A70800039B089162612376CFE70000F0B5044609
:10A718002646174687B00D4668461946FBF797FC4C
:10A728000B4B694646F8043B03A8FBF790FC3946F7
:10A7380003AA3046FFF7F0FE03A8FBF747FC68467C
:10A74800FBF744FC2046034B2562236007B0F0BDAD
:10A75800B0F23F02CCF83F02F0B50F4685B038465C
:10A768001C4916461D460A9CFBF74AFBC0B9A4B112
:10A77800294601A8FFF7BEFC2420174901F08EFEE8
:10A78800054630B101AB32462146FFF7BFFF134BF8
:10A798002B6001A8FBF71AFC2C46204605B0F0BD3B
:10A7A80038460F49FBF72CFB90B9002CF5D0294609
:10A7B80001A8FFF79FFC2420074901F06FFE05461A
:10A7C8000028E6D03246214601ABFFF79FFFE0E7BD
:10A7D8000024E2E765F83F02C4FA3F02E4F83F02CA
:10A7E80069F83F02014B024A1A6070471CAE071015
:10A7F8007AF83F022DE9F047089DD0F820900446EA
:10A808000E461746984601F067FB81454DD02B79D7
:10A81800190704D520466A695449FFF7E2FAB8F1E6
:10A82800000F0DD05B212046FFF74EFA4146204627
:10A83800FFF73BFA236802222046DB684C49984719
:10A848002B79DA0724D5D5F808802F21404602F065
:10A858002FF808B100F1010841462046FFF725FA14
:10A868002B799B0708D53A212046FFF72DFA204679
:10A87800EA684049FFF7B5FA2A79236812F0040F0D
:10A8880020464FF00202DB6814BF3B493B4998471A
:10A898002B7958071DD529690B461A4613F8010B61
:10A8A80060B1202808D11946F7E7354800F083F948
:10A8B8000028ACD0BDE8F0872828EED12368521ACA
:10A8C8002046DB689847236804222046DB682D4928
:10A8D800984700213846FEF791FB01462046FFF7CE
:10A8E800E4F9236802222046DB68244998471EB110
:10A8F80031462046FFF7D9F92B7913F0300F2CD0C9
:10A9080023682149DB680222204698472B79D9061B
:10A918000AD52368072220461C49DB689847204649
:10A92800AA691B49FFF75DFA2B799A0611D5DB0650
:10A9380005D5236802222046DB680F49984723681B
:10A94800204614490A22DB6898472046E969FFF740
:10A95800ACF95D212046FFF7B7F923682046BDE82A
:10A96800F0470222DB680C49184700BF7EF83F0217
:10A9780085F83F0288F93F0245F43F02E5F53F02BA
:10A9880048AE0710E3F53F02E8F53F0288F83F02BA
:10A9980090F83F02F5F53F0293F83F022DE9F041A8
:10A9A8000446076A0D46164601F096FA874207D014
:10A9B800206A324603682946BDE8F041DB6818473B
:10A9C800034800F0F8F80028F2D0BDE8F08100BF95
:10A9D80048AE07102DE9F04385B0D0F82090054621
:10A9E8000F4690461E460C9C01F076FA814505D12B
:10A9F800494800F0E0F8002840F08A804FF000094C
:10AA08002B6A464A01A8019203938DF80890FFF734
:10AA180028F849464046FEF7F1FA804640490122A7
:10AA280001A8FFF7ADF84146FFF731F93FB13D49BD
:10AA3800012201A8FFF7A4F83946FFF728F93EB12B
:10AA48003949012201A8FFF79BF83146FFF71FF9A2
:10AA58002379DF070ED5A6682F21304601F028FF9D
:10AA680000B1461C3149012201A8FFF789F8314697
:10AA7800FFF70DF923799E0707D52D49022201A872
:10AA8800FFF77EF8E168FEF7F9FF2379580714D538
:10AA9800266933461F4613F8012B2AB1202A01D113
:10AAA8001E46F7E7282AF5D10222224901A8FFF716
:10AAB80067F83146BA1BFFF773F82379190707D5EA
:10AAC8001D49012201A8FFF75BF86169FEF7E8FF5D
