:02000004085F93
:1050000000505F08FCFF5F0800000600200005015B
:085010000401E015000000009E
:105018001348144908B5884205D0134A824202D081
:10502800124B121A98471248124A0021124B121AB0
:10503800984712481249884205D0124A824202D043
:105048000A4B121A984710481049884205D0104A4E
:10505800824202D0054B121A9847014808BD00BF8A
:10506800C8AA07101CF35F08C0AC07102D0D11105B
:10507800C0AC0710ECAF0710A10E1110885D3F02FD
:10508800B0505F08905D3F02905D3F02B8505F08E6
:0C509800F4FF3F0219505F080000000008
:0850A4004C17E0790100000047
:0850B0009C505F08E4F23F028E
:1050B80081F0004102E000BF83F0004330B54FEAC1
:1050C80041044FEA430594EA050F08BF90EA020F2E
:1050D8001FBF54EA000C55EA020C7FEA645C7FEAC1
:1050E800655C00F0E2804FEA5454D4EB5555B8BFE4
:1050F8006D420CDD2C4480EA020281EA030382EA55
:10510800000083EA010180EA020281EA0303362DE6
:1051180088BF30BD11F0004F4FEA01314FF4801CB9
:105128004CEA113102D0404261EB410113F0004FCB
:105138004FEA03334CEA133302D0524263EB430382
:1051480094EA050F00F0A780A4F10104D5F1200E20
:105158000DDB02FA0EFC22FA05F2801841F100017B
:1051680003FA0EF2801843FA05F359410EE0A5F14F
:1051780020050EF1200E012A03FA0EFC28BF4CF080
:10518800020C43FA05F3C01851EBE37101F0004536
:1051980007D54FF0000EDCF1000C7EEB00006EEB43
:1051A8000101B1F5801F1BD3B1F5001F0CD34908CD
:1051B8005FEA30004FEA3C0C04F101044FEA445224
:1051C80012F5800F80F09A80BCF1004F08BF5FEAAB
:1051D800500C50F1000041EB045141EA050130BD8B
:1051E8005FEA4C0C404141EB0101013C28BFB1F59D
:1051F800801FE9D291F0000F04BF01460020B1FAE8
:1052080081F308BF2033A3F10B03B3F120020CDABA
:105218000C3208DD02F1140CC2F10C0201FA0CF098
:1052280021FA02F10CE002F11402D8BFC2F1200CFD
:1052380001FA02F120FA0CFCDCBF41EA0C019040B3
:10524800E41AA2BF01EB0451294330BD6FEA0404FC
:105258001F3C1CDA0C340EDC04F11404C4F12002E7
:1052680020FA04F001FA02F340EA030021FA04F3F9
:1052780045EA030130BDC4F10C04C4F1200220FA50
:1052880002F001FA04F340EA0300294630BD21FA8E
:1052980004F0294630BD94F0000F83F4801306BF54
:1052A80081F480110134013D4EE77FEA645C18BF48
:1052B8007FEA655C29D094EA050F08BF90EA020FDF
:1052C80005D054EA000C04BF1946104630BD91EAD7
:1052D800030F1EBF0021002030BD5FEA545C05D1DA
:1052E8004000494128BF41F0004130BD14F5800419
:1052F8003CBF01F5801130BD01F0004545F0FE418D
:1053080041F470014FF0000030BD7FEA645C1ABFC1
:10531800194610467FEA655C1CBF0B46024650EAF8
:10532800013406BF52EA033591EA030F41F4002124
:1053380030BD00BF90F0000F04BF0021704730B5AA
:105348004FF4806404F132044FF000054FF000017F
:1053580050E700BF90F0000F04BF0021704730B540
:105368004FF4806404F1320410F0004548BF404215
:105378004FF000013EE700BF42004FEAE2014FEA6A
:1053880031014FEA02701FBF12F07F4393F07F4F45
:1053980081F06051704732F07F4208BF704793F048
:1053A8007F4F04BF41F40021704730B54FF460745B
:1053B80001F0004521F000411CE700BF50EA01025E
:1053C80008BF704730B54FF000050AE050EA010207
:1053D80008BF704730B511F0004502D5404261EB77
:1053E80041014FF4806404F132045FEA915C3FF4B8
:1053F800D8AE4FF003025FEADC0C18BF03325FEA55
:10540800DC0C18BF033202EBDC02C2F1200300FA05
:1054180003FC20FA02F001FA03FE40EA0E0021FA2A
:1054280002F11444BDE600BF70B54FF0FF0C4CF418
:10543800E06C1CEA11541DBF1CEA135594EA0C0FCA
:1054480095EA0C0F00F0DEF82C4481EA030621EA05
:105458004C5123EA4C5350EA013518BF52EA033540
:1054680041F4801143F4801338D0A0FB02CE4FF0F2
:105478000005E1FB02E506F00042E0FB03E54FF022
:105488000006E1FB03569CF0000F18BF4EF0010E1A
:10549800A4F1FF04B6F5007F64F5407404D25FEA16
:1054A8004E0E6D4146EB060642EAC62141EA5551C9
:1054B8004FEAC52040EA5E504FEACE2EB4F1FD0C0B
:1054C80088BFBCF5E06F1ED8BEF1004F08BF5FEA89
:1054D800500E50F1000041EB045170BD06F000463B
:1054E80046EA010140EA020081EA0301B4EB5C04E8
:1054F800C2BFD4EB0C0541EA045170BD41F48011E0
:105508004FF0000E013C00F3AB8014F1360FDEBF04
:10551800002001F0004170BDC4F10004203C35DAE0
:105528000C341BDC04F11404C4F1200500FA05F363
:1055380020FA04F001FA05F240EA020001F0004204
:1055480021F0004110EBD37021FA04F642EB06017A
:105558005EEA430E08BF20EAD37070BDC4F10C04A4
:10556800C4F1200500FA04F320FA05F001FA04F268
:1055780040EA020001F0004110EBD37041F1000154
:105588005EEA430E08BF20EAD37070BDC4F120055F
:1055980000FA05F24EEA020E20FA04F301FA05F2C7
:1055A80043EA020321FA04F001F0004121FA04F26F
:1055B80020EA020000EBD3705EEA430E08BF20EA3F
:1055C800D37070BD94F0000F0FD101F00046400079
:1055D80041EB010111F4801F08BF013CF7D041EAFB
:1055E800060195F0000F18BF704703F000465200FF
:1055F80043EB030313F4801F08BF013DF7D043EAD0
:105608000603704794EA0C0F0CEA135518BF95EA85
:105618000C0F0CD050EA410618BF52EA4306D1D10C
:1056280081EA030101F000414FF0000070BD50EA2B
:10563800410606BF1046194652EA430619D094EAB5
:105648000C0F02D150EA013613D195EA0C0F05D19F
:1056580052EA03361CBF104619460AD181EA0301F3
:1056680001F0004141F0FE4141F470014FF00000AB
:1056780070BD41F0FE4141F4780170BD70B54FF046
:10568800FF0C4CF4E06C1CEA11541DBF1CEA1355C6
:1056980094EA0C0F95EA0C0F00F0A7F8A4EB0504A8
:1056A80081EA030E52EA03354FEA013100F088809F
:1056B8004FEA03334FF0805545EA131343EA126368
:1056C8004FEA022245EA111545EA10654FEA00261D
:1056D8000EF000419D4208BF964244F1FD0404F5D6
:1056E800407402D25B084FEA3202B61A65EB030532
:1056F8005B084FEA32024FF480104FF4002CB6EBEF
:10570800020E75EB030E22BFB61A754640EA0C006E
:105718005B084FEA3202B6EB020E75EB030E22BFAE
:10572800B61A754640EA5C005B084FEA3202B6EBEF
:10573800020E75EB030E22BFB61A754640EA9C00AE
:105748005B084FEA3202B6EB020E75EB030E22BF7E
:10575800B61A754640EADC0055EA060E18D04FEA3C
:10576800051545EA16754FEA06164FEAC30343EADC
:1057780052734FEAC2025FEA1C1CC0D111F4801FA9
:105788000BD141EA00014FF000004FF0004CB6E7A2
:1057980011F4801F04BF01430020B4F1FD0C88BF41
:1057A800BCF5E06F3FF6AFAEB5EB030C04BFB6EB4C
:1057B800020C5FEA500C50F1000041EB045170BD3F
:1057C8000EF0004E4EEA113114EB5C04C2BFD4EB6C
:1057D8000C0541EA045170BD41F480114FF0000EF0
:1057E800013C90E645EA060E8DE60CEA135594EA6C
:1057F8000C0F08BF95EA0C0F3FF43BAF94EA0C0F6F
:105808000AD150EA01347FF434AF95EA0C0F7FF4E3
:1058180025AF104619462CE795EA0C0F06D152EA37
:1058280003353FF4FDAE1046194622E750EA41061B
:1058380018BF52EA43067FF4C5AE50EA41047FF42C
:105848000DAF52EA43057FF4EBAE12E74FF0FF3C91
:1058580006E000BF4FF0010C02E000BF4FF0010C62
:105868004DF804CD4FEA410C7FEA6C5C4FEA430CDB
:1058780018BF7FEA6C5C1BD001B050EA410C0CBF2A
:1058880052EA430C91EA030F02BF90EA020F00208C
:10589800704710F1000F91EA030F58BF994208BFF3
:1058A80090422CBFD8176FEAE37040F001007047B0
:1058B8004FEA410C7FEA6C5C02D150EA013C07D107
:1058C8004FEA430C7FEA6C5CD6D152EA033CD3D052
:1058D8005DF8040B704700BF8446104662468C464C
:1058E8001946634600E000BF01B5FFF7B7FF00287F
:1058F80048BF10F1000F01BD4DF808EDFFF7F4FFA8
:105908000CBF012000205DF808FB00BF4DF808ED32
:10591800FFF7EAFF34BF012000205DF808FB00BF55
:105928004DF808EDFFF7E0FF94BF012000205DF877
:1059380008FB00BF4DF808EDFFF7CEFF94BF01202C
:1059480000205DF808FB00BF4DF808EDFFF7C4FF25
:1059580034BF012000205DF808FB00BF4A0011D2C7
:1059680012F5001211D20DD56FF47873B3EB6252B1
:105978000ED44FEAC12343F0004343EA505323FABD
:1059880002F070474FF00000704750EA013002D132
:105998004FF0FF3070474FF0000070474FEA410268
:1059A800B2F1E04324BFB3F5001CDCF1FE5C0DD975
:1059B80001F0004C4FEAC0024CEA5070B2F1004FBF
:1059C80040EB830008BF20F00100704711F0804FC2
:1059D80021D113F13872BCBF01F00040704741F487
:1059E80080114FEA5252C2F11802C2F1200C10FA8B
:1059F8000CF320FA02F018BF40F001004FEAC1236F
:105A08004FEAD32303FA0CFC40EA0C0023FA02F312
:105A18004FEA4303CCE77FEA625307D150EA0133E8
:105A28001EBF4FF0FE4040F44000704701F00040B8
:105A380040F0FE4040F40000704700BF53B94AB937
:105A4800002908BF00281CBF4FF0FF314FF0FF307E
:105A580000F0D4B9ADF1080C6DE904CE00F058F8A7
:105A6800DDF804E0DDE9022304B0704707EE900A90
:105A7800F5EEC07AF1EE10FA01D400F00BB8F1EEB1
:105A8800677A08B517EE900A00F004F8404261EB17
:105A9800410108BDD0B5FFF76FFC00220B4B06464D
:105AA8000F46FFF7C1FCFFF759FF0446FFF742FC1A
:105AB8000022074BFFF7B8FC02460B463046394632
:105AC800FFF7FAFAFFF74AFF2146D0BD0000F03D84
:105AD8000000F041D0B500220B4B06460F46FFF7F9
:105AE800A3FCFFF73BFF0446FFF724FC0022074B0B
:105AF800FFF79AFC02460B4630463946FFF7DCFAB8
:105B0800FFF72CFF2146D0BD0000F03D0000F0411A
:105B18002DE9F04F099D04460F46002B48D18A42D3
:105B2800944661D9B2FA82F343B1C3F120019F4090
:105B380002FA03FC9C4020FA01F10F434FEA1C4192
:105B48001FFA8CFE220CB7FBF1F601FB167706FB59
:105B58000EF042EA0742904208D91CEB020206F115
:105B6800FF3702D2904200F237813E46121AA4B2A1
:105B7800B2FBF1F001FB102200FB0EFE44EA0244E6
:105B8800A64508D91CEB040400F1FF3202D2A64551
:105B980000F21C81104640EA0640A4EB0E040026E1
:105BA8001DB1DC400023C5E900433146BDE8F08F54
:105BB8008B4209D9002D00F0FD800026C5E90001BF
:105BC80030463146BDE8F08FB3FA83F6002E4BD14C
:105BD8008B42C0F0F280824240F2EF803046002DC6
:105BE800E3D0C5E90047E0E702B9FFDEB2FA82F385
:105BF800002B40F09D80891A4FEA124E97B2012679
:105C0800200CB1FBFEF20EFB121140EA014107FB2A
:105C180002F088420FD91CEB010102F1FF382CBFBA
:105C28004FF001094FF00009884203D9B9F1000F7C
:105C380000F0CF804246091AA4B2B1FBFEF00EFB79
:105C4800101100FB07F744EA0144A74208D91CEBEE
:105C5800040400F1FF3102D2A74200F2B4800846E2
:105C6800E41B40EA02409BE7C6F12007B34001FA73
:105C780006F422FA07FCF940B2404CEA030C20FA79
:105C880007F34FEA1C491C431FFA8CFE00FA06F37F
:105C9800200CB1FBF9F809FB181140EA014108FB97
:105CA8000EF088420FD91CEB010108F1FF3A2CBF16
:105CB8004FF0010B4FF0000B884203D9BBF1000FE6
:105CC80000F08D80D046091AA4B2B1FBF9F009FBA7
:105CD800101100FB0EFE44EA01418E4507D91CEB6A
:105CE800010100F1FF3401D28E457FD8204640EAF9
:105CF8000840A1EB0E01A0FB029841454C46C64660
:105D080002D306D14B4504D20138B9EB020468EB43
:105D18000C0E002D70D01A1B61EB0E0122FA06F34F
:105D280001FA07F7F14000261F43C5E900713CE777
:105D380002FA03FCC3F1200001FA03F221FA00F68B
:105D48004FEA1C4E24FA00F11FFA8CF79C401143CD
:105D5800B6FBFEF00A0C0EFB106642EA064200FB98
:105D680007F696420ED91CEB020200F1FF382CBF51
:105D78004FF001094FF00009964202D9B9F1000F1E
:105D880031D04046921B89B2B2FBFEF60EFB1622BA
:105D980041EA024106FB07F28A4207D91CEB0101DE
:105DA80006F1FF3801D28A4223D84646891A46EAC4
:105DB800004625E72E462846F7E6841A61EB0303DA
:105DC80001201F460BE76444023849E7644402385F
:105DD800E1E6023A61442EE7023E6244C6E6A8F1D3
:105DE800020861446FE702386244CBE70238614435
:105DF8007DE7023E6144D9E72E46D6E6704700BFEC
:105E080010F8012B11F8013B012A28BF9A42F7D05C
:105E1800D01A7047034613F8012B002AFBD1181A31
:105E28000138704738B50022002304460D46FFF7B5
:105E38006DFD28B920462946BDE83840FFF74ABE1F
:105E4800204605F10041FFF745FE404261EB410164
:105E580038BD00BF70B506F073F80025054E064C36
:105E6800A41BA408AC4200D170BD56F8043B984767
:105E78000135F7E7C4FF3F02F4FF3F0200F04AB8DC
:105E880008B500F067F8BDE8084006F011B803F05F
:105E980085B903F083B903F08FB903F08DB9000019
:105EA8000C2008B5024A034902F080FFFEE700BF54
:105EB800A5943F02F4F23F020078B0FA80F040095E
:105EC80070470123037070477047000010B50446FF
:105ED800094B036003F006FF214604F03DF905F085
:105EE800FDFE05F0EFFE2046044B40F8043B03F0AE
:105EF800CFFF204610BD00BF40F33F0228F33F020A
:105F080010B50446FFF7E2FF20462421FFF7C5FF3E
:105F1800204610BD00B5002089B002F039FF684660
:105F28000A4904F0E4FE0A4904A804F0E0FE00224D
:105F380004A9684600F0D0FB04A804F08DFE68466A
:105F480004F08AFE09B05DF804FB00BF09F33F02C4
:105F580016F33F0200F0A2B970B51426D0E9005339
:105F6800044606FB0356AE4204D0284604F074FEED
:105F78001435F8E7206803F01FF9204670BD884201
:105F8800F8B504460D46164616D9904215D2A2F128
:105F98001406751AA1F114072C44B7421CD02CB171
:105FA8003146204604F0D5FE337C2374304604F095
:105FB80053FE143E143CF0E70ED0B5420CD02CB181
:105FC8002946204604F0C5FE2B7C2374284604F09D
:105FD80043FE14351434F0E7F8BD00232DE9F041F1
:105FE800C0E9003383604F6804469F420E4624DDB3
:105FF8004FF0140808FB07F003F0D0F80546E0B1AD
:10600800D4E9001208FB0212FFF7B9FF206803F079
:10601800D3F82560A760D6E9007308FB0378B84574
:1060280009D03946284604F0AEFE3B7C143505F805
:10603800043C1437F3E7736863602046BDE8F081D9
:1060480070B50024234B244A8CB09A60C3E90044FD
:10605800012002F0FFFE2146012002F025FFCDE9D4
:106068000044029405F03AFE1C4C05462646694653
:1060780003A8FFF7B2FF03A906A8FFF7AEFF184B66
:1060880006A946F8043B09A8FFF7A7FF09AA1E219D
:10609800304604F043F909A8FFF75EFF06A8FFF7AA
:1060A8005BFF104B2562236003A8FFF755FF0E4BDB
:1060B800236005F013FE4FF4165105F0FFFD03F0C1
:1060C80011FE214604F002F86846FFF745FF0CB0C0
:1060D80070BD00BFC0AC07100000FFFFCCAC0710BC
:1060E80028F33F02CCF83F0240F33F02014B1A600D
:1060F800704700BFCCAA071030B585B00446089891
:1061080060B1406850B1856845B1CDE90241CDE93B
:106118000023C4686A4601AB02A9A04705B030BD98
:1061280030B51368006885B001938368D1E90045EC
:10613800CDE902450BB906F0B7F8C36801AA02A970
:10614800984705B030BD012A02D101600020704790
:10615800022A04BF0B680360F8E703681268D1E9F4
:106168000001184710B58368044613B1032201469D
:106178009847204610BD10B5044638B1FFF7F2FF26
:106188002046BDE810401021FFF787BE10BD000073
:1061980008B50248FFF7E6FF08BD00BFF4AC0710DA
:1061A80038B50A4DD5E88F4F14F001040CD12846B4
:1061B800FFF782FE40B1064B28469C601C74FFF72F
:1061C80080FE044806F0B6F9014838BDF0AC071067
:1061D800F4AC0710716E3F0210B54FF0200C044666
:1061E800084600218AB0CDE90023CDE902C10B465B
:1061F80002AA216802F0F6FD0AB010BD0EB403B57C
:1062080003AB53F8042B32210193FFF7E5FF02B0EB
:106218005DF804EB03B070470EB403B503AB53F855
:10622800042B1E210193FFF7D7FF02B05DF804EBA2
:1062380003B070470EB403B503AB53F8042B012128
:106248000193FFF7C9FF02B05DF804EB03B0704794
:1062580000B50F4B97B0202200210EA80D9306F031
:10626800AEF9FFF79DFF04A905F069FDFFF798FF58
:10627800084A094B01A9CDE901232123039305F01D
:1062880051FDFFF78DFF05F052FD17B05DF804FBD7
:10629800240001000C000100E093040008B501F09F
:1062A80073FC0C4B186801F043FA0B4B1A68002A70
:1062B80009DB0A490A48FFF7A1FF4FF4FA6003F027
:1062C80023F804F067FFFFF76BFFBDE8084005F00F
:1062D80032BD00BF58AD0710CCAA071050F33F02DB
:1062E8001CAE071010B590B004460CA804F0FFFCD3
:1062F8000CA804F0D6FE0146684604F044FD0CA83C
:1063080004F0AAFC214604A804F0F1FC1D490CA8DD
:1063180004F0EDFC04A90CA804F0E0FD1A4904F00F
:10632800E9FD694604F0DAFD184904F0E3FD016867
:106338001748FFF771FF0CA804F08EFC154B04A852
:106348001C6804F0A0FE014608A804F01CFD68467D
:1063580004F099FE01460CA804F015FD0CAA08A942
:10636800204600F019FD0CA804F076FC08A804F0FB
:1063780073FC04A804F070FC684604F06DFC10B0CF
:1063880010BD00BF6FF33F0296F33F0299F33F023F
:106398001CAE071058AD0710F0B502F1080399B00C
:1063A80023F007036E4600AFADEB030D05466846C4
:1063B800144606F0DDF8002369460DF80430384627
:1063C80004F095FC384604F05EFE014607F1100023
:1063D80004F0D9FC294607F1200004F088FC07F1F5
:1063E800200004F050FE014607F1300004F0CBFC19
:1063F8002D4907F1500004F07AFC07F1500107F12C
:10640800200004F0F1FD044607F1500004F024FCDC
:1064180094B107F1300004F01FFC07F1200004F0EC
:106428001BFC07F1100004F017FC384604F014FCBC
:10643800B5466437BD46F0BD1C4B07F130011C68FA
:1064480007F1400004F09FFC07F1100107F150002C
:1064580004F099FC07F1500207F14001204600F0D2
:10646800E7FF07F1500004F0F7FB07F1400004F0E4
:10647800F3FB07F1300107F1400004F084FC07F159
:10648800100107F1500004F07EFC07F1500107F1FC
:10649800400001F0D3FB07F1500004F0DDFB07F1E9
:1064A800400004F0D9FBB4E79BF33F0258AD071056
:1064B80070B505468EB00192134A0C4602A81349DE
:1064C800166804F060FC124902A804F013FD29467E
:1064D80004F004FD014606A804F055FC21460AA86C
:1064E80004F051FC019B0AAA06A9304600F056FBAD
:1064F8000AA804F0B1FB06A804F0AEFB02A804F059
:10650800ABFB0EB070BD00BF58AD071008AD07104B
:10651800BCF73F0201F072BB10B5044688B01449BD
:1065280004A804F0E4FB0A222146684604F061FC52
:10653800694604A804F0D2FC01680E48FFF77AFE09
:10654800684604F089FB04A804F086FB07EE904A2D
:10655800B8EEE70A8DF8104005F08AF905F08AFDD3
:10656800012204A9104602F065F908B010BD00BF69
:106578009FF33F021CAE071038B505F0D3FA054665
:1065880005F0C4FA044605F0B5FA072C1FDD6B1EAA
:10659800052B1AD8DFE803F0030F11131517082C81
:1065A80001D1012813DD0A490A48FFF743FEBDE877
:1065B800384005F07DB9082C09D0092C07DD0A2CD4
:1065C80005DD0B2C03DD0C2C01DD0D2CEAE738BDB5
:1065D800ADF33F021CAE071038B505F0A3FA054627
:1065E80005F094FA044605F085FA072C0BDC6B1EBF
:1065F800052B13D8DFE803F003080A0C0E10012C52
:106608000CD101280ADD38BD022CFBE7032CF9E781
:10661800042CF7E7052CF5E7072CF4D003490448C8
:10662800FFF708FEBDE8384005F042B9ADF33F0278
:106638001CAE071000B58BB005F01CFD01220DF152
:106648000701104602F0E8F8194906A804F04FFBC4
:106658000A229DF9071002A804F0CBFB02A906A89C
:1066680004F03CFC01681348FFF7E4FD02A804F0BD
:10667800F3FA06A804F0F0FA9DF9073000EE103A94
:10668800B8EEC00A05F0F4F805F054FA031F062B1B
:1066980004D805F00DF90BB05DF804FB032802D10E
:1066A800FFF76AFFF7E70B28F5D1FFF795FFF2E749
:1066B800B7F33F021CAE071038B5002383608B6820
:1066C80004460D462BB102229847EB68E360AB689D
:1066D800A360204638BD00002DE9F0474FF0000ABE
:1066E800474B98B00493474B80460793464B8946DF
:1066F80008A804A91746069310ADFFF7DDFF08A9FF
:106708000CA8FFF7D9FF0CA92846FFF7D5FF1020E2
:10671800CDF858A0FFF7BBFB0446A0B195E80300ED
:1067280001AE86E8030094E8030085E8030096E8D4
:106738000300129BE268A36084E80300139BCDF872
:1067480048A01392E3600026304B10201793304B7B
:10675800149416932F4B0396CDE90136FFF797FB58
:106768000446D8B1169B866033B1022214A9984713
:10677800179BE360169BA360274B4FF4802003937D
:106788000021264A01AB029402F080FB30B120467A
:10679800FFF7E8FC10212046FFF77FFB14A8FFF75E
:1067A800E1FC2846FFF7DEFC0CA8FFF7DBFC08A895
:1067B800FFF7D8FC04A8FFF7D5FCFFF73BFF01F073
:1067C80063FAFFF745FD4146284604F0DCFA4946DE
:1067D80014A804F0D8FA6820FFF759FB044620B142
:1067E8003B46294614AA00F0EFF80D4B14A81C608C
:1067F80004F032FA284604F02FFA18B0BDE8F08702
:10680800CD6D3F023B6E3F02276E3F02016E3F0295
:1068180005753F0202000C00576E3F02D96D3F021A
:1068280058AD0710012A37B5044604D10B68036038
:10683800002003B030BD022A0CD0032AF8D1046826
:10684800002CF5D02046FFF78DFC10212046FFF7DD
:1068580024FBEDE7096810200191FFF718FB0546B6
:1068680010B10199FFF728FF2560E1E708B50B494A
:106878000B4804F03CFA0B490B4804F038FA0B4972
:106888000B4804F034FA0B490B4804F030FABDE821
:1068980008400A490A4804F02ABA00BFCCF33F026C
:1068A80038AD0710D4F33F0248AD0710DEF33F02BE
:1068B80028AD0710E5F33F0208AD0710EDF33F02DE
:1068C80018AD071010B50446064B40F8283B04F0F5
:1068D800C3F92046044B40F8043B03F0D9FA20469C
:1068E80010BD00BF80F63F0228F33F0210B50446F2
:1068F800FFF7E8FF20466821FFF7CFFA204610BDD2
:1069080000224068114602F0A1BB0EB403B503ABE8
:1069180053F8042B28210193FFF75EFC02B05DF8C1
:1069280004EB03B07047406A01F0D0BB70B5044671
:1069380092B020490EA804F026FA04F128051E4951
:106948000EA804F0D7FA294604F0C8FA1B4904F047
:10695800D1FA014606A804F016FA0EA804F07CF94C
:1069680017490AA804F0C3F929460EA8666A04F074
:106978000AFA14490EA804F0BDFA00230422CDE94E
:1069880004320A9A0193CDE90232069A009201680C
:106998001A46304601F0A8FB0EA804F05DF905F090
:1069A80098F8A0630AA804F057F906A804F054F967
:1069B80012B070BD60AD0710BCF73F02F5F33F029F
:1069C800FDF33F0205F43F022DE9FF410446254649
:1069D80090461F46324B0E4640F8043B1E2103F0FA
:1069E80081F8304B304945F8283B284604F07FF9B8
:1069F800404604F048FB0146284604F0B5F9002556
:106A08000121072084F82010C4E91155E56405F038
:106A180007FB2946072005F014FB24492448FFF703
:106A2800FBFB3168602084F860500391FFF72FFA70
:106A3800064630B140F25B721E4B0399009501F097
:106A48006BFA20466662FFF771FF47B103F04AF917
:106A5800214603F03BFB18491548FFF7DDFB0023EF
:106A6800CDE9003315481A461549006802F09AFA2C
:106A780005F02FF8B438E06305F02BF8206505F031
:106A880028F8606505F025F8A06505F022F8E065AE
:106A980005F01FF82064204604B0BDE8F08100BF6F
:106AA80028F33F0280F63F0295F83F0208F43F02C0
:106AB8001CAE071079703F021BF43F0260AD07104F
:106AC800C56F3F0208B507490748FFF71EFF01F0E9
:106AD8004DF8C82002F018FC044B1868BDE80840BF
:106AE80004F054BB32F43F021CAE071070AD07101F
:106AF80010B5044604F0EDFF236C3C3398421BDDCF
:106B080004F0E7FF20641E48FFF7FAFE90B3606ABE
:106B180001F0DCFA28B394F8603073B919491A48BF
:106B2800FFF77AFB04F0D5FF1849A063606A01F00B
:106B3800C8FD012384F8603010BD04F0CAFFA36BC0
:106B480003F596739842F7DD11490F48FFF756FB96
:106B58004FF47A7002F0D8FB2046BDE81040FFF7EA
:106B6800B1BF09480B49FFF757FB2046BDE8104065
:106B7800FFF7DCBE08490448FFF74EFBDCE700BF1F
:106B8800D0AE07103FF43F021CAE07105EF43F0280
:106B980060F43F026EF43F028BF43F022DE9F041AE
:106BA800074688B0406A0E461546984601F08EFAA8
:106BB80098B11548FFF7A4FE044670B100232A686F
:106BC800CDE901833168AB68786ACDF8008001F0BF
:106BD800D9FB204608B0BDE8F0810C4904A804F0B0
:106BE80086F8314604A804F079F9094904F082F9D5
:106BF800294604F073F901680648FFF786FE04A8E1
:106C080004F02AF80024E4E7D0AE07109AF43F0213
:106C1800BDF43F021CAE071010B5044692B004F054
:106C280058FFE36BB433984232DD04F052FFE0635F
:106C380004F04FFF174B024617490093C31702A8E9
:106C480004F0E8FE15490AA804F09DF814490AA8BA
:106C580004F050F904F1280104F040F9014606A8AF
:106C680004F091F802A90EA804F08DF800230EAAEA
:106C780006A92046FFF792FF0EA803F0EDFF06A82D
:106C880003F0EAFF0AA803F0E7FF02A803F0E4FF15
:106C980012B010BDC0F43F0270AE071060AD07100F
:106CA800C9F43F02F0B50F4616468DB004461549A3
:106CB80068461D4604F067F86846134904F01AF957
:106CC800394604F00BF9114904F014F9314604F07F
:106CD80005F9014604A804F056F8294608A804F066
:106CE80052F8002308AA04A92046FFF757FF08A86E
:106CF80003F0B2FF04A803F0AFFF684603F0ACFF4F
:106D08000DB0F0BD60AD0710D1F43F02BCF73F02F3
:106D180038B50C4605461949204604F022F930BB1F
:106D28002046174904F01DF918BB2046154904F000
:106D380018F918B1282385F8203017E020461249A1
:106D480004F00FF90028F5D12046104904F009F99C
:106D580088B920460E4904F004F908B10123EAE78E
:106D680020460C4904F0FDF80028F7D138BD462329
:106D7800E1E73223DFE71E23DDE700BFD7F43F0258
:106D8800DCF43F02E2F43F02E7F43F02EFF43F0293
:106D9800F4F43F02FAF43F022DE9F0412DED028BA5
:106DA8000446884615460026B24FAAB016AB981975
:106DB8003946103603F09BFF502EF7D100262F21BD
:106DC800404604F033F93246071E1ADD3B46414679
:106DD80012A804F02FF916AB03EB061012A903F062
:106DE800DDFF12A803F038FF7A1C2F2140460192DC
:106DF80004F00EF90136042E0746019A01D0002846
:106E0800E3E7414612A804F037F916AB12A903EBE1
:106E1800061003F0C3FF12A803F01EFF964916A838
:106E280004F09FF800284BD1944916A8013604F0C5
:106E380098F888B1012E11D091491AA804F091F858
:106E480000283AD18F491AA804F08BF8002844D0BA
:106E580004F03FFE606533E0012E48D18A4916A848
:106E680004F07FF8002840F08380884916A804F0D1
:106E780078F8002800F02981012E04F1280740F055
:106E88001581394612A803F07EFF814912A804F043
:106E980031F8294604F022F801687E48FFF735FDED
:106EA80012A803F0D9FE294612A803F06CFF204669
:106EB80012A9FFF72DFF12A857E004F00AFE20657B
:106EC800042416AB03EB041003F0C6FE013CF8D211
:106ED8002AB0BDEC028BBDE8F0816F491AA804F016
:106EE80040F80028ECD004F0F4FDA065E8E76B4911
:106EF8001AA804F036F8002800F05E82284604F04C
:106F0800F9F816A9074606A803F03DFF06A912A836
:106F180003F039FF12A800F04FFE064612A803F04E
:106F28009BFE0EB3002F1FDD336839465B6A30467F
:106F3800984706A90AA803F026FF58490EA803F0A7
:106F4800D6FE294612A803F01EFF12AB0EAA0AA904
:106F58002046FFF7A7FE12A803F07EFE0EA803F056
:106F68007BFE0AA803F078FE06A803F075FEA7E7E3
:106F78002C21284604F05AF8041EA1DB631E0022C7
:106F8800294602A804F056F8621C294606A804F00F
:106F980073F802A804F0B4F806A8B0EE408A04F02A
:106FA800AFF83F490EA8F0EE408A03F0A0FEB0EE1D
:106FB800480A06210AA803F037FF0AA90EA803F019
:106FC8008DFF384903F096FF0446B0EE680A0621A3
:106FD80012A803F029FF12A9204603F07FFF0168D9
:106FE8002C48FFF719F912A803F036FE0AA803F097
:106FF80033FE0EA803F030FEB5EE408AF1EE10FA2B
:1070080033D0F5EE408AF1EE10FA2ED026490EA8BC
:1070180003F06DFEB0EE480A06210AA803F004FF4B
:107028000AA90EA803F05AFF1E4903F063FF04469D
:10703800B0EE680A062112A803F0F6FE12A920464F
:1070480003F04CFF01681348FFF7F4F812A803F0A7
:1070580003FE0AA803F000FE0EA803F0FDFDF0EE03
:10706800680AB0EE480AFFF755FA06A803F0F4FDDF
:1070780002A87AE795F83F02FEF43F0202F53F02C4
:1070880008F53F0213F53F0232F53F0265F53F026E
:107098006EF53F021CAE07101DF53F0227F53F02B3
:1070A80044F53F0250F53F0252F53F0239461AA80F
:1070B80003F04AFF00287FF4E4AEAA491AA803F0B7
:1070C80050FF00287FF4DDAEFAE6A74916A803F0C2
:1070D80048FF08B328342146284603F035FFA0B1FD
:1070E800214612A803F04FFEA04912A803F002FFA0
:1070F8000168019104F051F8019902469C48FFF794
:107108008BF812A803F0A8FDDAE62846954903F0A3
:1071180028FF0028E4D1D3E6964916A803F021FFFA
:10712800F0B128342146284603F00EFF88B12146E5
:1071380012A803F028FE904912A803F0DBFE0168AC
:107148008B48FFF769F812A803F086FD00F01AFED5
:10715800B6E62846834903F004FF0028E7D1AFE6E6
:10716800864916A803F0FDFE10B3283421462846A8
:1071780003F0EAFEA8B1214612A803F004FE8049F4
:1071880012A803F0B7FE01687948FFF745F812A87E
:1071980003F062FD00F0EAFC7A4B186803F0F6FF92
:1071A8008EE628466F4903F0DCFE0028E3D187E627
:1071B800012E57D1744916A803F0D3FE07460028BC
:1071C80040F0A280714916A803F0CBFE00283FF4D6
:1071D80077AE2834214612A803F0D5FD6C4912A8D1
:1071E80003F088FE294603F079FE01686048FFF73E
:1071F80013F812A803F030FD3946284603F006FFBD
:107208002D2840F0A5802946012212A803F034FF5A
:1072180012A803F06FFF454212A803F01DFD002DD0
:1072280000F09B8021460EA803F0ADFD59490EA839
:1072380003F060FE04460A22294612A803F0D9FD8D
:1072480012A9204603F04AFE01684948FEF7E4FF08
:1072580012A803F001FD0EA803F0FEFC2846FFF774
:107268005BF92DE64C491AA803F07BFE0028A1D053
:1072780016A912A803F087FD12A800F09DFC064687
:1072880012A803F0E9FC002E3FF41AAE284603F0DA
:1072980031FF42490746284603F063FE80B9284675
:1072A8003F4903F05EFE58B928463E4903F059FEAF
:1072B80020B928463C4903F054FE30B1002704E0C9
:1072C800336830461B6A98470746336839469B69D6
:1072D8003046984716A90AA803F055FD2E490EA86E
:1072E80003F005FD294612A803F04DFD12AB0EAAC6
:1072F8000AA92046FFF7D6FC12A803F0ADFC0EA899
:1073080003F0AAFC0AA830E6012E3FF4D9AD2834D0
:1073180021461AA803F018FE98B12846234903F01D
:1073280020FE00283FF4CCAD214612A803F02BFD27
:107338001F4912A803F0DEFD01680D48FEF76CFF37
:10734800DFE608491AA803F00CFE0028E5D1B7E5E6
:10735800284603F0CFFE054661E716490448FEF7C4
:107368004DFFADE5FAF43F0283F53F028AF53F028F
:107378001CAE07109DF53F02A3F53F02C4F53F027E
:10738800CAF53F0270AD0710E2F53F0246F63F022C
:107398000FF63F0226F63F02C6F53F02B4F73F025A
:1073A800E7F53F02ECF53F02F0F53F02F6F53F0244
:1073B800FBF53F023EF63F0219491AA803F0D1FD3A
:1073C80000283FF44BAD16A912A803F0DCFC12A864
:1073D80000F0F2FB064612A803F03EFC002E3FF434
:1073E8006FAD04F1280112A803F0CDFC0D4912A8D5
:1073F80003F080FD16A903F071FD01680A48FEF745
:107408000BFF12A803F028FC336828460749DC69FB
:1074180003F0A7FDB0FA80F130464909A0474FE5CF
:107428004FF63F023AF53F021CAE071042F53F0205
:1074380070B58CB00D460446164604F04AFB124956
:10744800A063284603F0D0FDE0B10822294668462B
:1074580003F012FE029B93B1694604A803F093FC63
:10746800314608A803F08FFC204608AA04A9FFF7B4
:1074780093FC08A803F0F0FB04A803F0EDFB6846B2
:1074880003F0EAFB0CB070BD60AD071010B50C46F8
:107498002F21204605F010F900B1441C204610BDEC
:1074A8000B4610B5184613F8014B2CB1202C01D10E
:1074B8001946F7E7282CF5D1401A1060084610BD88
:1074C80070B596B00446154604F003FB214B0246FE
:1074D80000932149C31702A804F09CFAE66C002E19
:1074E80032D101231D49E36406A803F000FC04F12E
:1074F800280106A803F0F2FC01460EA803F043FC9D
:1075080002A90AA803F03FFC15490AA803F0F2FCF7
:10751800294603F0E3FC014612A803F034FC334685
:1075280012AA0EA92046FFF739FB12A803F094FB14
:107538000AA803F091FB0EA803F08EFB06A803F03F
:107548008BFBE36C013BE36402A803F085FB16B0F8
:1075580070BD00BFC0F43F0270AE071054F63F0282
:10756800BEF43F022DE9F0410546174688B00E46A5
:1075780068464C4998460E9C03F0B9FB95F82030B4
:10758800BB4205D9684603F067FB08B0BDE8F08147
:107598002379D90726D5A1682846FFF777FF014642
:1075A800684603F003FC6946684603F075FC2379D6
:1075B8009A070FD53C49684603F072FC0A22E16835
:1075C80004A803F016FC684604A903F065FC04A8A7
:1075D80003F042FB237968465B074CBF33493449C3
:1075E80003F05EFC2379580712D5002304AA216909
:1075F80028460493FFF754FF0146684603F0D6FB7C
:107608006946684603F048FC68462A4903F048FC86
:107618000021384601F0F4FB0146684603F040FCBF
:107628006846234903F03CFC1EB13146684603F026
:1076380037FC237913F0300F27D01F49684603F031
:107648002FFC2379D9060BD5A2691C4904A803F09D
:1076580069FD684604A903F01FFC04A803F0FCFABE
:1076680023799A060DD5DB0603D568460F4903F042
:1076780017FC1349684603F013FC6846E16903F0F8
:107688000FFC5D21684603F01CFC694604A803F062
:107698007AFB2846414604AAFFF712FF04A803F024
:1076A800DBFA6FE795F83F0259F63F02BDF43F0257
:1076B8005DF63F025BF63F0260F63F0263F63F026B
:1076C8006DF63F0210B5044601F08AF8636CFA3390
:1076D80083422AD801F084F8A36C6064013313480C
:1076E800A364FFF70DF950B9A36C23F00202012A35
:1076F80012D10121BDE81040072004F0A2BC2046A9
:10770800FFF711F90028EFD094F86020A36C52B964
:1077180023F00202012A00E0052BEAD00021082B01
:10772800C8BFA164E6E7012BF7E710BDD0AE07108C
:1077380010B50446406A00F07CFE2046FFF7D8F9F1
:107748002046FFF769FA2046BDE81040FFF7BABFA8
:10775800012208B50B4B0C491A600C4803F0C7FA14
:107768000B490C4803F0C3FA0B490C4803F0BFFA65
:107778000B490C4803F0BBFABDE808400A490B481E
:1077880003F0B5BA70AD0710CCF33F0294AD071003
:10779800D4F33F02A4AD0710DEF33F0284AD071017
:1077A800E5F33F0260AD0710EDF33F0274AD07103B
:1077B800F0B58DB005462449684603F098FA234B86
:1077C800234E1C68234F64B394F83010582926D0F0
:1077D80004A803F0FDFA04A908A803F0D4FA314676
:1077E80008A803F087FB0146684603F055FB08A884
:1077F80003F032FA04A803F02FFA04F1080108A8EC
:1078080003F0C1FA08A9684603F046FB08A803F08C
:1078180023FA63681BB13946684603F041FB646884
:10782800D1E7029BB3F5806F09D328460A4903F0D4
:107838005EFA684603F010FA28460DB0F0BD6946B6
:10784800284603F086FAF4E795F83F025CAD071086
:1078580059F63F0250F53F0290F63F0230B5144604
:1078680085B0034668460D4698470298206001F0A7
:1078780095FC286050B12268009904F079FE002434
:10788800684603F0E9F9204605B030BD004CF7E73B
:10789800FCFEFFFF1FB50023CDE901330C23ADF833
:1078A8000430044B0422039301AB01F043FB05B001
:1078B8005DF804FB3D853F022DE9F0418CB005469B
:1078C80004F007F9C317024604A803F0FDFF04A952
:1078D80008A803F058FA374908A803F00BFB01463B
:1078E800684603F050FA08A803F0B6F904A803F0B4
:1078F800B3F9314B314E1C68314FDFF8CC80002C86
:1079080043D094F8301058293DD004A803F060FA09
:1079180004A908A803F037FA314608A803F0EAFAE0
:107928000146684603F0B8FA08A803F095F904A8D8
:1079380003F092F904F1080108A803F024FA08A951
:10794800684603F0A9FA08A803F086F9394608A89A
:1079580003F0CDF90A22A16904A803F04AFA04A9A0
:1079680008A803F0BBFA0146684603F095FA04A894
:1079780003F072F908A803F06FF963681BB1414678
:10798800684603F08DFA6468B9E7029BB3F5806F27
:107998000AD328460B4903F0AAF9684603F05CF9B4
:1079A80028460CB0BDE8F0816946284603F0D1F9B5
:1079B800F3E700BF5DF63F025CAD071059F63F02E2
:1079C800CFF63F02D1F63F0250F53F02F0B52C2129
:1079D8009DB0044603F02AFB051E13DC314909A8B3
:1079E80003F085F9214609A803F078FA01682E48C2
:1079F800FEF704FC09A803F02FF94FF0FF342046E6
:107A08001DB0F0BD2B460022214601A803F012FB51
:107A18006A1C214605A803F02FFB244909A803F096
:107A280066F901A909A803F059FA214903F062FA95
:107A380005A903F053FA01681B48FEF7EDFB09A8F6
:107A480003F00AF9019F059D47B33846FEF7E2F9AE
:107A580006462DB32846FEF7DDF9044638220021F4
:107A68000DEB020004F0ABFD4C23CDE909370323ED
:107A78008DF8383000230F48194609AA40680D943C
:107A8800CDE90B6501F028FBB0FA80F405A803F0F6
:107A9800E3F801A8640903F0DFF8B0E73E46D8E749
:107AA8002C46DBE70FF73F021CAE071028F73F0212
:107AB800BDF43F02D0AE0710F0B5254989B00446A1
:107AC80003F015F9234B244E1D68244F75B395F820
:107AD8003030582B28D105F1080104A803F053F9D8
:107AE80004A9204603F0D8F904A803F0B5F83146F4
:107AF80004A803F0FCF80A22A969684603F079F99A
:107B0800694604A803F0EAF90146204603F0C4F9DF
:107B1800684603F0A1F804A803F09EF86B681BB14F
:107B28003946204603F0BCF96D68CFE7A368B3F582
:107B3800806F03D30A490B48FEF760FBA3681BB9A3
:107B480009490848FEF768FB204609B0F0BD00BFA8
:107B580095F83F025CAD0710CFF63F0250F53F02A3
:107B680040F73F021CAE071081F73F0210B5054BE6
:107B78001C682CB1236820465B6898476468F8E75E
:107B880010BD00BF5CAD071010B5054B1C682CB1CB
:107B9800236820461B6B98476468F8E710BD00BF50
:107BA8005CAD07100020034B1B6813B15B68013004
:107BB800FBE770475CAD0710F0B5064600250E4B95
:107BC80085B01C68FFF7EEFFA84211DD8CB1236871
:107BD800214668469B6898473146684603F0D3F9C2
:107BE8000746684603F038F81FB964680135E9E7C5
:107BF8000024204605B0F0BD5CAD071038B52DED6A
:107C0800028B0025B0EE408AF0EE608A0A4B1C68B1
:107C1800FFF7C8FFA8420BDD54B123682046F0EEF9
:107C2800680AB0EE480ADB6A984701356468EFE7EE
:107C3800BDEC028B38BD00BF5CAD0710F0B5054642
:107C48000E46104B89B01C68CCB194F83030572BD5
:107C580013D12368294668465F6B03F094F83146D0
:107C680004A803F090F86946204604AAB84704A877
:107C780002F0F2FF684602F0EFFF6468E4E709B03B
:107C8800F0BD00BF5CAD07101FB5314C314920680D
:107C9800FFF700FE88B93049684603F028F8214606
:107CA800684603F01BF92D4903F024F901682C48B4
:107CB800FEF7A4FA684602F0CFFF2A4C2A4920684A
:107CC800FFF7E8FD88B92449684603F010F8214613
:107CD800684603F003F9214903F00CF901682048CC
:107CE800FEF78CFA684602F0B7FF204C204920685E
:107CF800FFF7D0FD88B91849684602F0F8FF214619
:107D0800684603F0EBF8154903F0F4F801681448E5
:107D1800FEF774FA684602F09FFF164C164922686F
:107D2800164801F04FFB88B90B49684602F0DFFF9F
:107D38002146684603F0D2F8114903F0DBF80168E0
:107D48000748FEF75BFA684602F086FF04B010BDEC
:107D5800E4AD071091843F0294F73F02C5F63F0255
:107D68001CAE0710F4AD071099873F02D4AD071079
:107D780099853F02C4AD0710AD863F0279A03F0246
:107D8800ADF73F02F0B5294B294F1C68294E99B031
:107D9800002C48D0394604A802F0A9FF23682146E0
:107DA800DB6868469847694604A803F097F83146A7
:107DB80003F0A0F80546236821461B6908A89847E0
:107DC800284608A903F08AF8314603F093F80546D7
:107DD800236821469B680CA898470CA9284603F0FD
:107DE8007DF8014614A802F0CEFFA1690A2210A866
:107DF80002F0FFFF002210A914A8FEF759FB10A8F3
:107E080002F02AFF14A802F027FF0CA802F024FFB2
:107E180008A802F021FF684602F01EFF04A802F03D
:107E28001BFF6468B4E719B0F0BD00BF5CAD071074
:107E3800B7F73F02BCF73F0208B50B490B4802F001
:107E480056FF0B490B4802F052FF0B490B4802F052
:107E58004EFF0B490B4802F04AFFBDE808400A49AB
:107E68000A4802F044BF00BFCCF33F02E4AD07105C
:107E7800D4F33F02F4AD0710DEF33F02D4AD071090
:107E8800E5F33F02B4AD0710EDF33F02C4AD0710B0
:107E980091F85C3010B50446016013B1886D00F0AC
:107EA80021FC204610BD10B50368044693F85C20F9
:107EB80012B1986D00F024FC204610BDF8B51F469D
:107EC8009DF8243004460D46164623B10123583048
:107ED800037100F0F9FB089B23630023636306B179
:107EE800A66425B1294604F1380002F05FFF069B1D
:107EF800E0692365079BA4F84C70FF2BB8BFFF23EC
:107F0800A4F8543008B1FDF7C6FFB4F85400FDF7E3
:107F1800C0FFE061F8BD00002DE9FF4104460025DF
:107F2800984617460E4603F037FC0D49E56104F103
:107F3800380002F0DCFE9DF82830FF22CDE90283EC
:107F48000F232046CDE9003231463B462A46A56438
:107F580084F85C50FFF7B2FF204604B0BDE8F0811A
:107F680095F83F0210B50446204603F071FB00283F
:107F7800FAD0204603F056F9C0B210BD2DE9F047FB
:107F88004FF0010905468846FFF7ECFF00274C46ED
:107F9800EB691870EB6993F800A00AF0F00A28461C
:107FA800FFF7E0FF2646EB690134985500F07F03A0
:107FB80013FB09F31F440306A4B2BFB24FEAC91961
:107FC800EDD4631EBAF1300F88F800301ED1284670
:107FD800FFF7C8FFEB6918552846FFF7C3FFF41CE5
:107FE800EB690236B6B298550226A4B2B6B2BE42C2
:107FF8000ED22846FFF7B6FFB5F854300136A34233
:1080080084BFEB6918550134A4B2EFE70026EDE709
:10801800B5F85430A3422CBF20460020BDE8F087B5
:108028002DE9F34115461E461A4607460023964693
:1080380002F07F0CBEF17F0F02A888BF4CF0800CC5
:108048005C1CBEF17F0F03444FEAD212E4B203F87E
:1080580004CC1ED8C4F10403C4F10500E954224637
:1080680001A9284405EB030804F082FA721C224493
:108078004146384603F0C1F8054600F0B1FB621CE2
:1080880078623244A8B2131A5842584102B0BDE887
:10809800F0812346CBE70233F0B5054698B20023BA
:1080A800CE5C9CB24EB1B5F854C05F1C844504D96F
:1080B800441C16543B46A0B2F2E799B2411A0A444E
:1080C800210A02F8021C02F8013CF0BD38B504464A
:1080D80003F0E0F9002814BF0125002502D120464D
:1080E80003F010FB284638BD2DE9F04788B0044658
:1080F800894617461E46DDF840809DF850A0FFF7D8
:10810800E5FF0546002840F0CD80214601A8FFF78D
:10811800BFFEA16C002940F088802B462046B4F8A9
:108128004C20A16B03F038F900287AD0012323846E
:108138009DF85430E269042B5B4B40F0818018684D
:1081480099889B79ADF80C108DF80E300290C2F822
:1081580005009DF80E30BDF80C10D3720C23A2F860
:108168000910B8F1000F00F081809DF848009DF8D3
:108178004420400140EAC20040F00600C0B2BAF113
:10818800000F01D100F0FD001FB1002E70D140F0AA
:108198008000E269D054226DE169581C12120A5419
:1081A800E169206D9A1C8854033349462046E269E8
:1081B800FFF771FF0346B8F1000F0BD04146E269A3
:1081C8002046FFF768FFE269034613992046FFF748
:1081D80062FF034667B139462046E269FFF75BFF55
:1081E80003462EB131462046E269FFF754FF0346A5
:1081F800053B1021E2699BB22046FFF711FF00F012
:10820800EFFA4FF47A76C4E90900204603F020FA21
:1082180088BB00F0E5FAA36AC01A236D734398423D
:10822800F3D9204603F06EFA35E002A801F0E2F92E
:108238002B462046B4F84C2002A903F08DF973E7C9
:10824800D3F80700D3F80B100DF1080CACE80300C5
:10825800DB7B8CF8003002AB03CBC2F80500C2F818
:1082680009109CF8003053730E237AE7022086E742
:1082780040F0C0008DE7204602A9FFF77FFE0428E2
:10828800CFD1E369DE78002ECBD100F0A9FA012521
:10829800A06284F82C6001A8FFF705FE284608B004
:1082A800BDE8F0870025F9E7D4F23F022DE9F74F42
:1082B800DDF83C8004468B4616461F469DF8345030
:1082C8009DF83890FFF702FF8246002851D02146DA
:1082D80001A8FFF7DDFD0021B4F85420E06904F09F
:1082E8006EF9052359462046E269FFF7D4FE6B1E56
:1082F800012B15D8218CE369013189B22184090A3F
:108308001954421CE369218C92B2023080B299540C
:10831800B8F1000F04D0238C5A1C2284A8F800302E
:1083280000210B188F42E2699BB20AD9B4F854C0F5
:108338009C4506D916F801C0013102F803C089B27C
:10834800EFE79DF8301000290CBF30213121B9F139
:10835800000F01D041F00801022D0ED141F00401B7
:10836800053B20469BB2FFF75BFE824601A8FFF75C
:108378009AFD504603B0BDE8F08F012D08BF41F0CB
:108388000201EDE71FB5089C0394002402949DF8B0
:108398001C4001949DF818400094FFF787FF04B033
:1083A80010BD73B504460E46FFF790FE0546C8B1EA
:1083B800214601A8FFF76CFD6222E36920461A7086
:1083C8000222E3695A70E369320A9A70E369042267
:1083D800DE70E16902F011FF051E01A818BF012532
:1083E800FFF761FD284602B070BD73B504460E461E
:1083F800FFF76CFE0546C8B1214601A8FFF748FD06
:108408007222E36920461A700222E3695A70E3690E
:10841800320A9A70E3690422DE70E16902F0EDFE27
:10842800051E01A818BF0125FFF73DFD284602B02B
:1084380070BD2DE9F04F2DED028B87B000AF0446DB
:10844800FFF744FE8146F8B1214607F11400FFF713
:108458001FFD00F0C5F94FF47A72236D06465343A9
:10846800A26A821A9A4203D8626A821A934221D275
:1084780094F82C307BB1204603F044F94FF0000902
:1084880007F11400FFF70FFD48461C37BD46BDEC49
:10849800028BBDE8F08FC021E26920461170E269C5
:1084A8005370E169022202F0A8FE0123C4E90966BB
:1084B80084F82C30204603F0CBF80028E0D0204682
:1084C80007F11301FFF75AFD83460028D8D0E36966
:1084D800A662197801F0F002302A7FD1D4F830A0D2
:1084E800BAF1000FCCD06A4697F813C008EE102AEC
:1084F80003EB0C025178957805EB01256946ADB27E
:1085080005F10802D208A1EBC202954668460CF1B3
:108518000302FA6003EB020E0DEB0502C7F808D060
:108528007A60D7E901218A4206D00A461EF8018BF3
:1085380002F8018BBA60F4E70022425593F80080F4
:10854800F96808F00608ABEB0C02033AB8F1020F21
:10855800A2EB0502294425D113F801E0194491F84A
:1085680001B00CF105012944023A19440BEB0E2B1A
:10857800D0474022E3691FFA8BFB1A70E36983F83E
:108588000180E3694FEA1B229A70E369042283F8A9
:1085980003B02046E16902F030FE666218EE103A38
:1085A8009D466DE7B8F1040F15D113F801E01944A1
:1085B80091F801B00CF105012944023A19440BEB7A
:1085C8000E2BD0475022E3691FFA8BFB1A70022248
:1085D800E3695A70D5E71944D047DFE7502A08D134
:1085E8009A78D978204601EB022189B2FFF7D9FEA3
:1085F80046E7402A12D1626B002A3FF441AFBBF133
:10860800040F7FF43DAF11F0060F7FF439AF99786E
:10861800D87800EB012080B2904731E7602A08D172
:108628009A78D978204601EB022189B2FFF7DDFE5E
:1086380026E7702ADFD0902A3FF422AFC02A0AD159
:10864800D0221A700022E36920465A70E16902229A
:1086580002F0D3FD14E7D02A04BF002384F82C309D
:108668000EE7F7B504460F461646FFF72FFD0546F9
:1086780010B3214601A8FFF70BFC238C01339BB2F2
:10868800EBB12384238CE2691B0A5371E369228CC2
:1086980039469A71E26907232046FFF7FCFCE36933
:1086A80082211E54043883B2E2692046FFF7B8FCE1
:1086B800054601A8FFF7F7FB284603B0F0BD0123E4
:1086C800DFE70022FFF7CDBF09B504480068044B77
:1086D80003441B681B6B029309BD0000C8AA07105E
:1086E8003000000009B504480068044B03441B68C7
:1086F8009B6B029309BD0000C8AA07103000000058
:1087080009B504480068044B03441B681B6C0293BA
:1087180009BD0000C8AA07103000000009B50448C8
:108728000068044B03441B685B6C029309BD00009E
:10873800C8AA07103000000009B504480068044BB7
:1087480003441B689B6C029309BD0000C8AA07106C
:108758003000000009B504480068044B03441B6856
:10876800DB6C029309BD0000C8AA071030000000A6
:1087780009B504480068044B03441B685B6D029309
:1087880009BD0000C8AA07103000000009B5044858
:108798000068044B03441B685B6D029309BD00002D
:1087A800C8AA07101C00000009B504480068044B5B
:1087B80003441B685B68029309BD0000C8AA071040
:1087C8000000000009B504480068044B03441B6816
:1087D800DB68029309BD0000C8AA0710000000006A
:1087E80009B504480068044B03441B685B6902939D
:1087F80009BD0000C8AA07100000000009B5044818
:108808000068044B03441B689B6A029309BD00007F
:10881800C8AA07100000000009B504480068044B06
:1088280003441B685B6C029309BD0000C8AA0710CB
:108838000000000009B504480068044B03441B68A5
:108848009B6C029309BD0000C8AA07100000000035
:1088580009B504480068044B03441B689B6D0293E8
:1088680009BD0000C8AA07100000000009B50448A7
:108878000068044B03441B685B6E029309BD00004B
:10888800C8AA07100000000009B504480068044B96
:1088980003441B689B68029309BD0000C8AA07101F
:1088A8001400000009B504480068044B03441B6821
:1088B800DB68029309BD0000C8AA07101400000075
:1088C80009B504480068044B03441B681B690293FC
:1088D80009BD0000C8AA07101400000009B5044823
:1088E8000068044B03441B681B6A029309BD00001F
:1088F800C8AA07101000000009B504480068044B16
:1089080003441B685B6A029309BD0000C8AA0710EC
:108918001000000009B504480068044B03441B68B4
:108928009B6A029309BD0000C8AA07101000000046
:1089380009B504480068044B03441B68DB6A0293CA
:1089480009BD0000C8AA07101000000009B50448B6
:108958000068044B03441B681B6B029309BD0000AD
:10896800C8AA07101000000009B504480068044BA5
:1089780003441B685B6B029309BD0000C8AA07107B
:108988001000000009B504480068044B03441B6844
:108998001B6C029309BD0000C8AA07101000000054
:1089A80009B504480068044B03441B685B690293DB
:1089B80009BD0000C8AA07105400000009B5044802
:1089C8000068044B03441B685B69029309BD0000FF
:1089D800C8AA07104C00000009B504480068044BF9
:1089E80003441B681B6A029309BD0000C8AA07104C
:1089F8004C00000009B504480068044B03441B6898
:108A08009B6A029309BD0000C8AA07104C00000029
:108A180009B504480068044B03441B689B6802932B
:108A280009BD0000C8AA07105000000009B5044895
:108A38000068044B03441B68DB68029309BD00000F
:108A4800C8AA07105000000009B504480068044B84
:108A580003441B689B69029309BD0000C8AA07105C
:108A68002000000009B504480068044B03441B6853
:108A7800DB69029309BD0000C8AA071020000000A6
:108A880009B504480068044B03441B681B6A029339
:108A980009BD0000C8AA07102000000009B5044855
:108AA8000068044B03441B689B6A029309BD0000DD
:108AB800C8AA07102000000009B504480068044B44
:108AC80003441B681B6B029309BD0000C8AA07106A
:108AD8002000000009B504480068044B03441B68E3
:108AE8009B6B029309BD0000C8AA07102000000074
:108AF80009B504480068044B03441B68DB6902930A
:108B080009BD0000C8AA07101800000009B50448EC
:108B18000068044B03441B681B6A029309BD0000EC
:108B2800C8AA07101800000009B504480068044BDB
:108B380003441B689B68029309BD0000C8AA07107C
:108B48002400000009B504480068044B03441B686E
:108B5800DB68029309BD0000C8AA071024000000C2
:108B680009B504480068044B03441B681B69029359
:108B780009BD0000C8AA07102400000009B5044870
:108B88000068044B03441B685B69029309BD00003D
:108B9800C8AA07102400000009B504480068044B5F
:108BA80003441B689B69029309BD0000C8AA07100B
:108BB8002400000009B504480068044B03441B68FE
:108BC800DB69029309BD0000C8AA07102400000051
:108BD80009B504480068044B03441B681B6A0293E8
:108BE80009BD0000C8AA07102400000009B5044800
:108BF8000068044B03441B689B6A029309BD00008C
:108C0800C8AA07102400000009B504480068044BEE
:108C180003441B68DB6A029309BD0000C8AA071059
:108C28002400000009B504480068044B03441B688D
:108C38001B6C029309BD0000C8AA0710240000009D
:108C480009B504480068044B03441B681B68029379
:108C580009BD0000C8AA07103400000009B504487F
:108C68000068044B03441B685B68029309BD00005D
:108C7800C8AA07103400000009B504480068044B6E
:108C880003441B689B68029309BD0000C8AA07102B
:108C98003400000009B504480068044B03441B680D
:108CA8001B69029309BD0000C8AA07103400000020
:108CB80009B504480068044B03441B685B690293C8
:108CC80009BD0000C8AA07103400000009B504480F
:108CD8000068044B03441B689B69029309BD0000AC
:108CE800C8AA07103400000009B504480068044BFE
:108CF80003441B68DB69029309BD0000C8AA07107A
:108D08003400000009B504480068044B03441B689C
:108D18001B6A029309BD0000C8AA071034000000AE
:108D280009B504480068044B03441B681B68029398
:108D380009BD0000C8AA07106C00000009B5044866
:108D48000068044B03441B689B68029309BD00003C
:108D5800C8AA07106C00000009B504480068044B55
:108D680003441B681B69029309BD0000C8AA0710C9
:108D78006C00000009B504480068044B03441B68F4
:108D88005B69029309BD0000C8AA07106C000000C7
:108D980009B504480068044B03441B681B6D029323
:108DA80009BD0000C8AA07105C00000009B5044806
:108DB8000068044B03441B685B6B029309BD000009
:108DC800C8AA07104800000009B504480068044B09
:108DD80003441B681B6D029309BD0000C8AA071055
:108DE8004800000009B504480068044B03441B68A8
:108DF8005B6D029309BD0000C8AA07104800000077
:108E080009B504480068044B03441B68DB6E0293F1
:108E180009BD0000C8AA07104800000009B50448A9
:108E28000068044B03441B681B6F029309BD0000D4
:108E3800C8AA07104800000009B504480068044B98
:108E480003441B681B68029309BD0000C8AA0710E9
:108E58000800000009B504480068044B03441B6877
:108E68005B68029309BD0000C8AA0710080000004B
:108E780009B504480068044B03441B685B69029306
:108E880009BD0000C8AA07100800000009B5044879
:108E98000068044B03441B681B6A029309BD000069
:108EA800C8AA07100800000009B504480068044B68
:108EB80003441B68DB6A029309BD0000C8AA0710B7
:108EC8000800000009B504480068044B03441B6807
:108ED8009B6D029309BD0000C8AA07100800000096
:108EE80009B504480068044B03441B68D3F888306C
:108EF800029309BDC8AA07100800000009B5044874
:108F08000068044B03441B68D3F89430029309BDEE
:108F1800C8AA07100800000009B504480068044BF7
:108F280003441B68D3F8AC30029309BDC8AA0710E4
:108F38000800000009B504480068044B03441B6896
:108F48001B68029309BD0000C8AA07102C00000086
:108F580009B504480068044B03441B685B68029326
:108F680009BD0000C8AA07102C00000009B5044874
:108F78000068044B03441B689B68029309BD00000A
:108F8800C8AA07102C00000009B504480068044B63
:108F980003441B685B69029309BD0000C8AA071057
:108FA8002C00000009B504480068044B03441B6802
:108FB8005B6A029309BD0000C8AA07102C000000D4
:108FC80009B504480068044B03441B681B6B0293F3
:108FD80009BD0000C8AA07102C00000009B5044804
:108FE8000068044B03441B68DB6B029309BD000057
:108FF800C8AA07102C00000009B504480068044BF3
:1090080003441B685B68029309BD0000C8AA0710E7
:109018002800000009B504480068044B03441B6895
:109028009B68029309BD0000C8AA07102800000029
:1090380009B504480068044B03441B68DB680293C5
:1090480009BD0000C8AA07102800000009B5044897
:109058000068044B03441B681B69029309BD0000A8
:10906800C8AA07102800000009B504480068044B86
:1090780003441B685B69029309BD0000C8AA071076
:109088002800000009B504480068044B03441B6825
:109098009B69029309BD0000C8AA071028000000B8
:1090A80009B504480068044B03441B68DB69029354
:1090B80009BD0000C8AA07102800000009B5044827
:1090C8000068044B03441B681B6A029309BD000037
:1090D800C8AA07102800000009B504480068044B16
:1090E80003441B689B6A029309BD0000C8AA0710C5
:1090F8002800000009B504480068044B03441B68B5
:109108001B6B029309BD0000C8AA071028000000C5
:1091180009B504480068044B03441B685B6B029361
:1091280009BD0000C8AA07102800000009B50448B6
:109138000068044B03441B681B6C029309BD0000C4
:10914800C8AA07102800000009B504480068044BA5
:1091580003441B685B6C029309BD0000C8AA071092
:109168002800000009B504480068044B03441B6844
:109178005B6D029309BD0000C8AA07102800000013
:1091880009B504480068044B03441B689B6D0293AF
:1091980009BD0000C8AA07102800000009B5044846
:1091A8000068044B03441B681B68029309BD000058
:1091B800C8AA07100400000009B504480068044B59
:1091C80003441B685B68029309BD0000C8AA071026
:1091D8000400000009B504480068044B03441B68F8
:1091E8009B68029309BD0000C8AA0710040000008C
:1091F80009B504480068044B03441B681B690293C3
:1092080009BD0000C8AA07100400000009B50448F9
:109218000068044B03441B68DB69029309BD000026
:10922800C8AA07100400000009B504480068044BE8
:1092380003441B685B6A029309BD0000C8AA0710B3
:109248000400000009B504480068044B03441B6887
:10925800DB6A029309BD0000C8AA071004000000D9
:1092680009B504480068044B03441B681B6B029350
:1092780009BD0000C8AA07100400000009B5044889
:109288000068044B03441B68DB6B029309BD0000B4
:10929800C8AA07100400000009B504480068044B78
:1092A80003441B681B6C029309BD0000C8AA071081
:1092B8000400000009B504480068044B03441B6817
:1092C8005B6C029309BD0000C8AA071004000000E7
:1092D80009B504480068044B03441B689B6C02935F
:1092E80009BD0000C8AA07100400000009B5044819
:1092F8000068044B03441B68DB6C029309BD000043
:10930800C8AA0710040000000021FFF7B1BD38B556
:10931800046805467CB16368013B63605BB92368F8
:1093280020469B689847A368013BA3601BB9236844
:109338002046DB689847284638BD10B54368044680
:10934800013B436063B903689B689847A368013B86
:10935800A3602BB923682046BDE81040DB68184796
:1093680010BD70B50446D0E9005305EB0316AE42B4
:1093780004D0284601F070FC1035F8E72068FFF7A4
:109388001BFF204670BD0000002302480360FFF762
:10939800C5B900BF04AE071010B588B004466846CA
:1093A80001F0A5FC694604A801F0EDFC04A8A0475B
:1093B800044604A801F050FC684601F04DFC204624
:1093C80008B010BD1FB500231024CDE90201019299
:1093D80069461A461846ADF80230ADF80040FFF766
:1093E800B7FD04B010BD002240681146FFF766BE05
:1093F800002240681146FFF78BBE00224068FFF745
:1094080079BE0022406881F00101FFF749BE0023C0
:1094180040681A461946FFF735BE002340681A46C9
:109428001946FFF721BE002240681146FFF70EBE1D
:10943800002240681146FFF7EDBD00220221406876
:10944800FFF7F6BD002340681A46FFF7D5BD0000B8
:109458000322024B5A60024A1A60704708AE07108E
:10946800D0F73F027047F8B5064615460C468F18E8
:10947800BC4206D0336830469B6814F8011B9847F5
:10948800F6E72846F8BD0022007CFFF727BA00213E
:10949800007CFFF731BA0021007CFFF73BBA0021BE
:1094A800007CFFF745BA0021007CFFF74FBA10B5E2
:1094B80004461421FCF7F1FC204610BD38B50446DB
:1094C80015464FF47A730022C4E90123094B084674
:1094D800217423602946FFF755FABF3008D16B691C
:1094E800DB0705D56868FFF767FEE868FFF764FEE5
:1094F800204638BD14F83F02704710B504461821BD
:10950800FCF7CBFC204610BDF0B5037D0E46062BBC
:109518004FF000048DB000F1040712D000F10805E7
:1095280015F8011D0A22304601F007FBAF4204443A
:1095380019D0002CF4D02E21304601F0FBFA044457
:10954800EEE72F236A4639460A208DF80040FFF7D8
:1095580035FA6846FCF75EFC3368024669463046D1
:10956800DB689847044620460DB0F0BD10B50446A8
:10957800044B1122002140F8043B03F020F8204658
:1095880010BD00BF3CF83F020346074A10B543F838
:10959800042B01F1100251F8044B914243F8044B9B
:1095A800F9D10A781A7010BD3CF83F02037D042BEC
:1095B80004D14068003818BF01207047062B07D136
:1095C80043683BB983682BB9C3681BB90069F1E7E5
:1095D800002070470120704710B59DF8084044EA04
:1095E800032343EA0242042342EA0161416003750E
:1095F80010BD000007B5064B0360CB7800938B784D
:109608004A780978FFF7E8FF03B05DF804FB00BF6C
:109618003CF83F02012200F1100313F8101C184611
:10962800012908D153F8041C02EB4102013A03F165
:109638001003F2D17047022904BF53F8041C5218D2
:10964800F4E70EB4F0B588B0102100AF07F1340587
:1096580055F8042B04462B4678187A60FD60FFF70E
:10966800E3FD0F287A681AD900F1080323F00703ED
:109678006E46ADEB030D411C2B466846FD60FFF7B7
:10968800D3FD021E04DD2368694620469B6898477F
:10969800B5462037BD46BDE8F04003B07047002806
:1096A800F7D0236802469B68204607F110019847C7
:1096B800EFE738B50B68044603604D6843689D4280
:1096C80008D015B16B6801336B60606808B1FFF7AB
:1096D80034FE656038BD07B503688DF807100122B0
:1096E8009B680DF10701984703B05DF804FB0B4632
:1096F8001146002210B50446C0E9002283600BB968
:10970800204610BDFFF7D5FFFAE78368EBB11A785A
:10971800032A1AD8DFE802F00417021B0520704755
:1097280002685B685268D05C2D2812D0A0F1300323
:10973800092B0ED974280ED066280CD0A0F16E0320
:10974800584258417047062070470020704704204F
:109758007047032070470220704710B50446FFF792
:10976800D4FF02280ED0C31EDBB2012B14D8226806
:10977800A36850685B680A22BDE8104000211844BD
:1097880003F05ABE2268A36852685B68D05CA0F1F7
:1097980074035842584110BD0020FCE738B5002337
:1097A8000446C0E900330E48C4E90203A9B10B78A6
:1097B800032B06D08BB9136858684B68C35C6E2BB3
:1097C80007D013684D6858688B6828445B1BA060F5
:1097D800E36011462046FFF76CFF204638BD00BF06
:1097E80095F83F0238B500250B4604461146C0E9F6
:1097F8000055C0E90255C0E904554BB11A78012A51
:1098080006D103F11002DB6882604361FFF751FF64
:10981800204638BD10B54369044663B18068013BF2
:10982800E0601030A0602061636113B1FFF7F2FEC1
:10983800A060012000E0184610BD10B57D21044647
:10984800FFF749FF01232046237110BD08B50379AE
:10985800012B02D0022B04D008BD2C21FFF73BFFBF
:10986800FAE73A21FAE710B50446FFF7EFFF20467A
:109878007B21FFF730FF00232046237110BD000035
:1098880013B504460191FFF7E1FF23682046DB6822
:10989800019A0349984701232046237102B010BD5D
:1098A80088F93F0213B504460191FFF7CFFF2368FB
:1098B8002046DB68019A0349984701232046237113
:1098C80002B010BD48F83F022DE9F0470D4690461A
:1098D800222104462F46FFF7FEFEDFF8A490A84495
:1098E8004745BA463DD017F8016B222E06D05C2EAC
:1098F80004D0304602F02CFE0028F1D12368294616
:1099080020469B68AAEB050298475C212046FFF792
:10991800E2FE0D2E0AD8072E1CD9A6F10803052B46
:1099280018D8DFE803F00D0F11171315222E01D0F8
:109938005C2E0FD131462046FFF7CDFE3D46CFE7DE
:109948006221F8E77421F6E76E21F4E76621F2E771
:109958007221F0E72368324649462046DB6898477B
:10996800ECE7BD4205D02368294620469B687A1B50
:10997800984722212046FFF7AEFEBDE8F08700BFDA
:109988004BF83F0213B50446CDE90021FFF75EFF0F
:10999800DDE900212046FFF797FF022320462371C7
:1099A80002B010BD13B50446CDE90021FFF74EFF04
:1099B800DDE900212046FFF787FF012320462371B8
:1099C80002B010BD80680368DB6818477047084616
:1099D80011B10B685B68184770477047704770474C
:1099E800704738B504460D4600682E2102F02BFE5C
:1099F8002368C31A2B6023B1037803B101302368AD
:109A08002060184638BD10B504460C21FCF745FA0D
:109A1800204610BD10B504460421FCF73EFA204646
:109A280010BD10B504460421FCF737FA204610BDD6
:109A3800FEF790BE08B5FCF7E3F9B0FA80F04009EC
:109A480008BD704710B50C4602F048F9844205D1AC
:109A580002F044F9BDE8104002F034B902F090FB7E
:109A6800844205D102F08CFBBDE8104002F0CDB86D
:109A78002CB123682046BDE810405B68184710BD2C
:109A88000B6803604B68436013B15A6801325A602F
:109A9800704713B5044608460191FCF7BBF9024626
:109AA8002046019902B0BDE81040FFF77BBF13B50F
:109AB800044608460191FCF7ADF9024620462368A2
:109AC8000199DB6802B0BDE81040184707B5036884
:109AD8008DF807100122DB680DF10701984703B0E4
:109AE8005DF804FB00220176C0E90022C0E90222E9
:109AF800C0E9042270470A6810B502604A684260EB
:109B08000022C0E9022202618C688A608460CC6805
:109B1800CA60C4600C690A61046110BD2DE9F74F81
:109B28004FF0140AD0E90084174645460AFB04F4AE
:109B38000093174BA4105C43002C21DD66100AFB30
:109B480006F005EB0009B9F804B03A465F4528BFAE
:109B58005A462858019102F088FD00284FF0010369
:109B680001990BD15F4503D1009A13703446E3E79E
:109B7800FCD9A61B09F11405013EF7E7F9DBF5E767
:109B8800A5EB08050248AD10684303B0BDE8F08FA7
:109B9800CDCCCCCC7FB50369057E019103B3F9B177
:109BA800002600F10C04039603A901A8FFF719FF8A
:109BB8000146A8B10DF10B032046039A8DF80B60FE
:109BC800FFF7ACFF9DF80B3053B12368142404FB56
:109BD8000034B4F906300834002BA8BFDDB2E3E73F
:109BE800284604B070BD0EB4F0B58CB000AF07F1D4
:109BF800440555F8042B04462B46202107F1100094
:109C08007A60FD60FFF710FB1F287A681AD900F107
:109C1800080323F007036E46ADEB030D411C2B46EA
:109C28006846FD60FFF700FB021E04DD23686946F5
:109C38002046DB689847B5463037BD46BDE8F0405A
:109C480003B070470028F7D023680246DB68204637
:109C580007F110019847EFE710B5084CD4E88F3F9B
:109C6800DB0709D42046FCF727F928B12046FCF782
:109C780028F9034802F05EFC024810BD14AE071034
:109C8800BBA63F02D0AA071010B5084CD4E88F3FF6
:109C9800DB0709D42046FCF70FF928B12046FCF76A
:109CA80010F9034802F046FC024810BD18AE071030
:109CB80023A73F02D4AA071038B500250446C0E9F7
:109CC8000055C0E904558560856140F8245FFEF7BA
:109CD80025FDFFF7C1FFE061FFF7D6FF257320627E
:109CE800204638BD10B50A4CD4E88F3FDB070CD4AA
:109CF8002046FCF7E1F840B10648FFF7DDFF2046B3
:109D0800FCF7DFF8044802F015FC024810BD00BF5C
:109D180010AE071020AE071015AF3F020023024A0D
:109D280002490348FFF77AB8FDAC3F0289AC3F020D
:109D380009AC3F0200231A4619461846FFF76EB8C9
:109D480037B504468D686846FFF79AFE6A46294685
:109D58002046FFF747FD01A8FFF7D9FA204603B0D0
:109D680030BD37B50446CD686846FFF789FE6A46B8
:109D780029462046FFF712FD01A8FFF7C8FA20463A
:109D880003B030BD37B504460D696846FFF778FE65
:109D98006A4629462046FFF7AAFC01A8FFF7B7FA4A
:109DA800204603B030BD000070B58AB00D460146AC
:109DB80004A8FFF7C5FF144E04A8FFF72BFDE8B170
:109DC800684604A9FFF7CDFF31460298FFF732FE37
:109DD800044610B12C1E18BF012401A8FFF797FAFA
:109DE800002CE9D0684604A9FFF7CCFF6846FFF7C6
:109DF800B4FC286001A8FFF78AFADDE705A8FFF799
:109E080086FA0AB070BD00BF51F83F0237B50C465C
:109E1800134920461546FBF7F3FF50B901F05EFFE2
:109E28004FF4165101F04AFF03B0BDE8304001F08D
:109E380055BF20460B49FBF7E3FF78B94FF416539B
:109E480001A928460193FFF7AFFF02F099F901999C
:109E580001F0D8FE02F094F903B030BD0020FBE712
:109E680056F83F025DF83F0270B51426D0E900535A
:109E7800044606FB0356AE4205D005F10800FFF77D
:109E8800F3FF1435F7E72068FFF796F9204670BD11
:109E980010B504460C30FFF7E7FF2046FFF761FADC
:109EA800204610BD10B50446034B40F8043BFFF7AD
:109EB800EFFF204610BD00BF28F33F0210B504464F
:109EC800FFF7F0FF20462421FBF7E7FF204610BDEF
:109ED80010B50446024B0360FFF7E4FF204610BDAF
:109EE800E4F83F0210B50446FFF7F2FF20462421AC
:109EF800FBF7D3FF204610BD0022C0E90022826094
:109F080010B50C680A6004604C684A6044608C684C
:109F18008A60846010BD10B5044603681868FEF7AF
:109F280027FC204610BD00002DE9F04F87B00393B1
:109F38001C4B80465B688946C3F3080316466BB919
:109F4800FFF7D0FE044600F12403406A0593FFF7AB
:109F58006FFD237B2BB105A8FFF7DDFF07B0BDE838
:109F6800F08F01235FFA89F92373D4E9005305EBD5
:109F7800830AAA4512D055F8047B3146381DFFF7ED
:109F880009FE8145F5D3039A3B680092D3F808B0DF
:109F98004A46334641463846D847EAE70023237302
:109FA800D9E700BF00ED00E02DE9F74F9B461A4BBB
:109FB80080465B688946C3F3080316466BB9FFF70A
:109FC80091FE044600F12403406A0193FFF730FD37
:109FD800237B2BB101A8FFF79EFF03B0BDE8F08FEC
:109FE8000123F6B22373D4E9005305EB830A5545E0
:109FF8000ED055F8047B5946381DFFF7CBFD864235
:10A00800F5D33B684A4641463846DB689847EEE751
:10A0180000232373DEE700BF00ED00E02DE9F341E4
:10A02800164B05465B680F46C3F308031BBBFFF7D7
:10A0380059FE044600F12403406A0193FFF7F8FC37
:10A04800D4E90063462406EB8308B04509D101A88A
:10A05800FFF761FFA542B4BF0020012002B0BDE8B0
:10A06800F08156F8040B39460430FFF793FD84421B
:10A07800A8BF0446E9E70020F0E700BF00ED00E0D4
:10A08800F8B5D0E901539D4204460E460DDB6F1C1E
:10A09800002F006804DDB900FFF79CF818B9F8BD77
:10A0A800FFF78AF800202060A7602768626807EB3E
:10A0B80085019200A2EB8502081D02F066FA47F8B6
:10A0C80025606368012001336360E8E737B504461B
:10A0D80000F12403406A01930D46FFF7A9FCD4E977
:10A0E800003203EB8202934219460AD0096804330E
:10A0F800A942F8D101A8FFF70EFF0025284603B0B2
:10A1080030BD29462046FFF7BBFF05460028F1D0A1
:10A118006368012B01D1FFF701FE01A8FFF7FBFEE1
:10A12800ECE70B4670B50446D0E9000200EB82026A
:10A1380082420FD001461D6851F8046BAE4207D128
:10A14800521A02F022FA01206368013B636070BD75
:10A158000846EDE70020FAE71FB5044600F124039E
:10A16800406A01910393FFF763FC204601A9FFF7BA
:10A17800D8FF18B163680BB9FFF7DCFD03A8FFF738
:10A18800CAFE04B010BD182370B50446D0E90456C1
:10A1980003FB0656AE4215D0204605F11001FFF725
:10A1A800C0FF63680BB9FFF7C5FDE069296903685B
:10A1B800DB689847696919B1206A0368DB689847C2
:10A1C8001835E7E71826D4E9045306FB0356AE42D0
:10A1D80004D0284600F040FD1835F8E700236361F5
:10A1E80070BD73B50446FFF7A5FD04F12403606A4A
:10A1F8000193FFF71DFC2046FFF7C5FF01A8FFF7F5
:10A208008AFE606A08B1FEF797FAD4E90453182663
:10A2180006FB0356AE4204D0284600F01DFD183553
:10A22800F8E72069FEF7C8FF2068FEF7C5FF20465B
:10A2380002B070BD0148FFF7D4BF00BF20AE0710C1
:10A248008842F8B504460D46164615D9904214D2F0
:10A25800A2F11406751AA1F114072C44B7421AD0BA
:10A268001CB131462046FFF746FC06F10800FFF70F
:10A27800FBFD143E143CF1E70DD0B5420BD01CB1E8
:10A2880029462046FFF737FC05F10800FFF7ECFDEB
:10A2980014351434F1E7F8BD8842F8B504460D4684
:10A2A800164614D9904213D2A2F11006751AA1F1DC
:10A2B80010072C44B74218D01CB13146204600F094
:10A2C80048FD304600F0C8FC103E103CF2E70CD0C8
:10A2D800B5420AD01CB12946204600F03AFD28466E
:10A2E80000F0BAFC10351034F2E7F8BD70B50E1E58
:10A2F800054611DD3001FEF751FF044658B1D5E996
:10A30800001201EB0212FFF7C7FF2868FEF754FF9F
:10A3180001202C60AE6070BD0024F6E72DE9F04FF7
:10A3280090460023462295B00391D8F804100446BD
:10A338009942C0E90033C0E90233C0E90433CDE9EA
:10A34800083302760A9323DCD8E90057142303FB69
:10A358000757AF423BD029460BA800F0FAFC0BA9DF
:10A368000FA8099E00F0F5FCDDE9091399421BDAF4
:10A37800089B099A03EB0616314603EB021206F115
:10A388001000FFF789FFEEB9099B0133099311E02B
:10A3980008A8FFF7ABFF0028D6D108A8FEF7E1FF11
:10A3A800204615B0BDE8F08F013108A8FFF79EFFE1
:10A3B8000028DDD10FA800F04FFC0BA800F04CFCE2
:10A3C8001435C6E730460FA900F0C3FCDCE70026C9
:10A3D8004FF01409CDE90B660D96DDE908239E427E
:10A3E8007CDA3301D35806930BB90136F5E700231D
:10A3F800079309FB06F30BAD029307A906A8FFF71D
:10A40800F0FA82460028F0D04FF0000301468DF89C
:10A4180017302846079A0DF11703FFF77FFB9DF8C1
:10A4280017700190002F4AD1BDF81C30CDE9117783
:10A43800ADF840304FF6FF73CDF83CA0ADF8423090
:10A448001397D5E90132934217DB03F1010ABAF1F8
:10A45800000F30DD09FB0AF0FEF7A0FE834660B36B
:10A46800D5E9001209FB0212FFF7EAFE2868FEF799
:10A47800A3FEC5F800B0C5F808A02B68019A09FB2F
:10A48800023A6A68514609FB02320AF11400FFF7E2
:10A49800D7FEBAF1000F03D050460FA9FFF72BFBE8
:10A4A8006B6801336B6011A8FFF7DEFC3FB10BA8A6
:10A4B800FFF7DAFC71E7BB46D8E70127F3E7019B12
:10A4C8002D6809FB0355069B1B782BB9D8F800307B
:10A4D800029A13441B7CEB8008358EE721682260C2
:10A4E80062686360A36809920A9A0A93E368A260A3
:10A4F8000B9A0B932369E2600C9A0C9363692261AF
:10A508000D9A0D93039B089162612376CFE70000B3
:10A51800F0B504462646174687B00D4668461946E4
:10A52800FBF75BFD0B4B694646F8043B03A8FBF7BA
:10A5380054FD394603AA3046FFF7F0FE03A8FBF79F
:10A548000BFD6846FBF708FD2046034B2562236098
:10A5580007B0F0BD28F33F02CCF83F02F0B50F4634
:10A5680085B038461C4916461D460A9CFBF748FC30
:10A57800C0B9A4B1294601A8FFF7BEFC2420174999
:10A5880001F08EFE054630B101AB32462146FFF799
:10A59800BFFF134B2B6001A8FBF7DEFC2C462046BF
:10A5A80005B0F0BD38460F49FBF72AFC90B9002CDE
:10A5B800F5D0294601A8FFF79FFC2420074901F0A0
:10A5C8006FFE05460028E6D03246214601ABFFF76C
:10A5D8009FFFE0E70024E2E765F83F02C4FA3F0284
:10A5E800E4F83F0269F83F02014B024A1A607047DB
:10A5F8001CAE07107AF83F022DE9F047089DD0F805
:10A60800209004460E461746984601F067FB8145A0
:10A618004DD02B79190704D520466A695449FFF7AC
:10A62800E2FAB8F1000F0DD05B212046FFF74EFA91
:10A6380041462046FFF73BFA236802222046DB68A2
:10A648004C4998472B79DA0724D5D5F808802F216B
:10A65800404602F031F808B100F1010841462046B1
:10A66800FFF725FA2B799B0708D53A212046FFF7F3
:10A678002DFA2046EA684049FFF7B5FA2A79236897
:10A6880012F0040F20464FF00202DB6814BF3B496A
:10A698003B4998472B7958071DD529690B461A4617
:10A6A80013F8010B60B1202808D11946F7E735489F
:10A6B80000F083F90028ACD0BDE8F0872828EED157
:10A6C8002368521A2046DB689847236804222046EC
:10A6D800DB682D49984700213846FEF791FB014673
:10A6E8002046FFF7E4F9236802222046DB68244964
:10A6F80098471EB131462046FFF7D9F92B7913F058
:10A70800300F2CD023682149DB6802222046984765
:10A718002B79D9060AD52368072220461C49DB680D
:10A7280098472046AA691B49FFF75DFA2B799A06D4
:10A7380011D5DB0605D5236802222046DB680F49C0
:10A7480098472368204614490A22DB689847204620
:10A75800E969FFF7ACF95D212046FFF7B7F92368EF
:10A768002046BDE8F0470222DB680C49184700BFC5
:10A778007EF83F0285F83F0288F93F02BDF43F02A8
:10A788005DF63F0248AE07105BF63F0260F63F02F7
:10A7980088F83F0290F83F026DF63F0293F83F02B7
:10A7A8002DE9F0410446076A0D46164601F096FA6F
:10A7B800874207D0206A324603682946BDE8F0413F
:10A7C800DB681847034800F0F8F80028F2D0BDE825
:10A7D800F08100BF48AE07102DE9F04385B0D0F8EE
:10A7E800209005460F4690461E460C9C01F076FACE
:10A7F800814505D1494800F0E0F8002840F08A80FA
:10A808004FF000092B6A464A01A8019203938DF87C
:10A818000890FFF728F849464046FEF7F1FA8046C7
:10A828004049012201A8FFF7ADF84146FFF731F989
:10A838003FB13D49012201A8FFF7A4F83946FFF7C7
:10A8480028F93EB13949012201A8FFF79BF83146A2
:10A85800FFF71FF92379DF070ED5A6682F213046A9
:10A8680001F02AFF00B1461C3149012201A8FFF777
:10A8780089F83146FFF70DF923799E0707D52D4949
:10A88800022201A8FFF77EF8E168FEF7F9FF2379B5
:10A89800580714D5266933461F4613F8012B2AB1E9
:10A8A800202A01D11E46F7E7282AF5D1022222499B
:10A8B80001A8FFF767F83146BA1BFFF773F8237949
:10A8C800190707D51D49012201A8FFF75BF861693F
:10A8D800FEF7E8FF2379DA0608D5042218490DEBBC
:10A8E8000200FFF74FF8A169FEF7CAFF23799B061C
:10A8F80007D51449062201A8FFF744F8E169FFF7D4
:10A90800C8F801A8FEF799FF286A022203680E49D1
:10A91800DB68984705B0BDE8F08300BF48AE071074
:10A92800B4F83F025BF83F0296F83F02C0FE3F02D0
:10A93800EEF53F0298F83F029BF83F02C8F53F0248
:10A948009EF83F02A3F83F0293F83F0200234068B5
:10A958001A46FEF751BB002202214068FEF768BB89
:10A96800002240681146FEF755BB00224068114698
:10A97800FEF76CBB002340681A461946FEF774BB05
:10A98800002340681A461946FEF77CBB0021406840
:10A99800FEF7CCBB00214068FEF7D6BB002240681A
:10A9A80081F00101FEF77CBB00224068FEF7A2BBE4
:10A9B800002240681146FEF7ABBB002240681146F2
:10A9C800FEF77CBB00214068FEF7DABB2DE9F043B7
:10A9D80095B014460D460746FEF7C8FD00211C2217
:10A9E8000DA8009101F0EBFD402320460C930021B7
:10A9F8006B460CAAFEF71AF8044600284BD102460B
:10AA080001216868FEF722FB022180462246686819
:10AA1800FEF71CFB21468146009E002E3BD00029F4
:10AA280039D17368022B03D00A2B11D0F669F4E7E9
:10AA3800B8F1000FFAD0716906A804313C1D07ADC2
:10AA4800FEF7D8FD0FCD0FC42B6841462370EDE704
:10AA5800B9F1000FEAD0102201A8746901F0AFFD26
:10AA6800062301AD8DF8143004F1080318342A4682
:10AA780018685968083303C2A3421546F7D101A9DB
:10AA880006A83C1D07ADFEF77FFD0FCD0FC42B6850
:10AA980049462370CAE70098FDF7BAFF384615B053
:10AAA800BDE8F083033802289ABF024B53F8200010
:10AAB8000148704724F93F0248AE071008B5002244
:10AAC8004068FEF74FFBBDE80840FFF7EBBF00000A
